:020000040000FA
:1000000068A7032089C002009BBB0500F5C0020061
:10001000F5C00200F5C00200F5C00200F5C0020004
:10002000000000000000000000000000B1B9020064
:10003000F5C002000000000031B9020075A90200FD
:100040009DBE02009DBE02009DBE02009DBE02003C
:100050009DBE02009DBE02009DBE02009DBE02002C
:100060009DBE02009DBE02009DBE02009DBE02001C
:100070009DBE02009DBE02009DBE02009DBE02000C
:100080009DBE02009DBE02009DBE02009DBE0200FC
:100090009DBE02009DBE02009DBE02009DBE0200EC
:1000A0009DBE02009DBE02009DBE02009DBE0200DC
:1000B0009DBE02009DBE02009DBE02009DBE0200CC
:1000C0009DBE02009DBE02009DBE02009DBE0200BC
:1000D0009DBE02009DBE02009DBE02009DBE0200AC
:1000E0009DBE02009DBE02009DBE02009DBE02009C
:1000F0009DBE020091F805009DBE02009DBE02005B
:100100009DBE02009DBE02009DBE02009DBE02007B
:100110009DBE02009DBE02009DBE02009DBE02006B
:100120009DBE02009DBE02009DBE02009DBE02005B
:100130009DBE02009DBE02009DBE02009DBE02004B
:100140009DBE02009DBE02009DBE02009DBE02003B
:100150009DBE0200FFFFFFFFC0F307430B4AD35CC5
:10016000C0F30721515C0B44C1B2525C1344A12B74
:1001700009D81A0106498A58904201D000207047D8
:1001800001EB031070470020704700BF4064070078
:10019000142F042070B506460D46002400E00134FB
:1001A000A12C09DC2301054AD358002BF7D029469E
:1001B00002EB0410B047F2E770BD00BF142F04201B
:1001C000000000000000000000000000000000002F
:1001D000000000000000000000000000000000001F
:1001E000000000000000000000000000000000000F
:1001F00000000000000000000000000000000000FF
:1002000000000000000000000000000000000000EE
:1002100000000000000000000000000000000000DE
:1002200000000000000000000000000000000000CE
:1002300000000000000000000000000000000000BE
:1002400000000000000000000000000000000000AE
:100250000000000000000000C3438B426DD332F069
:100260001F036AD1013902F01403014410B481EA7A
:100270000004142B0ED8DFE803F03F0D0D0D480DE0
:100280000D0D0D0D0D0D0D0D0D0D510D0D0D100064
:10029000DC0200D4002010BC70471F2C40E8C0F3E3
:1002A00005D91C4641E8C0F10B469C42F2D122F030
:1002B0001402013A0A2AEDD801A151F822F000BF38
:1002C000F302000035030000ED020000950200007B
:1002D0009502000095020000950200002F03000027
:1002E000F302000091020000ED0200009B02D2D454
:1002F000D0E71A03CFD4CDE71F2C40E800F3D6D9BE
:100300001C4641E800F10B46CFE71F2C40E840F3C4
:10031000CDD91C4641E840F10B46C6E71F2C40E80A
:1003200080F3C4D91C4641E880F10B46BDE75B036E
:10033000B0D5B0E75902AED5ACE70020704700BF9A
:1003400081F0004102E000BF83F0004330B54FEA86
:1003500041044FEA430594EA050F08BF90EA020FF3
:100360001FBF54EA000C55EA020C7FEA645C7FEA86
:10037000655C00F0E2804FEA5454D4EB5555B8BFA9
:100380006D420CDD2C4480EA020281EA030382EA1A
:10039000000083EA010180EA020281EA0303362DAC
:1003A00088BF30BD11F0004F4FEA01314FF4801C7F
:1003B0004CEA113102D0404261EB410113F0004F91
:1003C0004FEA03334CEA133302D0524263EB430348
:1003D00094EA050F00F0A780A4F10104D5F1200EE6
:1003E0000DDB02FA0EFC22FA05F2801841F1000141
:1003F00003FA0EF2801843FA05F359410EE0A5F115
:1004000020050EF1200E012A03FA0EFC28BF4CF045
:10041000020C43FA05F3C01851EBE37101F00045FB
:1004200007D54FF0000EDCF1000C7EEB00006EEB08
:100430000101B1F5801F1BD3B1F5001F0CD3490892
:100440005FEA30004FEA3C0C04F101044FEA4452E9
:1004500012F5800F80F09A80BCF1004F08BF5FEA70
:10046000500C50F1000041EB045141EA050130BD50
:100470005FEA4C0C404141EB0101013C28BFB1F562
:10048000801FE9D291F0000F04BF01460020B1FAAD
:1004900081F308BF2033A3F10B03B3F120020CDA80
:1004A0000C3208DD02F1140CC2F10C0201FA0CF05E
:1004B00021FA02F10CE002F11402D8BFC2F1200CC3
:1004C00001FA02F120FA0CFCDCBF41EA0C01904079
:1004D000E41AA2BF01EB0451294330BD6FEA0404C2
:1004E0001F3C1CDA0C340EDC04F11404C4F12002AD
:1004F00020FA04F001FA02F340EA030021FA04F3BF
:1005000045EA030130BDC4F10C04C4F1200220FA15
:1005100002F001FA04F340EA0300294630BD21FA53
:1005200004F0294630BD94F0000F83F4801306BF19
:1005300081F480110134013D4EE77FEA645C18BF0D
:100540007FEA655C29D094EA050F08BF90EA020FA4
:1005500005D054EA000C04BF1946104630BD91EA9C
:10056000030F1EBF0021002030BD5FEA545C05D19F
:100570004000494128BF41F0004130BD14F58004DE
:100580003CBF01F5801130BD01F0004545F0FE4152
:1005900041F470014FF0000030BD7FEA645C1ABF87
:1005A000194610467FEA655C1CBF0B46024650EABE
:1005B000013406BF52EA033591EA030F41F40021EA
:1005C00030BD00BF90F0000F04BF0021704730B570
:1005D0004FF4806404F132044FF000054FF0000145
:1005E00050E700BF90F0000F04BF0021704730B506
:1005F0004FF4806404F1320410F0004548BF4042DB
:100600004FF000013EE700BF42004FEAE2014FEA2F
:1006100031014FEA02701FBF12F07F4393F07F4F0A
:1006200081F06051704732F07F4208BF704793F00D
:100630007F4F04BF41F40021704730B54FF4607420
:1006400001F0004521F000411CE700BF50EA010223
:1006500008BF704730B54FF000050AE050EA0102CC
:1006600008BF704730B511F0004502D5404261EB3C
:1006700041014FF4806404F132045FEA915C3FF47D
:10068000D8AE4FF003025FEADC0C18BF03325FEA1A
:10069000DC0C18BF033202EBDC02C2F1200300FACB
:1006A00003FC20FA02F001FA03FE40EA0E0021FAF0
:1006B00002F11444BDE600BF70B54FF0FF0C4CF4DE
:1006C000E06C1CEA11541DBF1CEA135594EA0C0F90
:1006D00095EA0C0F00F0DEF82C4481EA030621EACB
:1006E0004C5123EA4C5350EA013518BF52EA033506
:1006F00041F4801143F4801338D0A0FB02CE4FF0B8
:100700000005E1FB02E506F00042E0FB03E54FF0E7
:100710000006E1FB03569CF0000F18BF4EF0010EDF
:10072000A4F1FF04B6F5007F64F5407404D25FEADB
:100730004E0E6D4146EB060642EAC62141EA55518E
:100740004FEAC52040EA5E504FEACE2EB4F1FD0CD0
:1007500088BFBCF5E06F1ED8BEF1004F08BF5FEA4E
:10076000500E50F1000041EB045170BD06F0004600
:1007700046EA010140EA020081EA0301B4EB5C04AD
:10078000C2BFD4EB0C0541EA045170BD41F48011A5
:100790004FF0000E013C00F3AB8014F1360FDEBFCA
:1007A000002001F0004170BDC4F10004203C35DAA6
:1007B0000C341BDC04F11404C4F1200500FA05F329
:1007C00020FA04F001FA05F240EA020001F00042CA
:1007D00021F0004110EBD37021FA04F642EB060140
:1007E0005EEA430E08BF20EAD37070BDC4F10C046A
:1007F000C4F1200500FA04F320FA05F001FA04F22E
:1008000040EA020001F0004110EBD37041F1000119
:100810005EEA430E08BF20EAD37070BDC4F1200524
:1008200000FA05F24EEA020E20FA04F301FA05F28C
:1008300043EA020321FA04F001F0004121FA04F234
:1008400020EA020000EBD3705EEA430E08BF20EA04
:10085000D37070BD94F0000F0FD101F0004640003E
:1008600041EB010111F4801F08BF013CF7D041EAC0
:10087000060195F0000F18BF704703F000465200C4
:1008800043EB030313F4801F08BF013DF7D043EA95
:100890000603704794EA0C0F0CEA135518BF95EA4B
:1008A0000C0F0CD050EA410618BF52EA4306D1D1D2
:1008B00081EA030101F000414FF0000070BD50EAF1
:1008C000410606BF1046194652EA430619D094EA7B
:1008D0000C0F02D150EA013613D195EA0C0F05D165
:1008E00052EA03361CBF104619460AD181EA0301B9
:1008F00001F0004141F0FE4141F470014FF0000071
:1009000070BD41F0FE4141F4780170BD70B54FF00B
:10091000FF0C4CF4E06C1CEA11541DBF1CEA13558B
:1009200094EA0C0F95EA0C0F00F0A7F8A4EB05046D
:1009300081EA030E52EA03354FEA013100F0888064
:100940004FEA03334FF0805545EA131343EA12632D
:100950004FEA022245EA111545EA10654FEA0026E2
:100960000EF000419D4208BF964244F1FD0404F59B
:10097000407402D25B084FEA3202B61A65EB0305F7
:100980005B084FEA32024FF480104FF4002CB6EBB4
:10099000020E75EB030E22BFB61A754640EA0C0034
:1009A0005B084FEA3202B6EB020E75EB030E22BF74
:1009B000B61A754640EA5C005B084FEA3202B6EBB5
:1009C000020E75EB030E22BFB61A754640EA9C0074
:1009D0005B084FEA3202B6EB020E75EB030E22BF44
:1009E000B61A754640EADC0055EA060E18D04FEA02
:1009F000051545EA16754FEA06164FEAC30343EAA2
:100A000052734FEAC2025FEA1C1CC0D111F4801F6E
:100A10000BD141EA00014FF000004FF0004CB6E767
:100A200011F4801F04BF01430020B4F1FD0C88BF06
:100A3000BCF5E06F3FF6AFAEB5EB030C04BFB6EB11
:100A4000020C5FEA500C50F1000041EB045170BD04
:100A50000EF0004E4EEA113114EB5C04C2BFD4EB31
:100A60000C0541EA045170BD41F480114FF0000EB5
:100A7000013C90E645EA060E8DE60CEA135594EA31
:100A80000C0F08BF95EA0C0F3FF43BAF94EA0C0F34
:100A90000AD150EA01347FF434AF95EA0C0F7FF4A9
:100AA00025AF104619462CE795EA0C0F06D152EAFD
:100AB00003353FF4FDAE1046194622E750EA4106E1
:100AC00018BF52EA43067FF4C5AE50EA41047FF4F2
:100AD0000DAF52EA43057FF4EBAE12E74FEA410255
:100AE00012F5001215D211D56FF47873B3EB625280
:100AF00012D94FEAC12343F0004343EA505311F0A7
:100B0000004F23FA02F018BF404270474FF0000038
:100B1000704750EA013005D111F0004008BF6FF076
:100B2000004070474FF00000704700BF4A0011D2EC
:100B300012F5001211D20DD56FF47873B3EB625237
:100B40000ED44FEAC12343F0004343EA505323FA43
:100B500002F070474FF00000704750EA013002D1B8
:100B60004FF0FF3070474FF0000070474FEA4102EE
:100B7000B2F1E04324BFB3F5001CDCF1FE5C0DD9FB
:100B800001F0004C4FEAC0024CEA5070B2F1004F45
:100B900040EB830008BF20F00100704711F0804F48
:100BA00021D113F13872BCBF01F00040704741F40D
:100BB00080114FEA5252C2F11802C2F1200C10FA11
:100BC0000CF320FA02F018BF40F001004FEAC123F5
:100BD0004FEAD32303FA0CFC40EA0C0023FA02F399
:100BE0004FEA4303CCE77FEA625307D150EA01336F
:100BF0001EBF4FF0FE4040F44000704701F000403F
:100C000040F0FE4040F40000704700BF80F000401C
:100C100002E000BF81F0004142001FBF5FEA4103D4
:100C200092EA030F7FEA226C7FEA236C6AD04FEAD4
:100C30001262D2EB1363C1BFD21841404840414019
:100C4000B8BF5B42192B88BF704710F0004F40F4CB
:100C5000000020F07F4018BF404211F0004F41F4E7
:100C6000000121F07F4118BF494292EA030F3FD0B3
:100C7000A2F1010241FA03FC10EB0C00C3F12003C6
:100C800001FA03F100F0004302D5494260EB400055
:100C9000B0F5000F13D3B0F1807F06D340084FEAC0
:100CA000310102F10102FE2A51D2B1F1004F40EBB5
:100CB000C25008BF20F0010040EA0300704749001D
:100CC00040EB0000013A28BFB0F5000FEDD2B0FABA
:100CD00080FCACF1080CB2EB0C0200FA0CF0AABFDD
:100CE00000EBC25052421843BCBFD040184370477B
:100CF00092F0000F81F4000106BF80F40000013281
:100D0000013BB5E74FEA41037FEA226C18BF7FEA57
:100D1000236C21D092EA030F04D092F0000F08BF99
:100D20000846704790EA010F1CBF0020704712F080
:100D30007F4F04D1400028BF40F00040704712F1BF
:100D400000723CBF00F50000704700F0004343F024
:100D5000FE4040F4000070477FEA226216BF08465A
:100D60007FEA23630146420206BF5FEA412390EA1D
:100D7000010F40F4800070474FF0000304E000BF13
:100D800010F0004348BF40425FEA000C08BF7047C4
:100D900043F0964301464FF000001CE050EA010288
:100DA00008BF70474FF000030AE000BF50EA01029D
:100DB00008BF704711F0004302D5404261EB41018A
:100DC0005FEA010C02BF84460146002043F0B643AF
:100DD00008BFA3F18053A3F50003BCFA8CF2083AD4
:100DE000A3EBC25310DB01FA02FC634400FA02FCDD
:100DF000C2F12002BCF1004F20FA02F243EB0200E4
:100E000008BF20F00100704702F1200201FA02FC45
:100E1000C2F1200250EA4C0021FA02F243EB020038
:100E200008BF20EADC7070474FF0FF0C1CEAD0527C
:100E30001EBF1CEAD15392EA0C0F93EA0C0F6FD03D
:100E40001A4480EA010C400218BF5FEA41211ED01B
:100E50004FF0006343EA501043EA5111A0FB013107
:100E60000CF00040B1F5000F3EBF490041EAD371DC
:100E70005B0040EA010062F17F02FD2A1DD8B3F158
:100E8000004F40EBC25008BF20F00100704790F0C7
:100E9000000F0CF0004C08BF49024CEA502040EA19
:100EA00051207F3AC2BFD2F1FF0340EAC2507047DF
:100EB00040F400004FF00003013A5DDC12F1190F1D
:100EC000DCBF00F000407047C2F10002410021FA8F
:100ED00002F1C2F1200200FA02FC5FEA310040F1A7
:100EE000000053EA4C0308BF20EADC70704792F020
:100EF000000F00F0004C02BF400010F4000F013A58
:100F0000F9D040EA0C0093F0000F01F0004C02BF52
:100F1000490011F4000F013BF9D041EA0C018FE7C1
:100F20000CEAD15392EA0C0F18BF93EA0C0F0AD0C7
:100F300030F0004C18BF31F0004CD8D180EA0100ED
:100F400000F00040704790F0000F17BF90F0004F86
:100F5000084691F0000F91F0004F14D092EA0C0F68
:100F600001D142020FD193EA0C0F03D14B0218BFFB
:100F7000084608D180EA010000F0004040F0FE4041
:100F800040F40000704740F0FE4040F440007047DD
:100F90004FF0FF0C1CEAD0521EBF1CEAD15392EA5C
:100FA0000C0F93EA0C0F69D0A2EB030280EA010C4C
:100FB00049024FEA402037D04FF0805343EA1111E5
:100FC00043EA10130CF000408B4238BF5B0042F143
:100FD0007D024FF4000C8B4224BF5B1A40EA0C00E8
:100FE000B3EB510F24BFA3EB510340EA5C00B3EB1A
:100FF000910F24BFA3EB910340EA9C00B3EBD10F08
:1010000024BFA3EBD10340EADC001B0118BF5FEA59
:101010001C1CE0D1FD2A3FF650AF8B4240EBC25082
:1010200008BF20F0010070470CF0004C4CEA502043
:101030007F32C2BFD2F1FF0340EAC250704740F492
:1010400000004FF00003013A37E792F0000F00F084
:10105000004C02BF400010F4000F013AF9D040EA02
:101060000C0093F0000F01F0004C02BF490011F496
:10107000000F013BF9D041EA0C0195E70CEAD1538E
:1010800092EA0C0F08D142027FF47DAF93EA0C0F75
:101090007FF470AF084676E793EA0C0F04D14B0259
:1010A0003FF44CAF08466EE730F0004C18BF31F00B
:1010B000004CCAD130F000427FF45CAF31F0004305
:1010C0007FF43CAF5FE700BF4FEA4002B2F1FE4F52
:1010D0000FD34FF09E03B3EB12620DD94FEA0023FA
:1010E00043F0004310F0004F23FA02F018BF4042D3
:1010F00070474FF00000704712F1610F01D14202BA
:1011000005D110F0004008BF6FF0004070474FF06D
:10111000000070477BB972B90029BEBF00204FF0B4
:10112000004106E008BF00281CBF6FF000414FF0EF
:10113000FF3000F0CFB9ADF1080C6DE904CE002905
:1011400009DB002B1ADB00F061F8DDF804E0DDE9D3
:10115000022304B07047404261EB4101002B1BDBCE
:1011600000F054F8DDF804E0DDE9022304B0404269
:1011700061EB4101524263EB43037047524263EB20
:10118000430300F043F8DDF804E0DDE9022304B096
:10119000404261EB41017047524263EB430300F070
:1011A00035F8DDF804E0DDE9022304B0524263EBD8
:1011B0004303704753B94AB9002908BF00281CBF30
:1011C0004FF0FF314FF0FF3000F084B9ADF1080C63
:1011D0006DE904CE00F01AF8DDF804E0DDE9022341
:1011E00004B07047430803F05533C01A830800F079
:1011F000333003F03333184400EB101000F00F309D
:1012000000EB002000EB0040000E70472DE9F04796
:10121000089E0D4604468A46002B7FD18A42174617
:1012200041D9B2FA82F24AB1C2F1200105FA02F3C1
:101230009740944020FA01F141EA030A4FEA174827
:101240004FEA144C1FFA87F9BAFBF8FE08FB1EA3FD
:101250000EFB09F14CEA0343994206D9FB1802D26E
:10126000994200F224810EF1FF3E591AA3B2B1FB5C
:10127000F8F008FB101100FB09F943EA0144A1450D
:1012800005D93C1902D2A14500F20E810138A4EB28
:10129000090440EA0E4000211EB1D4400023C6E9F3
:1012A0000043BDE8F08702B9FFDEB2FA82F2002AFD
:1012B0004FD1CB1B4FEA174E1FFA87F80121250C9F
:1012C000B3FBFEFC0EFB1C302B4608FB0CF945EA79
:1012D0000045A9450AD97D192CBF01230023A94542
:1012E00002D9002B00F0D9800CF1FF3CA5EB0905D9
:1012F000A3B2B5FBFEF00EFB105508FB00F843EA65
:101300000544A04505D93C1902D2A04500F2C98088
:101310000138A4EB080440EA0C40BDE78B4208D931
:10132000002E00F0B1800021C6E900050846BDE8A6
:10133000F087B3FA83F1002946D1AB42C0F0A78011
:10134000824240F2A4800846002EAAD0C6E9004A94
:10135000A7E7C2F12000974001FA02F34FEA174EC7
:10136000C14024FA00F51FFA87F894401D43B1FBF1
:10137000FEF02B0C0EFB101100FB08FC43EA0143AE
:101380009C4509D9FB182CBF012100219C4502D99D
:10139000002900F095800138A3EB0C03ADB2B3FB3C
:1013A000FEF10EFB113301FB08FC45EA0345AC4599
:1013B00005D97D1902D2AC4500F289800139A5EB2F
:1013C0000C0341EA00417AE7C1F120048B4002FAA4
:1013D00001F705FA01FCE24020FA04F8E54000FAC2
:1013E00001FE134348EA0C024FEA13484FEA124C3D
:1013F0001FFA83F9B5FBF8FA08FB1A550AFB09F046
:101400004CEA054C60450AD913EB0C0C2CBF0125A6
:101410000025604501D9002D55D00AF1FF3AACEB0B
:10142000000C92B2BCFBF8F008FB10CC00FB09F9F1
:1014300042EA0C4CE14505D913EB0C0C01D2E14515
:101440003BD8013840EA0A40ACEB090CA0FB078905
:10145000CC4545464A4602D306D1C64504D201389A
:10146000B8EB070569EB03022EB3BEEB05036CEB8B
:10147000020C23FA01F20CFA04F42CFA01F3002115
:101480001443C6E900430CE73146304609E7841AA5
:1014900065EB030301209A4656E7ACF1020C3D448C
:1014A00024E702383C4434E702383C44EFE6AEF12E
:1014B000020E3B44D9E63146F3E602389C44C1E7CC
:1014C00002383B4468E7AAF1020A9C44A7E70239C4
:1014D0003D4474E7704700BF2DE9F041A0B06E4B6A
:1014E0005B784BB3482200210EA85AF0F5FD6B4AF9
:1014F000134603CBCDF83900CDF83D100023ADF8ED
:1015000041308DF8433001218DF844102621ADF88B
:10151000481063490868CDF84A0009798DF84E10E3
:101520002B21ADF85810D068CDF85A008DF85E30F8
:1015300002238DF8783080E056F01EFCD2E7594A3D
:101540005949521A9208012161F302076FF3C50746
:1015500062F38F17002B00F084805449384657F00F
:10156000ACFE01238DF838305149262011F092FA53
:1015700000287BD002238DF838304E492B2011F003
:1015800089FA002879D002238DF83830484E306827
:10159000FFF728F804460D467068FFF723F83CA3D0
:1015A000D3E90023FFF7B2F902460B46204629464D
:1015B000FEF7CCFECDE914013E4E3068FFF712F87D
:1015C00004460D467068FFF70DF831A3D3E90023F8
:1015D000FFF79CF922462B46FEF7B8FECDE918012D
:1015E0002D4B1B7A7BB16C4612AD0FCD0FC40FCDC6
:1015F0000FC40FCD0FC495E8030084E803000EABC1
:101600000FCB1DF0A3F9244B5B68590CD80340F2B3
:10161000E7344FF47A72002300194FF0000444EBD2
:101620000101FFF7C7FDEFF3058323B9EFF314833F
:1016300013F0010F28D14CF033FF174B5B78002BD0
:1016400092D1EFF305821AB9EFF3148303F001038B
:10165000144A1268002B7FF472AF12F0070F80D08B
:101660006DE73946114822F041FB7AE7104B93E8C9
:101670000600114810F030FE7FE70E4B93E806009D
:101680000E4810F029FE81E7AB2603DFD5E700BF47
:101690000000000080842E41201D0420082906003F
:1016A000D45F0600FC230420F4230420985F060086
:1016B000E82B0220E02B0220B05F0600BC5F060092
:1016C0002DE9F047ACB0504B5B782BB148224F4925
:1016D0001AA85AF0DDFC44E011F0D8FAF6E74C4ABB
:1016E0004C49521A9208012161F302076FF3C507B2
:1016F00062F38F17002B46D04749384657F0DDFD7F
:1017000001238DF86830404B1B7A7BB16C461EADCF
:101710000FCD0FC40FCD0FC40FCD0FC495E803003C
:1017200084E803001AAB0FCB1DF010F9364B5B6851
:10173000590CD80340F2E7344FF47A7200230019B1
:101740004FF0000444EB0101FFF734FDEFF3058394
:101750002BB9EFF3148313F0010F40F029814CF003
:101760009FFE294B5B789BB9EFF305821AB9EFF323
:10177000148303F00103264A1268002BAFD112F044
:10178000070FBDD0ABE73946234822F0AFFAB7E7E1
:10179000224B1868EFF3058323B9EFF3148313F09A
:1017A000010F26D18368DB6838219847002839D09B
:1017B000EFF3058303BBEFF3148202F00102144B35
:1017C0001B6812B913F0070F0FD0114B11495B1AA8
:1017D0009B08012161F302096FF3C50963F38F19B7
:1017E00062B10F49484657F068FD02238DF8683012
:1017F00089E7F82603DFD9E70022E0E749460848F1
:1018000022F074FAF1E700BF2C1D042070240600BA
:1018100008240420F4230420985F0600F42B0220FF
:1018200060600600664B18680D23ADF83830EFF3A2
:1018300005832BB9EFF3148313F0010F40F094806C
:1018400083681B6918AABDF8381098475C4B186864
:101850000E23ADF83830EFF305832BB9EFF3148383
:1018600013F0010F40F0858083681B6916AABDF84C
:1018700038109847524B18681023ADF83830EFF302
:10188000058323B9EFF3148313F0010F76D1836836
:101890001B6914AABDF838109847EFF30583002B95
:1018A00071D1EFF3148202F00102464B1B681AB9A2
:1018B00003F00703022B1AD9424B43495B1A9B08DA
:1018C000032161F3020A6FF3C50A63F38F1A002A3A
:1018D0005BD0159B0393149B0293179B0193169B5C
:1018E0000093199B189A3949504657F0E6FC00239B
:1018F0008DF868301898FEF775FE04460D46199865
:10190000FEF770FE2CA3D3E90023FEF7FFFF22466B
:101910002B46FEF71BFDCDE920011498FEF762FE71
:1019200004460D461598FEF75DFE23A3D3E9002378
:10193000FEF7ECFF22462B46FEF708FDCDE9240119
:101940001698FEF74FFE04460D461798FEF74AFE1E
:1019500019A3D3E90023FEF7D9FF22462B46FEF751
:10196000F5FCCDE92801CEE60E9918AAF72603DF8B
:101970006CE70E9916AAF72603DF7BE70E9914AAE7
:10198000F72603DF89E700228FE7189B0E93199B48
:101990000F93169B1093179B1193149B1293159BF7
:1019A0001393534606220EA9084822F0D9F99EE760
:1019B000AB2603DFD5E600BF0000000080842E4187
:1019C000F42B022008240420F42304207C60060069
:1019D0002DE9F04FBBB0504B5B7833B148224F49F3
:1019E0000DEB02005AF054FB44E011F019FCF5E74E
:1019F0004B4A4C49521A9208012161F302046FF3D9
:101A0000C50462F38F14002B46D04749204657F097
:101A100054FC01238DF848303F4B1B7A7BB16E4656
:101A200016AF0FCF0FC60FCF0FC60FCF0FC697E859
:101A3000030086E8030012AB0FCB1CF087FF364B88
:101A40005B68590CD80340F2E7364FF47A720023F2
:101A500080194FF0000646EB0101FFF7ABFBEFF3F7
:101A600005832BB9EFF3148313F0010F40F02381AA
:101A70004CF016FD284B5B789BB9EFF305821AB941
:101A8000EFF3148303F00103254A1268002BAFD152
:101A900012F0070FBDD0ABE72146234822F026F90C
:101AA000B7E7224B1868EFF3058323B9EFF31483EC
:101AB00013F0010F26D18368DB683821984700288E
:101AC00038D0EFF3058303BBEFF3148202F0010279
:101AD000134B1B6812B913F0070F0FD0104B1149AD
:101AE0005B1A9B08012161F302056FF3C50563F3DF
:101AF0008F1562B10E49284657F0DFFB02238DF89F
:101B0000483089E7F82603DFD9E70022E0E72946D5
:101B1000074822F0EBF8F1E7381D0420B82406004E
:101B200068240420F4230420985F0600F82B022088
:101B300060600600644B18680723ADF84630EFF389
:101B400005832BB9EFF3148313F0010F40F0A58048
:101B500083681B6934AABDF8461098473498FEF78D
:101B600041FD06460F463598FEF73CFD54A3D3E9E8
:101B70000023FEF7CBFE32463B46FEF7E7FB8246EC
:101B80008B463698FEF72EFD06460F463798FEF731
:101B900029FD4BA3D3E90023FEF7B8FE32463B46AE
:101BA000FEF7D4FB06460F463898FEF71BFDCDE93D
:101BB0000E013998FEF716FD41A3D3E90023FEF785
:101BC000A5FEDDE90E23FEF7C1FBCDE90201CDE95B
:101BD000006752465B463D4925A82BF095FEEFF382
:101BE0000583002B5FD1EFF3148202F00102384B22
:101BF0001B681AB903F00703022B11D9344B35497E
:101C00005B1A9B08032161F302096FF3C50963F3B3
:101C10008F19002A49D025AA2F49484657F04DFB75
:101C200000238DF848303498FEF7DCFC06460F465A
:101C30003598FEF7D7FC22A3D3E90023FEF766FE12
:101C400032463B46FEF782FBCDE918013698FEF797
:101C5000C9FC06460F463798FEF7C4FC18A3D3E923
:101C60000023FEF753FE32463B46FEF76FFBCDE9FD
:101C70001C013898FEF7B6FC06460F463998FEF769
:101C8000B1FC0FA3D3E90023FEF740FE32463B46EA
:101C9000FEF75CFBCDE92001BEE6DDF8461034AA74
:101CA000F72603DF5AE70022A1E74A4625A90A489A
:101CB00022F09AF8B4E7AB2603DFDBE6AFF300804F
:101CC0000000000080842E41F82B02206461060091
:101CD00068240420F42304207C0E07000000000088
:101CE0002DE9F04FBBB04F4B5B7833B148224E49E2
:101CF0000DEB02005AF0CCF944E011F05BFDF5E782
:101D00004A4A4B49521A9208012161F302046FF3C7
:101D1000C50462F38F14002B46D04649204657F085
:101D2000CCFA01238DF848303E4B1B7A7BB16E46CE
:101D300016AF0FCF0FC60FCF0FC60FCF0FC697E846
:101D4000030086E8030012AB0FCB1CF0FFFD354B00
:101D50005B68590CD80340F2E7364FF47A720023DF
:101D600080194FF0000646EB0101FFF723FAEFF36D
:101D700005832BB9EFF3148313F0010F40F0258195
:101D80004CF08EFB274B5B789BB9EFF305821AB9B9
:101D9000EFF3148303F00103244A1268002BAFD140
:101DA00012F0070FBDD0ABE72146224821F09EFF7D
:101DB000B7E7214B1868EFF3058323B9EFF31483DA
:101DC00013F0010F23D18368DB683821984700287E
:101DD00036DAEFF30583EBB9EFF3148202F0010278
:101DE000124B1B6812B913F0070F9DD00F4B10490F
:101DF0005B1A9B08012161F302056FF3C50563F3CC
:101E00008F154AB10D49284657F057FA8CE7F82646
:101E100003DFDCE70022E3E72946084821F066FFFC
:101E200082E700BF441D0420002506007C24042016
:101E3000F4230420985F0600FC2B0220606006005B
:101E4000654B18680323ADF84630EFF305832BB9D3
:101E5000EFF3148313F0010F40F0A98083681B692E
:101E600034AABDF8461098473498FEF7BBFB0646E7
:101E70000F463598FEF7B6FB55A3D3E90023FEF7CE
:101E800045FD32463B46FEF761FA82468B46369860
:101E9000FEF7A8FB06460F463798FEF7A3FB4CA3B8
:101EA000D3E90023FEF732FD32463B46FEF74EFAF9
:101EB00006460F463898FEF795FBCDE90E01399896
:101EC000FEF790FB42A3D3E90023FEF71FFD024675
:101ED0000B46DDE90E01FEF739FACDE90201CDE945
:101EE000006752465B463D4925A82BF00DFDEFF3F8
:101EF0000583002B61D1EFF3148202F00102384B0D
:101F00001B681AB903F00703022B11D9344B35496A
:101F10005B1A9B08032161F302096FF3C50963F3A0
:101F20008F19002A4BD025AA2F49484657F0C5F9EA
:101F300000238DF848303498FEF754FB06460F46D0
:101F40003598FEF74FFB22A3D3E90023FEF7DEFC12
:101F500032463B46FEF7FAF9CDE918013698FEF70E
:101F600041FB06460F463798FEF73CFB18A3D3E922
:101F70000023FEF7CBFC02460B4630463946FEF7FF
:101F8000E5F9CDE91C013898FEF72CFB06460F4613
:101F90003998FEF727FB0EA3D3E90023FEF7B6FC22
:101FA00032463B46FEF7D2F9CDE92001BCE6DDF82A
:101FB000461034AAF72603DF56E700229FE74A4679
:101FC00025A9094821F010FFB2E7AB2603DFD9E6C7
:101FD0000000000080842E41FC2B0220406206009D
:101FE0007C240420F42304207C0E07000000000061
:101FF0002DE9F04FBBB0504B1B6833B148224F491D
:102000000DEB02005AF044F844E011F09DFEF5E7B4
:102010004B4A4C49521A9208012161F302046FF3B2
:10202000C50462F38F14002B46D04749204657F071
:1020300044F901238DF84830444B1B7A7BB16E463E
:1020400016AF0FCF0FC60FCF0FC60FCF0FC697E833
:10205000030086E8030012AB0FCB1CF077FC3B4B70
:102060005B68590CD80340F2E7364FF47A720023CC
:1020700080194FF0000646EB0101FFF79BF8EFF3E4
:1020800005832BB9EFF3148313F0010F40F0238184
:102090004CF006FA2D4B5B789BB9EFF305821AB929
:1020A000EFF3148303F00103254A1268002BAFD12C
:1020B00012F0070FBDD0ABE72146234821F016FEF2
:1020C000B7E71D4B1868EFF3058323B9EFF31483CB
:1020D00013F0010F26D18368DB6838219847002868
:1020E00038D0EFF3058303BBEFF3148202F0010253
:1020F000134B1B6812B913F0070F0FD0104B114987
:102100005B1A9B08012161F302056FF3C50563F3B8
:102110008F1562B10E49284657F0CFF802238DF88B
:10212000483089E7F82603DFD9E70022E0E72946AF
:10213000074821F0DBFDF1E7002C022048250600CE
:1021400080240420F4230420985F0600501D0420FE
:1021500060600600644B18680B23ADF84630EFF35F
:1021600005832BB9EFF3148313F0010F40F0A58022
:1021700083681B6934AABDF8461098473498FEF767
:1021800031FA06460F463598FEF72CFA54A3D3E9E8
:102190000023FEF7BBFB32463B46FEF7D7F88246EC
:1021A0008B463698FEF71EFA06460F463798FEF71E
:1021B00019FA4BA3D3E90023FEF7A8FB32463B46AE
:1021C000FEF7C4F806460F463898FEF70BFACDE93D
:1021D0000E013998FEF706FA41A3D3E90023FEF772
:1021E00095FBDDE90E23FEF7B1F8CDE90201CDE95B
:1021F000006752465B463D4925A82BF085FBEFF36F
:102200000583002B5FD1EFF3148202F00102384BFB
:102210001B681AB903F00703022B11D9344B354957
:102220005B1A9B08032161F302096FF3C50963F38D
:102230008F19002A49D025AA2F49484657F03DF862
:1022400000238DF848303498FEF7CCF906460F4647
:102250003598FEF7C7F922A3D3E90023FEF756FB12
:1022600032463B46FEF772F8CDE918013698FEF784
:10227000B9F906460F463798FEF7B4F918A3D3E923
:102280000023FEF743FB32463B46FEF75FF8CDE9FD
:102290001C013898FEF7A6F906460F463998FEF756
:1022A000A1F90FA3D3E90023FEF730FB32463B46EA
:1022B000FEF74CF8CDE92001BEE6DDF8461034AA61
:1022C000F72603DF5AE70022A1E74A4625A90A4874
:1022D00021F08AFDB4E7AB2603DFDBE6AFF3008035
:1022E0000000000080842E41002C022018630600AC
:1022F00080240420F42304207C0E0700000000004A
:10230000D0B5034600685C68642303FB04F302193C
:1023100003B91AB193FBF2F32C2B22DCFEF762F91E
:1023200037A3D3E90023FEF7C7F906460F46204638
:10233000FEF758F934A3D3E90023FEF7BDF90246AE
:102340000B4630463946FEF701F800223A4BFEF7BD
:10235000B3F92FA3D3E90023FEF7D8FAFEF7BEFBAB
:10236000D0BDA3F12D02122A22D8FEF73BF92AA3F1
:10237000D3E90023FEF7A0F906460F462046FEF7F4
:1023800031F927A3D3E90023FEF796F902460B465D
:1023900030463946FDF7D8FF0022274BFEF78CF96F
:1023A0001BA3D3E90023FEF7B1FAFEF797FBD7E7AB
:1023B000403B142B22D8FEF715F91BA3D3E90023C9
:1023C000FEF77AF906460F462046FEF70BF918A3EA
:1023D000D3E90023FEF770F902460B463046394632
:1023E000FDF7B4FF0022144BFEF766F908A3D3E90A
:1023F0000023FEF78BFAFEF771FBB1E70020AFE791
:102400004FAF94658863FC3FA857CA32C4B1F13F0F
:102410007B14AE47E17AC43F77BE9F1A2F1D11404F
:102420006688635DDC46FF3FD881734694F6E23FE1
:10243000BC7493180456BE3F0000E03F000000004B
:102440002DE9F0439FB03DE079481146AA2603DF0D
:1024500046E07848C52603DF4DE0002257E0764B82
:1024600076495B1A9B08042161F302046FF3C504EB
:1024700063F38F14002A52D0714A7249204656F0F5
:102480001CFF714B03221A70704B1B79002B40F01C
:10249000B2806F4B02221A706E4B18680CF09CFFD2
:1024A0006D4B00221A70694BDB785BB9EFF3058343
:1024B0002BB9EFF3148313F0010F40F0B08067489D
:1024C0004AF072FE4FF0FF321346EFF3058020B959
:1024D000EFF3148111F0010FB6D1554849F0D6FA47
:1024E000EFF3058323B9EFF3148313F0010FB0D199
:1024F00050485FF0BEF9564B1B78012B15D0EFF317
:102500000583002BA9D1EFF3148202F001024A4B9C
:102510001B68002AA3D113F0040FB2D09FE7224614
:102520004749484821F060FCABE74D4B1868FEF77F
:1025300059F8804689464B4B1868FEF753F8064613
:102540000F4639A3D3E9002340464946FEF7DEF99A
:102550008046894634A3D3E9002330463946FEF746
:10256000D5F9CDE9000142464B463F490FA82BF073
:10257000CBF9EFF30583002B35D1EFF3148202F092
:1025800001022D4B1B681AB903F00703022B10D967
:10259000294B2A495B1A9B08032161F302056FF35B
:1025A000C50563F38F1502B30FAA3049284656F0CC
:1025B00084FE254E00233370294B1868FEF712F86D
:1025C00019A3D3E90023FEF7A1F9C6E90601254BBB
:1025D0001868FEF707F814A3D3E90023FEF796F96D
:1025E000C6E90A0150E70022CBE72A460FA91F4897
:1025F00021F0FAFBDDE7DFF850C06E460CF1100762
:102600000FCF0FC60FCF0FC60FCF0FC697E803002F
:1026100086E803009CE80F001CF098F939E70F48A2
:10262000BD2603DF4EE700BF00000000D01263416B
:10263000E02B0420082A042094240420F4230420FE
:10264000088E060038890600801B0420981D04208F
:10265000F1230420EC3D0220F55A022080140020D2
:10266000F03D0220F43D0220548906007C0E070054
:1026700038B51446036926390B2900F20E81DFE8CC
:1026800011F00C0020003B00560071009600A100E4
:10269000B500C900DD00F1009B009988844AA2FBC7
:1026A0000101890921609988A2FB01239B094FF44C
:1026B0007A7202FB13139BB202FB03F363600020E8
:1026C00038BDB3F906207A4981FB0250D217C2EB1C
:1026D000A01212B22260B3F9060081FB0031C317C9
:1026E000C3EBA1134FF47A7202FB13031BB202FB7C
:1026F00003F363600020E3E7B3F908206C4981FB32
:102700000250D217C2EBA01212B22260B3F9080035
:1027100081FB0031C317C3EBA1134FF47A7202FBA4
:1027200013031BB202FB03F363600020C8E7B3F995
:102730000A205F4981FB0250D217C2EBA01212B2ED
:102740002260B3F90A0081FB0031C317C3EBA11368
:102750004FF47A7202FB13031BB202FB03F36360B4
:102760000020ADE7588AFDF73DFF4DA3D3E90023D4
:10277000FDF7A2FFFEF7FAF9FDF746FF4AA3D3E9FA
:102780000023FDF7E1FDFEF7F1F90546FEF79CFC9D
:102790002060FEF7F5FA01462846FEF73BFA454968
:1027A000FEF742FBFEF790FC6060002088E7DB89C3
:1027B00023600020606083E7B3F9103023600020BD
:1027C00060607DE7998A3A4AA2FB0101890921608C
:1027D000998AA2FB01239B094FF47A7202FB13131F
:1027E0009BB202FB03F36360002069E7D98A304A99
:1027F000A2FB010189092160D98AA2FB01239B095F
:102800004FF47A7202FB13139BB202FB03F3636073
:10281000002055E7198B264AA2FB01018909216096
:10282000198BA2FB01239B094FF47A7202FB13134D
:102830009BB202FB03F36360002041E7598B1C4A03
:10284000A2FB010189092160598BA2FB01239B098D
:102850004FF47A7202FB13139BB202FB03F3636023
:1028600000202DE7B3F90C20114981FB0250D2174B
:10287000C2EBA01212B22260B3F90C0081FB00314E
:10288000C317C3EBA1134FF47A7202FB13031BB2FD
:1028900002FB03F36360002012E76FF085000FE78F
:1028A0009A9999999999B93F6666666666127140D8
:1028B000D34D6210002474492DE9F04F93B00469A0
:1028C000476800238DF847308DF84630ADF8443026
:1028D000FE8806EB46053889FDF784FEAAA3D3E9F6
:1028E0000023FDF7E9FE804689463046FDF77AFE73
:1028F00042464B46FEF70AF8FEF718F91FFA80FA2F
:102900004FF40041204639F0A3FA002831DBADB284
:102910004FF40041204639F09BFA002851DB132187
:10292000204639F095FA002880F2AE80EFF3058357
:10293000002B6ED1EFF3148303F00103944A126865
:1029400013B912F0070F11D0914A9249521A920806
:102950004FF00000012161F302006FF3C50062F344
:102960008F10002B57D08C4956F0A7FC6FF0040055
:1029700076E0EFF30583EBB9EFF3148303F0010383
:10298000834A126813B912F0070F10D0804A8149A8
:10299000521A92084FF00000012161F302006FF318
:1029A000C50062F38F103BB17C4956F086FC6FF096
:1029B000040055E00023E3E70146784821F096F94A
:1029C000F5E7EFF30583EBB9EFF3148303F00103AD
:1029D0006F4A126813B912F0070F10D06C4A6D4994
:1029E000521A92084FF00000012161F302006FF3C8
:1029F000C50062F38F103BB1684956F05EFC6FF082
:102A000004002DE00023E3E70146644821F06EF95D
:102A1000F5E7002392E701465F4821F067F9A5E753
:102A2000EFF30583FBB9EFF3148202F00102584B78
:102A30001B6812B913F0070F10D0554B55495B1A9C
:102A40009B084FF00000012161F302006FF3C50005
:102A500063F38F104AB1524956F02FFC6FF0040017
:102A600013B0BDE8F08F0022E1E701464C4821F0A9
:102A70003DF9F3E740F2676000214BF011FDBDF82E
:102A8000443013F0100F0CD111AA0621204638F063
:102A900063FE0028C4DBBDF8443013F0100FEED104
:102AA000E8E700226121204639F03CF9002819DBD3
:102AB00052223E21204639F035F900283ADB002227
:102AC0003F21204639F02EF900286FDB00231F2B11
:102AD00000F2948012AA1A44002102F8241C013347
:102AE000DBB2F4E7EFF30583EBB9EFF3148303F004
:102AF0000103274A126813B912F0070F10D0244AB5
:102B00002449521A92084FF00000012161F302009B
:102B10006FF3C50062F38F103BB1224956F0CDFB35
:102B20006FF004009CE70023E3E701461D4821F015
:102B3000DDF8F5E7EFF30583EBB9EFF3148303F06A
:102B40000103134A126813B912F0070F10D0104A8C
:102B50001049521A92084FF00000012161F302005F
:102B60006FF3C50062F38F103BB10F4956F0A5FB20
:102B70006FF0040074E70023E3E701460A4821F000
:102B8000B5F8F5E7AFF300809A9999999999B93F0B
:102B90000C240420F42304204420070024200700F0
:102BA0005C2007007420070098200700EFF30583DE
:102BB000EBB9EFF3148303F00103A34A126813B9CE
:102BC00012F0070F10D0A04AA049521A92084FF0F5
:102BD0000000012161F302006FF3C50062F38F1062
:102BE0003BB19B4956F069FB6FF0040038E70023C6
:102BF000E3E70146964821F079F8F5E7202309AA92
:102C00000021204639F0D4F8002810DB00238DF88D
:102C100047301F2B33D812AA1A4412F8242C9DF8DF
:102C200047100A448DF847200133DBB2F1E7EFF398
:102C30000583EBB9EFF3148303F00103824A1268B2
:102C400013B912F0070F10D07F4A8049521A920828
:102C50004FF00000012161F302006FF3C50062F341
:102C60008F103BB17B4956F028FB6FF00400F7E66C
:102C70000023E3E70146774821F038F8F5E79DF8AF
:102C80004730DB438DF84730206860238DF80830EB
:102C900002AB03930123049300228DF814200DF15D
:102CA00046020692079307238DF8203083685E68FA
:102CB0005523022203A9B0470028C0F2CD80FE8828
:102CC000330AF6B24FEA1529EDB27F894FEA172889
:102CD000FAB201924FEA1A2B5FFA8AFA20684A2266
:102CE0008DF808208DF8093002AB0393022304937A
:102CF0008DF8143083685F685523012203A9B84713
:102D00000028C0F2D18020684B238DF808308DF860
:102D1000096002AB0393022304938DF81430836897
:102D20005E685523012203A9B0470028C0F2E48061
:102D300020684C238DF808308DF8099002AB03937E
:102D4000022304938DF8143083685E6855230122B2
:102D500003A9B0470028C0F2F78020684D238DF802
:102D600008308DF8095002AB0393022304938DF8C9
:102D7000143083685D685523012203A9A847002801
:102D8000C0F20A81206850238DF808308DF8098040
:102D900002AB0393022304938DF8143083685D68BB
:102DA0005523012203A9A8470028C0F21D812068ED
:102DB00051238DF80830019B8DF8093002AB039345
:102DC000022304938DF8143083685D685523012233
:102DD00003A9A8470028C0F22F8120685B238DF843
:102DE00008308DF809B002AB0393022304938DF8E9
:102DF000143083685D685523012203A9A847002881
:102E0000C0F2428120685C238DF808308DF809A05B
:102E100002AB0393022304938DF8143083685D683A
:102E20005523012203A9A8470028C0F26981002385
:102E30001F2B00F28D8112AA1A44002102F8241CD3
:102E40000133DBB2F4E700BF0C240420F423042098
:102E5000B8200700D8200700EFF30583EBB9EFF3A4
:102E6000148303F001039C4A126813B912F0070F90
:102E700010D0994A9949521A92084FF00000012146
:102E800061F302006FF3C50062F38F103BB1944908
:102E900056F013FA6FF00400E2E50023E3E7014681
:102EA0008F4820F023FFF5E7EFF30583EBB9EFF34D
:102EB000148303F00103884A126813B912F0070F54
:102EC00010D0854A8549521A92084FF0000001211E
:102ED00061F302006FF3C50062F38F103BB18149CB
:102EE00056F0EBF96FF00400BAE50023E3E7014682
:102EF0007C4820F0FBFEF5E7EFF30583EBB9EFF339
:102F0000148303F00103744A126813B912F0070F17
:102F100010D0714A7149521A92084FF000000121F5
:102F200061F302006FF3C50062F38F103BB16E498D
:102F300056F0C3F96FF0040092E50023E3E7014681
:102F4000694820F0D3FEF5E7EFF30583EBB9EFF323
:102F5000148303F00103604A126813B912F0070FDB
:102F600010D05D4A5D49521A92084FF000000121CD
:102F700061F302006FF3C50062F38F103BB15B4950
:102F800056F09BF96FF004006AE50023E3E7014681
:102F9000564820F0ABFEF5E7EFF30583EBB9EFF30E
:102FA000148303F001034C4A126813B912F0070F9F
:102FB00010D0494A4949521A92084FF000000121A5
:102FC00061F302006FF3C50062F38F103BB1484913
:102FD00056F073F96FF0040042E50023E3E7014681
:102FE000434820F083FEF5E7EFF30583EBB9EFF3F9
:102FF000148303F00103384A126813B912F0070F63
:1030000010D0354A3549521A92084FF0000001217C
:1030100061F302006FF3C50062F38F103BB13549D5
:1030200056F04BF96FF004001AE50023E3E7014680
:10303000304820F05BFEF5E7EFF30583EBB9EFF3E3
:10304000148303F00103244A126813B912F0070F26
:1030500010D0214A2149521A92084FF00000012154
:1030600061F302006FF3C50062F38F103BB1224998
:1030700056F023F96FF00400F2E40023E3E7014681
:103080001D4820F033FEF5E7EFF30583EBB9EFF3CE
:10309000148303F00103104A126813B912F0070FEA
:1030A00010D00D4A0D49521A92084FF0000001212C
:1030B00061F302006FF3C50062F38F103BB10F495B
:1030C00056F0FBF86FF00400CAE40023E3E7014682
:1030D0000A4820F00BFEF5E70C240420F42304201A
:1030E000F4200700142107003421070054210700B1
:1030F000782107009C210700C0210700E421070078
:10310000EFF30583EBB9EFF3148303F001039B4A5C
:10311000126813B912F0070F10D0984A9849521A42
:1031200092084FF00000012161F302006FF3C50027
:1031300062F38F103BB1934956F0BFF86FF0040073
:103140008EE40023E3E701468E4820F0CFFDF5E74B
:10315000202309AA0021204638F02AFE00280CDB93
:1031600000210A461F2930D812AB0B4413F8243C27
:103170001A44D2B20131C9B2F4E7EFF30583EBB9D7
:10318000EFF3148303F001037C4A126813B912F0C1
:10319000070F10D0794A7A49521A92084FF000006E
:1031A000012161F302006FF3C50062F38F103BB1A0
:1031B000754956F082F86FF0040051E40023E3E70C
:1031C0000146714820F092FDF5E7D243D2B260216A
:1031D000204638F0A7FD00282BDB00228DF8472081
:1031E000206860238DF8083002AB03930123049319
:1031F0008DF814200DF147020692079307238DF8EE
:10320000203083685D685523022203A9A84700285F
:1032100038DB0C21204638F01BFE00285BDB422106
:10322000204638F015FE00287EDB0023ADF8443040
:10323000E2E0EFF30583F3B9EFF3148303F0010346
:103240004E4A126813B912F0070F10D04B4A4C497E
:10325000521A92084FF00000012161F302006FF34F
:10326000C50062F38F1043B1484956F026F86FF05D
:103270000400FFF7F5BB0023E2E70146434820F0D6
:1032800035FDF4E7EFF30583F3B9EFF3148303F0AF
:1032900001033A4A126813B912F0070F10D0374AE7
:1032A0003749521A92084FF00000012161F30200E1
:1032B0006FF3C50062F38F1043B1354955F0FDFF40
:1032C0006FF00400FFF7CCBB0023E2E70146304873
:1032D00020F00CFDF4E7EFF30583F3B9EFF314836B
:1032E00003F00103254A126813B912F0070F10D03A
:1032F000224A2349521A92084FF00000012161F33B
:1033000002006FF3C50062F38F1043B1214955F0FD
:10331000D4FF6FF00400FFF7A3BB0023E2E70146F0
:103320001C4820F0E3FCF4E7EFF30583F3B9EFF377
:10333000148303F00103114A126813B912F0070F46
:1033400010D00E4A0E49521A92084FF00000012187
:1033500061F302006FF3C50062F38F1043B10E49B1
:1033600055F0ABFF6FF00400FFF77ABB0023E2E7F4
:103370000146094820F0BAFCF4E700BF0C24042001
:10338000F423042004220700D82007002422070089
:10339000442207005C2207007C220700EFF305832C
:1033A000F3B9EFF3148202F00102354B1B6812B936
:1033B00013F0070F10D0324B32495B1A9B084FF0C5
:1033C0000000012161F302006FF3C50063F38F1069
:1033D00042B12D4955F071FF6FF00400FFF740BB7B
:1033E0000022E2E70146284820F080FCF4E7BDF81F
:1033F000443013F0100F11D011AA0621204638F0E6
:10340000ABF90028CADBBDF8443013F0100FEED042
:1034100040F2676000214BF043F8E8E720212046A6
:1034200038F016FD002802DB0020FFF719BBEFF390
:103430000583F3B9EFF3148303F00103104A126814
:1034400013B912F0070F10D00D4A0E49521A920804
:103450004FF00000012161F302006FF3C50062F339
:103460008F1043B1094955F028FF6FF00400FFF7B2
:10347000F7BA0023E2E70146044820F037FCF4E7FE
:103480000C240420F42304205C2007009C22070065
:10349000F8B50446002A4AD0062A4CD1D3F800C019
:1034A0006046C1174FEA411E4FEA4C124EEADC65F6
:1034B000B2EB0C0265EB01054FEA452C4CEAD25CFD
:1034C0004FEA422E65461EEB000241EB05054FEA2E
:1034D000851E4EEA926E4FEA821CBCEB02026EEB36
:1034E0000505161845EB01075B68F61847EBE3770F
:1034F000012E77F100030FDB134811A3D3E900235A
:1035000030184FF0000147EB0101FDF703FE0146C3
:10351000204638F05BFE10E00C4809A3D3E90023F5
:10352000301847F1FF31FDF7F5FD0146F0E7198846
:103530005BF070FC01E06FF08500F8BDAFF3008038
:103540003AA39500000000009DD14A00632EB5FF0C
:10355000F8B504460846032A08D8DFE802F00B3124
:1035600002054FF4837507E0832505E000232360FF
:10357000636024E04FF48365FDF734F806460F4698
:103580002846FDF72FF802460B4630463946FDF730
:10359000BDF906460F46FDF7A1FA0546FDF722F8EC
:1035A00002460B4630463946FCF7CEFE256006A3A0
:1035B000D3E90023FDF780F8FDF790FA6060F8BDCD
:1035C0004FF40375D8E700BF0000000080842E414F
:1035D0000246064B186801E0D0F8A00028B1037A33
:1035E0008B42F9D143689342F6D17047F02502200F
:1035F000044B1B6800201BB1D3F8A0300130FAE760
:10360000704700BFF025022010B400231C4600E0E4
:1036100001336CB9042B0BD8064A52F82310026808
:103620009142F5D1034A002142F823100124EFE72B
:1036300010BC7047D02502200A4B1B68002283B1C2
:10364000834203D01A46D3F8A030F8E722B1D3F86A
:10365000A030C2F8A0307047D3F8A020014B1A6008
:1036600070477047F025022001460023184600E00D
:10367000013340B9042B06D8034A52F823208A426A
:10368000F6D10120F4E77047D025022010B504469A
:10369000144A1368036001331360002B02DD00231A
:1036A0001A4604E0134601221A60F8E7013362B9B2
:1036B000042B0AD80C4951F823100029F6D12168AF
:1036C000094A42F823100122F0E72AB1074B1A6891
:1036D000C4F8A0201C6010BD40F29221044801F003
:1036E000C3FCF3E7081D0420D0250220F0250220AA
:1036F000782A060038B504460D460CF085FBA36811
:10370000A3420CD3234653F8082F9A420DD2A36844
:103710001D60A3680433A3600CF084FB38BD4FF434
:103720005071054801F0A0FCECE740F2413102483D
:1037300001F09AFCEBE700BF782A060030B583B0B1
:103740000446D0F898307BB10021186954F012F982
:1037500028B9D4F89830186954F053F920B140F2E0
:10376000C9214D4801F080FC606954F0D1F820690E
:1037700054F0CEF8E56801A853F09DFF0CF044FB2F
:10378000D0B9D4F89830ABB15A699AB101998A424C
:103790000CD00CF047FBD4F89830186954F0B8F806
:1037A000D4F89830186954F02CF905E09D680CF0B5
:1037B00039FB01E00CF036FB284654F0A9F820460E
:1037C000FFF73AFF2046FFF71FFF237A2BB1012BAB
:1037D0000BD1606804F036F807E060680DF04AFB32
:1037E00003E00369236554F07DFA206D0028F8D1C9
:1037F000D4F89C0054F076FAA0690368002B48D1F5
:10380000284654F0FEF8E06854F079F8D4F898307F
:1038100073B3186954F07CF8D4F89830186954F0F0
:10382000F0F8D4F89830186954F069F8D4F8983062
:10383000986854F06DF8D4F89830986854F0E1F82E
:10384000D4F89830986854F05AF8D4F89830D8687A
:1038500054F05EF8D4F89830D86854F0D2F8D4F820
:103860009830D86854F04BF8D4F8980054F03AFAED
:10387000206954F0C6F8206954F041F8606954F0AA
:10388000C0F8606954F03BF8204654F02BFA03B0BE
:1038900030BD54F027FAB3E7782A060038B504465D
:1038A0000D4609B1037F0BB9A56338BD0B464268CD
:1038B000017A02480CF0C0FAF6E700BFB42A06000D
:1038C000437FCBB970470A210E480CF0B5FA02E0ED
:1038D0000C480CF0B1FA0135B54212D214F8011BB4
:1038E000A1F120035E2BF3D90D29ECD00A29F2D0E7
:1038F00005480CF0A1FAEEE770B50C461646002517
:10390000EAE770BD84D90600D82A060010B584699C
:1039100022691AB3A3689A4220D8E1688A4203D97F
:10392000037FE3B92369E3602169A3685B1AA3609D
:10393000E268521AE2601C31214404F11C0058F084
:1039400091FB237D442B02D1637D452B0BD040F2AC
:103950005F41224801F088FB0023236110BD20480D
:103960000CF06AFADEE7A37D412BF0D1E37D442B16
:10397000EDD1237E422BEAD1637E452BE7D1A37E96
:10398000452BE4D1E37E462BE1D1636803F11C02B1
:10399000A25C442ADBD103F11D02A25C452AD6D1E8
:1039A00003F11E02A25C412AD1D103F11F02A25CE5
:1039B000442ACCD103F12002A25C422AC7D103F1F0
:1039C0002102A25C452AC2D103F12202A25C452A4F
:1039D000BDD12333E35C462BB9D1BDE7782A06007D
:1039E000E02A060010B5846911B9D0F890300BB9FF
:1039F0000023E360E168F9B1A268914203D2037F3A
:103A0000F3B9E368A360A36803F11C01E268D21A6A
:103A1000214404F11C0058F025FB237D442B02D1E6
:103A2000637D452B10D040F23D41254801F01CFB41
:103A3000A268E3689B1AE36000232361A36010BDC2
:103A400020480CF0F9F9DCE7A37D412BEBD1E37DB5
:103A5000442BE8D1237E422BE5D1637E452BE2D176
:103A6000A37E452BDFD1E37E462BDCD1636803F1D7
:103A70001C02A25C442AD6D103F11D02A25C452A95
:103A8000D1D103F11E02A25C412ACCD103F11F0265
:103A9000A25C442AC7D103F12002A25C422AC2D10F
:103AA00003F12102A25C452ABDD103F12202A25CEE
:103AB000452AB8D12333E35C462BB4D1B8E700BF25
:103AC000782A06002C2B060010B584B004460E4B55
:103AD000186853F01DFFA36A0133A362E36A63B160
:103AE0000093019404F128030293236803931022A6
:103AF0006946064B186802F0E1F8034B186853F06A
:103B000080FF04B010BD00BFEC250220E425022098
:103B10002DE9F04F83B007460D46846900230093DA
:103B2000037AABB1012B18D00026E168A26891425C
:103B300003D23B7FB3B9A368E360E268A368D31AFA
:103B400001939DB1D7F82090F6B94FF0000A11E02B
:103B500040680DF057FA0646E7E7406803F050FE6C
:103B60000646E2E76E480CF067F9E4E74FF0020A18
:103B70004FF0FF3963689A420BD0A3681C3323448B
:103B800000934FF000083AE04FF0000A4FF064094C
:103B9000F0E73B7F53B9A26804F11C013846FFF7F8
:103BA0008FFE01213846FFF71DFFE6E77A68397A74
:103BB0005C480CF041F9EEE74A46514638464FF072
:103BC00049FE8046B8F1000F05DDE3684344E36039
:103BD000019B43440193019DD7F8903003B1F5B99F
:103BE0000A2053F044FDB8F1000F40F04081D7E9BE
:103BF000182348464FF010FD002840F338813B7AE7
:103C0000002BD9D0012BDDD1A36803F11C01626820
:103C1000D21A2144786803F0FBFC8046D2E74FF0CB
:103C2000000898E0A37D412B40F0A580E37D442B64
:103C300040F0A180237E422B40F09D80637E452B87
:103C400040F09980A37E452B40F09580E37E462B83
:103C500040F09180636803F11C02A25C442A40F0AA
:103C60008A8003F11D02A25C452A40F0848003F1A2
:103C70001E02A25C412A7ED103F11F02A25C442AEB
:103C800079D103F12002A25C422A74D103F121020E
:103C9000A25C452A6FD103F12202A25C452A6AD1B7
:103CA0002333E35C462B66D16AE0A37D412B7ED1B2
:103CB000E37D442B7BD1237E422B78D1637E452B41
:103CC00075D1A37E452B72D1E37E462B6FD16368FD
:103CD00003F11C02A25C442A69D103F11D02A25C1B
:103CE000452A64D103F11E02A25C412A5FD103F18F
:103CF0001F02A25C442A5AD103F12002A25C422A8C
:103D000055D103F12102A25C452A50D103F12202D0
:103D1000A25C452A4BD12333E35C462B47D14BE0D1
:103D2000742B0600BC2B060040F274517F4801F052
:103D30009BF9A3681E44019A16441C362644009B36
:103D4000991B0096E3685B1AE36090440195BBF110
:103D5000000F3FF445AFD7F89060D7F8943001AA30
:103D600069463846B0478346237D442B03D1637DA3
:103D7000452B3FF457AF40F22A516C4801F074F9DB
:103D8000019BAB4200D90195BBF1000F6DD0A0683B
:103D9000464640441C30019A5946204458F062F986
:103DA000237D442B03D1637D452B3FF47EAF40F24E
:103DB00051515E4801F058F9E5681C352544009BD7
:103DC0009D4200D2009500996D1AA0683044019B75
:103DD00018441C302A46204458F044F9237D442BD3
:103DE000A2D1637D452B9FD1A37D412B9CD1E37D47
:103DF000442B99D1237E422B96D1637E452B93D1C0
:103E0000A37E452B90D1E37E462B8DD1636803F1D1
:103E10001C02A25C442A87D103F11D02A25C452A40
:103E200082D103F11E02A25C412A7FF47DAF03F12F
:103E30001F02A25C442A7FF477AF03F12002A25C48
:103E4000422A7FF471AF03F12102A25C452A7FF47C
:103E50006BAF03F12202A25C452A7FF465AF2333E6
:103E6000E35C462B7FF460AF63E701956FE7B8F141
:103E7000000F12DC237D442B02D1637D452B1AD029
:103E800040F2A951294801F0EFF8B8F1000FD4BF72
:103E90000020012003B0BDE8F08FA36821690B4426
:103EA00003F11C01424621443846FFF709FDA3688F
:103EB0004344A360DEE7A37D412BE1D1E37D442BA6
:103EC000DED1237E422BDBD1637E452BD8D1A37E6E
:103ED000452BD5D1E37E462BD2D1636803F11C027A
:103EE000A25C442ACCD103F11D02A25C452AC7D1B1
:103EF00003F11E02A25C412AC2D103F11F02A25C9F
:103F0000442ABDD103F12002A25C422AB8D103F1B8
:103F10002102A25C452AB3D103F12202A25C452A08
:103F2000AED12333E35C462BAAD1AEE7782A060054
:103F300038B584692369A268934205D203F11C0253
:103F4000A05C0133236138BD05460021FFF74AFD1F
:103F500001212846FFF7DCFD40B1236903F11C0273
:103F6000A05C013323610023AB62ECE72B7F53B9E4
:103F70006FF009012846FFF791FC2846FFF7A4FDE2
:103F80004FF0FF30DFE76A68297A02480BF054FFF0
:103F9000EEE700BFE02B060038B590F84C50F5B9BD
:103FA0000446836BD3B9836C0E4A934211D01968CF
:103FB0004FF085FC054690B96FF009012046FFF7E8
:103FC0006DFC237F5BB16268217A07480BF034FFF8
:103FD00005E00021FFF706FD012500E00125284648
:103FE00038BD00BF742D0600002C060090F8443048
:103FF0008B421ED010B5044680F84410002380F890
:104000004C30012908D0022909D079B140F21E6153
:10401000084801F029F801E0074B836410BD002235
:1040200020214FF06FFC054BA364F7E7044B83643A
:10403000F4E77047782A06007C2D06006C2D0600F8
:10404000742D060010B50446FFF7A6FF38B1A26C28
:10405000034B9A4203D001212046FFF7C7FF10BD52
:10406000742D0600002A74D0F0B583B0154653684D
:10407000834201D003B0F0BD11F0010FFAD000214E
:10408000506953F077FC0028F4D128464FF066FBC6
:104090000746002859D0AE693DE0B2683169521A2E
:1040A00000926A68297A2B480BF0C6FE3BE0306923
:1040B0001C300223284AB16830444FF0A9FBA8B154
:1040C000254928464FF0FBFB0134632C21D82846B4
:1040D0004FF02EFC0028EAD028464FF015FD0028AE
:1040E000F2DC326973689A42EED312E02868FFF777
:1040F000BBFA50B101212846FFF70AFD28B153F061
:10410000DAF9C117C5E91801DEE700212846FFF7F3
:1041100069FC2B7F5BB928464FF0F6FC031E0CDDD3
:104120002A7F002AB9D1002485F84440CDE76A6887
:10413000297A0A480BF080FEEDE73169B2689142B6
:10414000EED3394628464FF08BFA686953F059FC94
:1041500090E77047282C0600C8650600702C060002
:104160002DE9F04F91B00446099190461E468946CC
:104170000F460023049336E0D4F8983000225A61A9
:10418000059B84F8443004F148030E990D9883E8A8
:104190000300069B84F8783004F13C030C990B98DB
:1041A00083E8030053F087F9C117009BC31A0293F9
:1041B000019B61EB03030393DDE90212012972F114
:1041C000000379DB079B084611461B18089A41EB50
:1041D000020223666266D4F89830186953F011FC25
:1041E000A36B002B6ED009EB0805099B9D4202D8FA
:1041F000002E00F0B680A26B002A40F0B280A3EB44
:104200000903A8EB03030F93D4F89830002BE7D0F1
:10421000D4E91A23002A73F10003E1DB53F04BF9D0
:10422000C117A36EE26EB0EB030A61EB020BD4F888
:1042300098008269D317524573EB0B03D0DA002143
:10424000006953F097FB0028CAD1D4F898001430C5
:1042500053F031FA236E0793636E089353F02BF9F2
:104260000246C317CDE9002394F8443005930DAB03
:10427000E16CA06C83E8030094F8783006930BABF4
:10428000216CE06B83E80300002384F844303B4A50
:10429000A26484F84C3084F87830D4F898301A68E6
:1042A00059682046904700283FF466AF6FF0090137
:1042B0002046FFF7F3FA5FE753F0FDF8C117C4E9B2
:1042C000180188E7D4F888300093BBB1099BAB4252
:1042D0000AD2D4F88C300FAA09A92046009DA8471D
:1042E000074677B1049D22E0D4F88C300FAA002154
:1042F0002046009DA84707460026F2E709950026BC
:10430000EFE70F9B0BB9049D11E04FF0FF31204602
:10431000FFF7C4FA049D0AE0394660680CF0DAFC45
:1043200005460CE06FF009012046FFF7B7FA0F9A37
:104330009AB1A7B1A36B73B9237A002BECD0002DEF
:10434000F0DD2F440F9B5B1B0F9353F0B4F8C117A4
:10435000C4E91A01EBE7049545E7049543E70495A2
:1043600041E7A36B1BB1002011B0BDE8F08F4246BE
:1043700049462046FFF7A4FA4046F5E7742D0600AB
:1043800010B5044680F83C10002303640239C9B21A
:10439000012905D96FF009012046FFF77FFA10BD0A
:1043A0000221FFF723FE20464FF0DAFB031EF1DB6C
:1043B0002364227F002AEDD06268217A01480BF045
:1043C0003BFDE7E7982C060038B504460B22184958
:1043D0004FF000FA30B1054603212046FFF7D0FF29
:1043E000284638BD0B22134920464FF0F3F9054605
:1043F00020B102212046FFF7C3FFF1E707220E4953
:1044000020464FF0E7F9054620B101212046FFF78D
:10441000B7FFE5E70922094920464FF0DBF90546D9
:104420000028DDD004212046FFF7AAFFD8E700BF0F
:10443000C42C0600D02C0600DC2C0600E42C060060
:104440002DE9F04104460E4617464FF00008454658
:10445000A36B002B60D194F84C30002B5CD1002D65
:104460005AD102222E4920464FF0B4F90028F8D143
:1044700004222C4920464FF0ADF938B101212046E5
:10448000FFF7B4FD012384F84C30E1E72046FFF745
:104490009BFF0028DCD146B1304657F05DFD024657
:1044A000314620464FF096F978BB27B120464FF0B1
:1044B0003FFA0028CCD1D4F818C0DCF8103003F152
:1044C0001C000223164ADCF8081060444FF0A0F9E3
:1044D00050B1A2691C32831A002B05DDC6B1104908
:1044E00020464FF0ECF9B3E701212046FFF710FB1F
:1044F00010B10023A362ABE76FF009012046FFF77C
:10450000CDF92046FFF7E0FAA2E7804605469FE78F
:104510004FF0010845469BE74046BDE8F08100BFEB
:10452000C8650600F02C060010B582B0174B1B685A
:104530001BB10024204602B010BD0A2301930123C1
:1045400000934FF4006310221149124801F014FB4C
:10455000041EEFDB104B1C60104853F0AEF904460C
:1045600070B90A4853F0A9F904460028E2D00A4B72
:10457000186801F051FC094B186853F0C0F9D9E7ED
:10458000054B186801F048FCD4E700BFE82502207D
:10459000F82C060075350500E4250220EC250220E4
:1045A00038B5124B186800B353F0B2F901E0FFF7C9
:1045B000C5F80F4B18680028F9D10E4C206853F04D
:1045C000A7F90D4B186801F027FC206853F019FA81
:1045D000206853F094F900252560044C206853F0BE
:1045E00010FA206853F08BF9256038BDE8250220C9
:1045F000F0250220EC250220E42502202DE9F043DD
:1046000083B006460C4690461D46684B186853F02A
:104610007FF9242D40F2C580012C08D90027634B77
:10462000186853F0EEF9384603B0BDE8F083214630
:104630003046FEF7CDFF07460028F0D1FEF7D8FF41
:104640000428ECD8A82053F049FB8146002800F04C
:10465000AA80A822002157F03FFDC9F81880B8F1C0
:10466000000F62D04FF00008D9F81830002B7DD031
:10467000C3F8008009F10C0053F01FF9002875D130
:1046800009F1100053F019F900286FD109F1140055
:1046900053F013F9002869D1C9F8046089F808407B
:1046A0004FF4FA53C9F820304FF0FF33C9F82430E3
:1046B0002C2389F8303009F17C004EF056FF192385
:1046C000C9F8343048464EF09FFF00214846FFF7B6
:1046D0008DFC4FF0FF324FF0FF33C9E91A2340231E
:1046E000C9F87030C9F87430D9F81830243D5D60CD
:1046F00001214846FFF776F9D9F818002C4D082219
:104700002946143057F0C4FCD9F8180043681C330C
:1047100008222946184457F0BBFC74B1012C1ED066
:104720004FF0FF3414BB4F4679E7284653F0D6FAD2
:10473000C9F818004FF0010896E7192301934FF4C8
:10474000106300934B461B4A012130460CF034FBAA
:104750000446002CE6D14846FEF798FFE2E74A46B9
:104760001449304602F058FE0446F2E7D9F8140026
:1047700008B153F0C4F8D9F8100008B153F0BFF8ED
:10478000D9F80C0008B153F0BAF8B8F1000F03D112
:10479000484653F0A7FA42E7D9F8180053F0A2FAB6
:1047A000F6E700273BE7074639E700BFE825022088
:1047B000042D06006540000010B504460B4B186838
:1047C00053F0A6F83CB12046FEF71EFF074B1868D1
:1047D00053F017F910BD064B1C6804E02046FEF7A5
:1047E00013FFD4F8A040002CF8D1EFE7E825022011
:1047F000F025022060B138B50546064C206853F01C
:1048000087F82846FEF79AFF206853F0FAF838BD7B
:10481000704700BFE825022030B583B00446C56864
:1048200001A852F048FF0BF0EFFAD0B9D4F8983055
:10483000ABB15A699AB101998A420CD00BF0F2FAE5
:10484000D4F89830186953F063F8D4F898301869A0
:1048500053F0D7F805E09D680BF0E4FA01E00BF0A7
:10486000E1FA284653F054F804F17C004EF0BBFE08
:10487000014690B120464EF0F3FE237A9BB1012B06
:1048800028D0A3691A7D442A02D15A7D452A30D006
:1048900040F63D31344800F0E7FB284653F0B1F8CC
:1048A000A06B03B030BD60680CF01CF9002804DC7C
:1048B000A3691A699B689A42E3D2002201216068C9
:1048C0000CF048FB04300128DBD8012160680CF0B3
:1048D00007FBD6E7606802F0CDFF002804DCA3697F
:1048E0001A699B689A42CCD20121606802F052FF9B
:1048F000C7E79A7D412ACBD1DA7D442AC8D11A7EF6
:10490000422AC5D15A7E452AC2D19A7E452ABFD1B4
:10491000DA7E462ABCD15A6802F11C01595C44294E
:10492000B6D102F11D01595C4529B1D102F11E0138
:10493000595C4129ACD102F11F01595C4429A7D12E
:1049400002F12001595C4229A2D102F12101595CF6
:1049500045299DD102F12201595C452998D1233284
:104960009B5C462B94D198E7782A060070B584B0FA
:1049700004460D46C668684652F09DFE0BF044FAA8
:10498000D0B9D4F89830ABB15A699AB100998A423B
:104990000CD00BF047FAD4F89830186952F0B8FFF1
:1049A000D4F89830186953F02CF805E09E680BF0A5
:1049B00039FA01E00BF036FA304652F0A9FF2046F2
:1049C0004FF0B8F820B9304653F01BF804B070BD72
:1049D0002B46074A0C2101A828F07CFF431E0A2B16
:1049E000F1D80023024601A92046FFF7B9FBEAE708
:1049F000D8030700F0B583B004460F461546C668D5
:104A000001A852F058FE0BF0FFF9D0B9D4F8983055
:104A1000ABB15A699AB101998A420CD00BF002FAF3
:104A2000D4F89830186952F073FFD4F898301869A8
:104A300052F0E7FF05E09E680BF0F4F901E00BF09F
:104A4000F1F9304652F064FF20464FF073F850B150
:104A500075B9384657F080FA024600233946204699
:104A6000FFF77EFB5DB9304652F0CBFF03B0F0BDDF
:104A70000023012205492046FFF772FBE9E70023E6
:104A8000012202492046FFF76BFBECE7102D0600E0
:104A900030B583B00446C56801A852F00CFE0BF097
:104AA000B3F9D0B9D4F89830ABB15A699AB1019939
:104AB0008A420CD00BF0B6F9D4F89830186952F04D
:104AC00027FFD4F89830186952F09BFF05E09D68E5
:104AD0000BF0A8F901E00BF0A5F9284652F018FFF9
:104AE000A36B23B1284652F08CFF03B030BD0123E5
:104AF0001A4602492046FFF733FBF3E7142D060060
:104B00002DE9F843D0F818900D2957D0044688466F
:104B10000A2956D090F84C30002B55D152F0CBFCDE
:104B2000226A83181E46DF17002B12DA1646D717A3
:104B30000FE06FF009012046FEF7B0FE2046FEF7B9
:104B4000C3FF06E052F0B7FCC117864277EB0103C2
:104B500026DBA56B6DBB02221D4920464EF03AFEB6
:104B60000028F8D120464EF0E3FE0028F3D120467D
:104B7000FFF72AFC0122414620464EF0C3FED0B981
:104B80002046FEF7C3FED9F80830002BDAD1012108
:104B90002046FEF7BDFF0028CBD00023A362D8E754
:104BA0006FF009012046FEF779FE2046FEF78CFFE4
:104BB000CFE76FF00A052846BDE8F8836FF00405DB
:104BC000F9E76FF00405F6E76FF00A05F3E700BFB9
:104BD000C86506002DE9F04383B004460D4617462C
:104BE0009846D0F80C9001A852F065FD0BF00CF936
:104BF000D8B9D4F89830B3B15A69A2B101998A42B0
:104C00000CD00BF00FF9D4F89830186952F080FEF0
:104C1000D4F89830186952F0F4FE06E0D3F8089002
:104C20000BF000F901E00BF0FDF8484652F070FE81
:104C3000002D3BD0002F3DD0294620464EF0AEFF40
:104C4000A0B1237F4BBB00252E46484652F0D9FE2B
:104C500046B1606952F05CFE236D33612665606980
:104C600052F0CFFE284603B0BDE8F083142053F085
:104C700035F8064610B3284657F06EF9236F834285
:104C800004D22067636F834200D260673560706032
:104C9000B760C6F80C800025D7E72B466268217AFA
:104CA00008480BF0C9F800252E46CEE72E466FF0D7
:104CB0000405CAE76FF004050026C6E76FF0050596
:104CC000C3E700BF182D060070B584B005460C463A
:104CD00016460D4B186852F01BFE94B100940195D6
:104CE00002962B68039310226946084B186800F05F
:104CF000E5FF0446044B186852F083FE204604B0DA
:104D000070BD6FF00404F5E7EC250220E4250220D5
:104D10002DE9F04700295AD00446154698460E461C
:104D2000002A57D0D0F83890B9F1000F02D0484689
:104D3000BDE8F087084657F00FF9074600212046E6
:104D4000FFF754F92046FEF7E1FD00212046FEF76B
:104D5000DFFE02212046FFF749F94FF0000AA36B5E
:104D60002BBB94F84C3013BBBAF1000F1FD10222B9
:104D70001B4920464EF02EFD0028F8D13A46314618
:104D800020464EF027FD82460028E8D120464EF00E
:104D9000CFFD0028E3D101212046FEF7B9FE00280F
:104DA000DDD16FF009012046FEF778FDD7E7BAF1B3
:104DB000000F12D041462046A8472046FFF7ECF8E6
:104DC0000028B4D000212046FFF710F9AFE76FF0BC
:104DD0000409ACE76FF00409A9E76FF00A09A6E738
:104DE000C865060030B583B00446C56801A852F016
:104DF00062FC0BF009F8D0B9D4F89830ABB15A691D
:104E00009AB101998A420CD00BF00CF8D4F8983082
:104E1000186952F07DFDD4F89830186952F0F1FD10
:104E200005E09D680AF0FEFF01E00AF0FBFF28465E
:104E300052F06EFD237F23B901212046FEF7D2FDFB
:104E400009E06268217A0C480AF0F6FFF4E70121D4
:104E50002046FEF7C7FD00212046FEF759FE002838
:104E6000F5D1A069426800211C3057F035F9284679
:104E700052F0C7FD03B030BD502D06002DE9F043C0
:104E800083B004460D4617461E46D0F80C8068468F
:104E900052F011FC0AF0B8FFD8B9D4F89830B3B189
:104EA0005A69A2B100998A420CD00AF0BBFFD4F82B
:104EB0009830186952F02CFDD4F89830186952F0E7
:104EC000A0FD06E0D3F808800AF0ACFF01E00AF08C
:104ED000A9FF404652F01CFD01A852F0ECFB00284F
:104EE00040F0B9800AF090FF8146002840F0B6807B
:104EF0000AF098FF4DB3D4F89830002B64D000210D
:104F0000186952F037FD002840F09C80D4F89830A2
:104F1000186952F076FDD4F898307BB11D60D4F852
:104F200098305F60D4F898309E61D4F898304FF094
:104F3000FF32DA61D4F8983000225A61404652F0CC
:104F400060FD484603B0BDE8F083D4F89830002BEC
:104F5000F4D00021186952F00DFD78BBD4F89830D8
:104F6000186952F04EFDD4F89830186952F0C7FC19
:104F7000D4F89830D86852F0CBFCD4F89830D86880
:104F800052F03FFDD4F89830D86852F0B8FCD4F80D
:104F90009830986852F0BCFCD4F89830986852F079
:104FA00030FDD4F89830986852F0A9FCD4F89800F5
:104FB00052F098FE0023C4F89830BFE740F6F7613E
:104FC000284800F051F8C9E7202052F087FEC4F8C5
:104FD000980000283CD02022002157F07DF8D4F81A
:104FE0009800103052F069FCD8B1D4F898301869A4
:104FF00008B152F084FCD4F89830986808B152F0A7
:105000007EFCD4F89830D86808B152F078FCD4F817
:10501000980052F067FE0023C4F898306FF005093D
:1050200079E7D4F89800083052F047FC0028DCD12A
:10503000D4F898000C3052F040FC814600283FF430
:105040006AAFD2E740F62371064800F00DF85DE73D
:105050006FF005095FE76FF004096FE76FF004096F
:105060006CE700BF782A060008B5054B1B680BB13A
:10507000984708BD0A46014602480AF0DDFEFEE7F1
:10508000F4250220842D060008B5044B1B680BB1E3
:10509000002008BD014852F010FCFAE7F825022074
:1050A000012806D0022815D10B4A22B1002108465A
:1050B00007E00A4AF9E7104670479968116001460F
:1050C00018461368002BF8D109B18B607047002394
:1050D0001360704700207047FC2502200026022044
:1050E0000F4B1868D8B110B552F012FC012400E043
:1050F0000134062C09DCE0B2FFF7D2FF034600289A
:10510000F6D0184652F0EEFDF5E7054C206852F057
:1051100078FC206852F0F3FB0023236010BD704739
:10512000F825022070B582B00E4600230193334B60
:105130006FF003021A60054610B10379012B13D0FA
:1051400015B12B79032B17D02C4B6FF002021A608C
:105150002A4B1B68D3B10024284B1B680BB1002CD1
:105160003ED1204602B070BD51F0F2FA0028EFD0D7
:10517000224B00221A60EBE701A9284603F05EFDEE
:105180000028E5D11D4B00221A60E1E71B4B6FF0B0
:1051900005021A60182052F0A1FD04460028DBD059
:1051A000056000234360C36003614361019B83602A
:1051B000043052F082FB0028CED1104B00221A603E
:1051C000002EC9D06FF005021A603146284600F063
:1051D0002DF9E0600028BFD00268084B1A60BBE7D9
:1051E000606808B152F08BFBE06808B100F00CFA7F
:1051F000204652F077FD0024B3E700BF04260220CA
:10520000024B186800221A60704700BF0426022073
:105210000146064A002013681BB103F170020130F9
:10522000F9E709B111600130704700BF082602207C
:10523000074B186850B110B5046F52F053FD044B82
:105240001C60034B18680028F6D110BD704700BFE2
:1052500008260220F8B507460025094C072601E07C
:1052600008340135052D09D8072E07D121683846A5
:1052700056F084FE0028F3D12679F1E73046F8BDD8
:10528000D82D060038B50A4B196871B110B17022DB
:1052900056F0FEFE064D2868046F52F023FD2C6088
:1052A000002024B1246F0130FBE76FF00A0038BD05
:1052B000082602202DE9F04387B00F4605A94FF0DC
:1052C0004BFC0646002840F09280002F00F09C80A6
:1052D00005984EF0DEFCFFF7ABFF4D4905984EF008
:1052E00018FD03210598FFF741FB0598FFF7D0FB58
:1052F000B1464FF0000801250BE0022926D0B14647
:10530000204652F0EFFC00254FF47A7105984EF0DC
:1053100061FC002D5DD0782052F0E0FC04460028AE
:1053200051D04FF00009C0F87090494605984EF0F2
:105330008DFD4B461422694605984EF0E3FD011E93
:10534000DBDD68464FF021FC0146D6E76846FFF7F3
:1053500081FF84F82100072802D16FF00909CFE707
:1053600000232122214605984EF0CCFD00282DDD9A
:10537000002384F8223000220023C4E91A2394F881
:105380002130012B05D92046FFF742FF8046B14668
:10539000BAE70023412204F1220105984EF0B2FD44
:1053A0000028F0DD00231422694605984EF0AAFD7E
:1053B000132802D06FF00909A2E768464FF006FCF7
:1053C000C4E91A01DFE76FF0050999E76FF00909F1
:1053D00096E705984EF07DFE19F1060F0BD0B8F157
:1053E000000F0CD16FF00A060598FFF715FA30464A
:1053F00007B0BDE8F083FFF71BFF4E46F4E74646D3
:105400003846FFF73FFFEFE76FF00406EFE700BF16
:10541000A82D060008B5044B1B680BB1002008BD81
:10542000014852F04AFAFAE70C2602202DE9F0432F
:1054300083B007460E46FFF7EDFF05460C2052F0FD
:105440004DFC0446002D40F0D080002800F0D880AC
:105450000C22002156F040FE6A4B186852F058FAB0
:105460002EB130464FF02FFC002800F0B1803846B6
:1054700000F07EFD032809D0012836D00028C0F2B4
:10548000B0804FF000086FF00205A5E0D6B1317C86
:1054900001290AD9002001460346024606466FF05C
:1054A0000405BDB14FF0000896E0D6F804C0B2681C
:1054B000F368012914BF002101213078092806D999
:1054C0006646EEE73346324600200146E9E7664687
:1054D0000A20E6E70091314602F0D4FA804600281F
:1054E0007AD102F011FB054676E0384609F0C4F89F
:1054F0008046002847D0002E6ED03178002946D152
:10550000716819B1404609F01DF905462DB9B16819
:1055100019B1404609F020F9054635B9F16821B1C5
:105520007269404609F022F9054615B9B369002BA6
:1055300044D1ADB9316B29B1736B1BB1B36B0BB1F6
:10554000F36B13B996F8403053B1B36B726B96F8A6
:1055500040000190F06B0090404609F01DF90546AF
:105560007DB32DB9B16C19B1404609F065FA054615
:1055700095BB96F84D307BB396F84E10404609F037
:1055800055F9054628E009F0D5F8054624E009F06C
:1055900095F905460028B9D1B2E709F10C0306EBED
:1055A00043039988404609F07FF9054609F101094E
:1055B000B3694B45BDD9002DEFD0BAE74FF00009D4
:1055C000F6E7726C317C404609F0CAF90546C8E737
:1055D0004FF000086FF004050A4B186852F011FAFA
:1055E00005E005464FF00008F6E74FF000081CB153
:1055F00025606760C4F80880204603B0BDE8F083EA
:105600008046F4E70C26022000B310B50446FFF7ED
:1056100001FF00B910BD0E4B186852F079F96068AF
:1056200000F0A6FC032809D001280BD0204652F038
:1056300059FB074B186852F0E4F9EBE7A06850F00B
:10564000E5FBF3E7A06809F05FF8EFE7704700BFFC
:105650000C2602202DE9F04184B080460F46144606
:1056600003783BB1062B38D06FF00405284604B010
:10567000BDE8F0814368DAB20292C3F307220192D7
:10568000C3F3074200921B0E154A2146384628F004
:1056900021F90546EAE76FF00505844203D9241A8B
:1056A0000744054401E06FF00505013E002EDDDBF7
:1056B000002DDBDB08EB86035B689AB200921B0CC3
:1056C000084A2146384628F005F9002EE5DD8442D7
:1056D000E1D93A233B540130DFE703260025E5E713
:1056E000082E0600142E06002DE9F04706469946BE
:1056F0000A9B0025AE46AC462846A8462F462C46B7
:105700001EE096F800A0BAF1B50F12D1013410E0F6
:1057100096F800A0BAF1620F01D0002409E001342C
:1057200007E00AB13778176001344FF0000EF446F5
:1057300001271FB13778BC44E64400270136013504
:105740008D4252D2072C50DC072C4CD80FF2040AA1
:105750005AF824F0035700001157000023570000A7
:105760007557000087570000915700009F570000B1
:10577000D3570000B9F1000F02D03778C9F8007094
:1057800001340127D5E796F8008001340127D0E7DE
:10579000307808EB0028013400200127C9E7804554
:1057A0000DD9089F47B1099FB84205D2089F96F8C6
:1057B00000A007F801AB089701300127B9E75FFAAD
:1057C0008CFC96F800A0D44501D00024B1E7013448
:1057D000AFE75FFA8EFE96F800A0D64501D0002410
:1057E000A7E70134A5E70024A3E7002C05DD082C7A
:1057F00006D103B11E60BDE8F0876FF00A00F8E73C
:105800006FF00800F5E700BF70B505460E46144678
:1058100082B10022B24212D22B781B090949CB5C1B
:10582000237015F8013B03F00F03CB5C6370023467
:105830000132EFE740210448FFF716FCE9E770006A
:1058400070BD00BF5C2E06001C2E060070B582B035
:1058500004460D46164612B10020012233E05521C0
:105860002248FFF701FCF7E702AA1A4412F8042CB9
:105870000F2A8CBF002201220133012B19D8C2B19B
:1058800002AA1A4412F8042C092A06D9113A52B273
:105890000A3202A9194401F8042C02AA1A4412F887
:1058A000042C0F2AE0D9203A02A9194401F8042C4B
:1058B000DAE73AB19DF804109DF9053043EA011387
:1058C00006F8013B0130B0EB550F0DD262B194F9EF
:1058D0000030303B8DF8043094F90130303B8DF8C6
:1058E000053002340023C8E702B070BD1C2E06004C
:1058F00010B50446036973B12169E1600122A36810
:1059000093420DDD23680233206903FB02030B6021
:1059100001321946F3E759210348FFF7A5FBEBE7EE
:1059200000230B60636010BD6C2E0600002833D08E
:1059300070B50C460546F9B14069E8B151F0E8FF91
:105940002B69A34219D82A692B680233A96801FB85
:105950000323A34216D92E68A25B4BF6EF639A424B
:1059600015D10023A353EB68EC6023606B68013B07
:105970006B60686952F045F870BDBC210748FFF7BD
:1059800073FBE0E7BD210548FFF76EFBE3E7C321AA
:105990000248FFF769FBE4E7704700BF6C2E060082
:1059A000094A82FB0032C317C3EBE2134FF4C872FB
:1059B00002FB130323B110F0030F03D00020704744
:1059C00001207047012070471F85EB51F8B505464F
:1059D00000240026002712E01B4A82FB0432E31752
:1059E000C3EB620303EB4303A4EB8303174AD25CCC
:1059F000174B03FB02F3F61847EBE3770134AC4295
:105A00001EDA114B83FB0423E017C0EB630000F2A6
:105A1000B270FFF7C5FF0028DED00B4A82FB0432CC
:105A2000E317C3EB620303EB4303A4EB8303094ACD
:105A3000D25C074B03FB02F3F61847EBE377DDE795
:105A400030463946F8BD00BFABAAAA2AA42E0600EC
:105A500080510100B02E060000234FF0FF3001E01E
:105A600018460133002807DA132B05D8034A52F8E9
:105A70002320002AF5D1F3E7704700BF1426022047
:105A800038B50446C068043052F028F950B30546D2
:105A90004FF0FF33036002E00A2051F0E8FD294691
:105AA000A06851F06DFE0028F6D1284652F01AF990
:105AB000606951F02DFF606951F0A3FF606951F0FA
:105AC0001EFFA06851F039FE0546022051F0CFFDBF
:105AD0006268064B002143F82210204652F002F97A
