:020000040000FA
:1000000048840320317902001F2F05009D790200EA
:100010009D7902009D7902009D7902009D79020080
:100020000000000000000000000000005972020003
:100030009D79020000000000D9710200796202007F
:1000400045770200457702004577020045770200B8
:1000500045770200457702004577020045770200A8
:100060004577020045770200457702004577020098
:100070004577020045770200457702004577020088
:100080004577020045770200457702004577020078
:100090004577020045770200457702004577020068
:1000A0004577020045770200457702004577020058
:1000B0004577020045770200457702004577020048
:1000C0004577020045770200457702004577020038
:1000D0004577020045770200457702004577020028
:1000E0004577020045770200457702004577020018
:1000F00045770200A76C05004577020045770200AE
:1001000045770200457702004577020045770200F7
:1001100045770200457702004577020045770200E7
:1001200045770200457702004577020045770200D7
:1001300045770200457702004577020045770200C7
:1001400045770200457702004577020045770200B7
:1001500045770200FFFFFFFFC0F30723094AD35C86
:10016000C1B2525C1344B72B09D81A0106498A5808
:10017000904201D00020704701EB0310704700202F
:10018000704700BFB0D10600C40B042070B506460E
:100190000D46002400E00134B72C09DC2301054A98
:1001A000D358002BF7D0294602EB0410B047F2E7F2
:1001B00070BD00BFC40B0420000000000000000060
:1001C000000000000000000000000000000000002F
:1001D000000000000000000000000000000000001F
:1001E000000000000000000000000000000000000F
:1001F00000000000000000000000000000000000FF
:1002000000000000000000000000000000000000EE
:1002100000000000000000000000000000000000DE
:1002200000000000000000000000000000000000CE
:1002300000000000000000000000000000000000BE
:1002400000000000000000000000000000000000AE
:100250000000000000000000C3438B426DD332F069
:100260001F036AD1013902F01403014410B481EA7A
:100270000004142B0ED8DFE803F03F0D0D0D480DE0
:100280000D0D0D0D0D0D0D0D0D0D510D0D0D100064
:10029000DC0200D4002010BC70471F2C40E8C0F3E3
:1002A00005D91C4641E8C0F10B469C42F2D122F030
:1002B0001402013A0A2AEDD801A151F822F000BF38
:1002C000F302000035030000ED020000950200007B
:1002D0009502000095020000950200002F03000027
:1002E000F302000091020000ED0200009B02D2D454
:1002F000D0E71A03CFD4CDE71F2C40E800F3D6D9BE
:100300001C4641E800F10B46CFE71F2C40E840F3C4
:10031000CDD91C4641E840F10B46C6E71F2C40E80A
:1003200080F3C4D91C4641E880F10B46BDE75B036E
:10033000B0D5B0E75902AED5ACE70020704700BF9A
:1003400081F0004102E000BF83F0004330B54FEA86
:1003500041044FEA430594EA050F08BF90EA020FF3
:100360001FBF54EA000C55EA020C7FEA645C7FEA86
:10037000655C00F0E2804FEA5454D4EB5555B8BFA9
:100380006D420CDD2C4480EA020281EA030382EA1A
:10039000000083EA010180EA020281EA0303362DAC
:1003A00088BF30BD11F0004F4FEA01314FF4801C7F
:1003B0004CEA113102D0404261EB410113F0004F91
:1003C0004FEA03334CEA133302D0524263EB430348
:1003D00094EA050F00F0A780A4F10104D5F1200EE6
:1003E0000DDB02FA0EFC22FA05F2801841F1000141
:1003F00003FA0EF2801843FA05F359410EE0A5F115
:1004000020050EF1200E012A03FA0EFC28BF4CF045
:10041000020C43FA05F3C01851EBE37101F00045FB
:1004200007D54FF0000EDCF1000C7EEB00006EEB08
:100430000101B1F5801F1BD3B1F5001F0CD3490892
:100440005FEA30004FEA3C0C04F101044FEA4452E9
:1004500012F5800F80F09A80BCF1004F08BF5FEA70
:10046000500C50F1000041EB045141EA050130BD50
:100470005FEA4C0C404141EB0101013C28BFB1F562
:10048000801FE9D291F0000F04BF01460020B1FAAD
:1004900081F308BF2033A3F10B03B3F120020CDA80
:1004A0000C3208DD02F1140CC2F10C0201FA0CF05E
:1004B00021FA02F10CE002F11402D8BFC2F1200CC3
:1004C00001FA02F120FA0CFCDCBF41EA0C01904079
:1004D000E41AA2BF01EB0451294330BD6FEA0404C2
:1004E0001F3C1CDA0C340EDC04F11404C4F12002AD
:1004F00020FA04F001FA02F340EA030021FA04F3BF
:1005000045EA030130BDC4F10C04C4F1200220FA15
:1005100002F001FA04F340EA0300294630BD21FA53
:1005200004F0294630BD94F0000F83F4801306BF19
:1005300081F480110134013D4EE77FEA645C18BF0D
:100540007FEA655C29D094EA050F08BF90EA020FA4
:1005500005D054EA000C04BF1946104630BD91EA9C
:10056000030F1EBF0021002030BD5FEA545C05D19F
:100570004000494128BF41F0004130BD14F58004DE
:100580003CBF01F5801130BD01F0004545F0FE4152
:1005900041F470014FF0000030BD7FEA645C1ABF87
:1005A000194610467FEA655C1CBF0B46024650EABE
:1005B000013406BF52EA033591EA030F41F40021EA
:1005C00030BD00BF90F0000F04BF0021704730B570
:1005D0004FF4806404F132044FF000054FF0000145
:1005E00050E700BF90F0000F04BF0021704730B506
:1005F0004FF4806404F1320410F0004548BF4042DB
:100600004FF000013EE700BF42004FEAE2014FEA2F
:1006100031014FEA02701FBF12F07F4393F07F4F0A
:1006200081F06051704732F07F4208BF704793F00D
:100630007F4F04BF41F40021704730B54FF4607420
:1006400001F0004521F000411CE700BF50EA010223
:1006500008BF704730B54FF000050AE050EA0102CC
:1006600008BF704730B511F0004502D5404261EB3C
:1006700041014FF4806404F132045FEA915C3FF47D
:10068000D8AE4FF003025FEADC0C18BF03325FEA1A
:10069000DC0C18BF033202EBDC02C2F1200300FACB
:1006A00003FC20FA02F001FA03FE40EA0E0021FAF0
:1006B00002F11444BDE600BF70B54FF0FF0C4CF4DE
:1006C000E06C1CEA11541DBF1CEA135594EA0C0F90
:1006D00095EA0C0F00F0DEF82C4481EA030621EACB
:1006E0004C5123EA4C5350EA013518BF52EA033506
:1006F00041F4801143F4801338D0A0FB02CE4FF0B8
:100700000005E1FB02E506F00042E0FB03E54FF0E7
:100710000006E1FB03569CF0000F18BF4EF0010EDF
:10072000A4F1FF04B6F5007F64F5407404D25FEADB
:100730004E0E6D4146EB060642EAC62141EA55518E
:100740004FEAC52040EA5E504FEACE2EB4F1FD0CD0
:1007500088BFBCF5E06F1ED8BEF1004F08BF5FEA4E
:10076000500E50F1000041EB045170BD06F0004600
:1007700046EA010140EA020081EA0301B4EB5C04AD
:10078000C2BFD4EB0C0541EA045170BD41F48011A5
:100790004FF0000E013C00F3AB8014F1360FDEBFCA
:1007A000002001F0004170BDC4F10004203C35DAA6
:1007B0000C341BDC04F11404C4F1200500FA05F329
:1007C00020FA04F001FA05F240EA020001F00042CA
:1007D00021F0004110EBD37021FA04F642EB060140
:1007E0005EEA430E08BF20EAD37070BDC4F10C046A
:1007F000C4F1200500FA04F320FA05F001FA04F22E
:1008000040EA020001F0004110EBD37041F1000119
:100810005EEA430E08BF20EAD37070BDC4F1200524
:1008200000FA05F24EEA020E20FA04F301FA05F28C
:1008300043EA020321FA04F001F0004121FA04F234
:1008400020EA020000EBD3705EEA430E08BF20EA04
:10085000D37070BD94F0000F0FD101F0004640003E
:1008600041EB010111F4801F08BF013CF7D041EAC0
:10087000060195F0000F18BF704703F000465200C4
:1008800043EB030313F4801F08BF013DF7D043EA95
:100890000603704794EA0C0F0CEA135518BF95EA4B
:1008A0000C0F0CD050EA410618BF52EA4306D1D1D2
:1008B00081EA030101F000414FF0000070BD50EAF1
:1008C000410606BF1046194652EA430619D094EA7B
:1008D0000C0F02D150EA013613D195EA0C0F05D165
:1008E00052EA03361CBF104619460AD181EA0301B9
:1008F00001F0004141F0FE4141F470014FF0000071
:1009000070BD41F0FE4141F4780170BD70B54FF00B
:10091000FF0C4CF4E06C1CEA11541DBF1CEA13558B
:1009200094EA0C0F95EA0C0F00F0A7F8A4EB05046D
:1009300081EA030E52EA03354FEA013100F0888064
:100940004FEA03334FF0805545EA131343EA12632D
:100950004FEA022245EA111545EA10654FEA0026E2
:100960000EF000419D4208BF964244F1FD0404F59B
:10097000407402D25B084FEA3202B61A65EB0305F7
:100980005B084FEA32024FF480104FF4002CB6EBB4
:10099000020E75EB030E22BFB61A754640EA0C0034
:1009A0005B084FEA3202B6EB020E75EB030E22BF74
:1009B000B61A754640EA5C005B084FEA3202B6EBB5
:1009C000020E75EB030E22BFB61A754640EA9C0074
:1009D0005B084FEA3202B6EB020E75EB030E22BF44
:1009E000B61A754640EADC0055EA060E18D04FEA02
:1009F000051545EA16754FEA06164FEAC30343EAA2
:100A000052734FEAC2025FEA1C1CC0D111F4801F6E
:100A10000BD141EA00014FF000004FF0004CB6E767
:100A200011F4801F04BF01430020B4F1FD0C88BF06
:100A3000BCF5E06F3FF6AFAEB5EB030C04BFB6EB11
:100A4000020C5FEA500C50F1000041EB045170BD04
:100A50000EF0004E4EEA113114EB5C04C2BFD4EB31
:100A60000C0541EA045170BD41F480114FF0000EB5
:100A7000013C90E645EA060E8DE60CEA135594EA31
:100A80000C0F08BF95EA0C0F3FF43BAF94EA0C0F34
:100A90000AD150EA01347FF434AF95EA0C0F7FF4A9
:100AA00025AF104619462CE795EA0C0F06D152EAFD
:100AB00003353FF4FDAE1046194622E750EA4106E1
:100AC00018BF52EA43067FF4C5AE50EA41047FF4F2
:100AD0000DAF52EA43057FF4EBAE12E74FEA410255
:100AE00012F5001215D211D56FF47873B3EB625280
:100AF00012D94FEAC12343F0004343EA505311F0A7
:100B0000004F23FA02F018BF404270474FF0000038
:100B1000704750EA013005D111F0004008BF6FF076
:100B2000004070474FF00000704700BF4A0011D2EC
:100B300012F5001211D20DD56FF47873B3EB625237
:100B40000ED44FEAC12343F0004343EA505323FA43
:100B500002F070474FF00000704750EA013002D1B8
:100B60004FF0FF3070474FF0000070474FEA4102EE
:100B7000B2F1E04324BFB3F5001CDCF1FE5C0DD9FB
:100B800001F0004C4FEAC0024CEA5070B2F1004F45
:100B900040EB830008BF20F00100704711F0804F48
:100BA00021D113F13872BCBF01F00040704741F40D
:100BB00080114FEA5252C2F11802C2F1200C10FA11
:100BC0000CF320FA02F018BF40F001004FEAC123F5
:100BD0004FEAD32303FA0CFC40EA0C0023FA02F399
:100BE0004FEA4303CCE77FEA625307D150EA01336F
:100BF0001EBF4FF0FE4040F44000704701F000403F
:100C000040F0FE4040F40000704700BF80F000401C
:100C100002E000BF81F0004142001FBF5FEA4103D4
:100C200092EA030F7FEA226C7FEA236C6AD04FEAD4
:100C30001262D2EB1363C1BFD21841404840414019
:100C4000B8BF5B42192B88BF704710F0004F40F4CB
:100C5000000020F07F4018BF404211F0004F41F4E7
:100C6000000121F07F4118BF494292EA030F3FD0B3
:100C7000A2F1010241FA03FC10EB0C00C3F12003C6
:100C800001FA03F100F0004302D5494260EB400055
:100C9000B0F5000F13D3B0F1807F06D340084FEAC0
:100CA000310102F10102FE2A51D2B1F1004F40EBB5
:100CB000C25008BF20F0010040EA0300704749001D
:100CC00040EB0000013A28BFB0F5000FEDD2B0FABA
:100CD00080FCACF1080CB2EB0C0200FA0CF0AABFDD
:100CE00000EBC25052421843BCBFD040184370477B
:100CF00092F0000F81F4000106BF80F40000013281
:100D0000013BB5E74FEA41037FEA226C18BF7FEA57
:100D1000236C21D092EA030F04D092F0000F08BF99
:100D20000846704790EA010F1CBF0020704712F080
:100D30007F4F04D1400028BF40F00040704712F1BF
:100D400000723CBF00F50000704700F0004343F024
:100D5000FE4040F4000070477FEA226216BF08465A
:100D60007FEA23630146420206BF5FEA412390EA1D
:100D7000010F40F4800070474FF0000304E000BF13
:100D800010F0004348BF40425FEA000C08BF7047C4
:100D900043F0964301464FF000001CE050EA010288
:100DA00008BF70474FF000030AE000BF50EA01029D
:100DB00008BF704711F0004302D5404261EB41018A
:100DC0005FEA010C02BF84460146002043F0B643AF
:100DD00008BFA3F18053A3F50003BCFA8CF2083AD4
:100DE000A3EBC25310DB01FA02FC634400FA02FCDD
:100DF000C2F12002BCF1004F20FA02F243EB0200E4
:100E000008BF20F00100704702F1200201FA02FC45
:100E1000C2F1200250EA4C0021FA02F243EB020038
:100E200008BF20EADC7070474FF0FF0C1CEAD0527C
:100E30001EBF1CEAD15392EA0C0F93EA0C0F6FD03D
:100E40001A4480EA010C400218BF5FEA41211ED01B
:100E50004FF0006343EA501043EA5111A0FB013107
:100E60000CF00040B1F5000F3EBF490041EAD371DC
:100E70005B0040EA010062F17F02FD2A1DD8B3F158
:100E8000004F40EBC25008BF20F00100704790F0C7
:100E9000000F0CF0004C08BF49024CEA502040EA19
:100EA00051207F3AC2BFD2F1FF0340EAC2507047DF
:100EB00040F400004FF00003013A5DDC12F1190F1D
:100EC000DCBF00F000407047C2F10002410021FA8F
:100ED00002F1C2F1200200FA02FC5FEA310040F1A7
:100EE000000053EA4C0308BF20EADC70704792F020
:100EF000000F00F0004C02BF400010F4000F013A58
:100F0000F9D040EA0C0093F0000F01F0004C02BF52
:100F1000490011F4000F013BF9D041EA0C018FE7C1
:100F20000CEAD15392EA0C0F18BF93EA0C0F0AD0C7
:100F300030F0004C18BF31F0004CD8D180EA0100ED
:100F400000F00040704790F0000F17BF90F0004F86
:100F5000084691F0000F91F0004F14D092EA0C0F68
:100F600001D142020FD193EA0C0F03D14B0218BFFB
:100F7000084608D180EA010000F0004040F0FE4041
:100F800040F40000704740F0FE4040F440007047DD
:100F90004FF0FF0C1CEAD0521EBF1CEAD15392EA5C
:100FA0000C0F93EA0C0F69D0A2EB030280EA010C4C
:100FB00049024FEA402037D04FF0805343EA1111E5
:100FC00043EA10130CF000408B4238BF5B0042F143
:100FD0007D024FF4000C8B4224BF5B1A40EA0C00E8
:100FE000B3EB510F24BFA3EB510340EA5C00B3EB1A
:100FF000910F24BFA3EB910340EA9C00B3EBD10F08
:1010000024BFA3EBD10340EADC001B0118BF5FEA59
:101010001C1CE0D1FD2A3FF650AF8B4240EBC25082
:1010200008BF20F0010070470CF0004C4CEA502043
:101030007F32C2BFD2F1FF0340EAC250704740F492
:1010400000004FF00003013A37E792F0000F00F084
:10105000004C02BF400010F4000F013AF9D040EA02
:101060000C0093F0000F01F0004C02BF490011F496
:10107000000F013BF9D041EA0C0195E70CEAD1538E
:1010800092EA0C0F08D142027FF47DAF93EA0C0F75
:101090007FF470AF084676E793EA0C0F04D14B0259
:1010A0003FF44CAF08466EE730F0004C18BF31F00B
:1010B000004CCAD130F000427FF45CAF31F0004305
:1010C0007FF43CAF5FE700BF4FEA4002B2F1FE4F52
:1010D0000FD34FF09E03B3EB12620DD94FEA0023FA
:1010E00043F0004310F0004F23FA02F018BF4042D3
:1010F00070474FF00000704712F1610F01D14202BA
:1011000005D110F0004008BF6FF0004070474FF06D
:10111000000070477BB972B90029BEBF00204FF0B4
:10112000004106E008BF00281CBF6FF000414FF0EF
:10113000FF3000F0CFB9ADF1080C6DE904CE002905
:1011400009DB002B1ADB00F061F8DDF804E0DDE9D3
:10115000022304B07047404261EB4101002B1BDBCE
:1011600000F054F8DDF804E0DDE9022304B0404269
:1011700061EB4101524263EB43037047524263EB20
:10118000430300F043F8DDF804E0DDE9022304B096
:10119000404261EB41017047524263EB430300F070
:1011A00035F8DDF804E0DDE9022304B0524263EBD8
:1011B0004303704753B94AB9002908BF00281CBF30
:1011C0004FF0FF314FF0FF3000F084B9ADF1080C63
:1011D0006DE904CE00F01AF8DDF804E0DDE9022341
:1011E00004B07047430803F05533C01A830800F079
:1011F000333003F03333184400EB101000F00F309D
:1012000000EB002000EB0040000E70472DE9F04796
:10121000089E0D4604468A46002B7FD18A42174617
:1012200041D9B2FA82F24AB1C2F1200105FA02F3C1
:101230009740944020FA01F141EA030A4FEA174827
:101240004FEA144C1FFA87F9BAFBF8FE08FB1EA3FD
:101250000EFB09F14CEA0343994206D9FB1802D26E
:10126000994200F224810EF1FF3E591AA3B2B1FB5C
:10127000F8F008FB101100FB09F943EA0144A1450D
:1012800005D93C1902D2A14500F20E810138A4EB28
:10129000090440EA0E4000211EB1D4400023C6E9F3
:1012A0000043BDE8F08702B9FFDEB2FA82F2002AFD
:1012B0004FD1CB1B4FEA174E1FFA87F80121250C9F
:1012C000B3FBFEFC0EFB1C302B4608FB0CF945EA79
:1012D0000045A9450AD97D192CBF01230023A94542
:1012E00002D9002B00F0D9800CF1FF3CA5EB0905D9
:1012F000A3B2B5FBFEF00EFB105508FB00F843EA65
:101300000544A04505D93C1902D2A04500F2C98088
:101310000138A4EB080440EA0C40BDE78B4208D931
:10132000002E00F0B1800021C6E900050846BDE8A6
:10133000F087B3FA83F1002946D1AB42C0F0A78011
:10134000824240F2A4800846002EAAD0C6E9004A94
:10135000A7E7C2F12000974001FA02F34FEA174EC7
:10136000C14024FA00F51FFA87F894401D43B1FBF1
:10137000FEF02B0C0EFB101100FB08FC43EA0143AE
:101380009C4509D9FB182CBF012100219C4502D99D
:10139000002900F095800138A3EB0C03ADB2B3FB3C
:1013A000FEF10EFB113301FB08FC45EA0345AC4599
:1013B00005D97D1902D2AC4500F289800139A5EB2F
:1013C0000C0341EA00417AE7C1F120048B4002FAA4
:1013D00001F705FA01FCE24020FA04F8E54000FAC2
:1013E00001FE134348EA0C024FEA13484FEA124C3D
:1013F0001FFA83F9B5FBF8FA08FB1A550AFB09F046
:101400004CEA054C60450AD913EB0C0C2CBF0125A6
:101410000025604501D9002D55D00AF1FF3AACEB0B
:10142000000C92B2BCFBF8F008FB10CC00FB09F9F1
:1014300042EA0C4CE14505D913EB0C0C01D2E14515
:101440003BD8013840EA0A40ACEB090CA0FB078905
:10145000CC4545464A4602D306D1C64504D201389A
:10146000B8EB070569EB03022EB3BEEB05036CEB8B
:10147000020C23FA01F20CFA04F42CFA01F3002115
:101480001443C6E900430CE73146304609E7841AA5
:1014900065EB030301209A4656E7ACF1020C3D448C
:1014A00024E702383C4434E702383C44EFE6AEF12E
:1014B000020E3B44D9E63146F3E602389C44C1E7CC
:1014C00002383B4468E7AAF1020A9C44A7E70239C4
:1014D0003D4474E7704700BF2DE9F047BCB0774B3F
:1014E0005B782BB14822764914A851F093FF4BE06A
:1014F0000EF094FAF6E7734A7349521A92080121E2
:1015000061F302046FF3C50462F38F14002B4DD016
:101510006E4920464FF0E6F8684B1B7A13B1012361
:101520008DF85030654B1B7A9BB16E460DF1600C07
:10153000BCE80F000FC6BCE80F000FC6BCE80F00E8
:101540000FC69CE8030086E8030014AB0FCB19F02C
:1015500089F85A4B5B68590CD80340F2E7364FF4D0
:101560007A72002380194FF0000646EB0101FFF765
:1015700021FEEFF305832BB9EFF3148313F0010F72
:1015800040F0558145F050FF4C4B5B789BB9EFF331
:1015900005821AB9EFF3148303F00103494A126874
:1015A000002BA8D112F0070FB6D0A4E72146474878
:1015B0001EF05CF9B0E7464B1868EFF3058323B9DA
:1015C000EFF3148313F0010F27D18368DB68382110
:1015D000984700282CDAEFF305830BBBEFF3148256
:1015E00002F00102374B1B6812B913F0060F10D03E
:1015F000344B35495B1A9B08022161F302056FF3F6
:10160000C50563F38F156AB10246324928464FF08B
:1016100069F802238DF8503084E7F82603DFD8E715
:101620000022DFE72A4601462A481EF09DF9F0E72E
:10163000274B18680323ADF84E30EFF3058323B929
:10164000EFF3148313F0010F29D183681B6936AAC5
:10165000BDF84E109847002840DAEFF3058323BB0E
:10166000EFF3148202F00102164B1B6812B913F05B
:10167000070F10D0134B14495B1A9B08012161F32B
:1016800002076FF3C50763F38F1782B10246124951
:1016900038464FF027F802238DF8503042E7DDF846
:1016A0004E1036AAF72603DFD5E70022DCE73A46DC
:1016B000014609481EF058F9EDE700BF04FA03207F
:1016C00000980500F0000420E000042020DA050066
:1016D000C02C022038DA050060DA05003698FEF7E3
:1016E00081FF804689463798FEF77CFF52A3D3E9F5
:1016F0000023FFF70BF942464B46FEF727FECDE9E4
:1017000010013898FEF76EFF804689463998FEF73B
:1017100069FF49A3D3E90023FFF7F8F842464B4697
:10172000FEF714FE804689463A98FEF75BFFCDE946
:101730000E013B98FEF756FF3FA3D3E90023FFF7C6
:10174000E5F8DDE90E23FEF701FECDE90201CDE962
:101750000089DDE910233A4927A827F029FDEFF396
:101760000583002B5BD1EFF3148202F00102354BAD
:101770001B681AB903F00703022B11D9314B324908
:101780005B1A9B08032161F3020A6FF3C50A63F336
:101790008F1A002A45D027AA2C4950464EF0A2FFA6
:1017A00000238DF850303698FEF71CFF804689469E
:1017B0003798FEF717FF20A3D3E90023FFF7A6F819
:1017C00042464B46FEF7C2FDCDE91A013898FEF7B6
:1017D00009FF804689463998FEF704FF16A3D3E92E
:1017E0000023FFF793F802460B4640464946FEF7B2
:1017F000ADFDCDE91E013A98FEF7F4FE804689461C
:101800003B98FEF7EFFE0CA3D3E90023FFF77EF829
:1018100042464B46FEF79AFDCDE9220182E60022C0
:10182000A5E7524627A909481EF09EF8B8E7AB265F
:1018300003DFA9E6AFF300800000000080842E41A2
:1018400088DA0500F0000420E0000420847A060015
:101850002DE9F047ACB0504B5B782BB148224F4993
:101860001AA851F0D7FD44E00EF0A2FBF6E74C4A6F
:101870004C49521A9208012161F302076FF3C50720
:1018800062F38F17002B46D0474938464EF02AFFA7
:1018900001238DF86830404B1B7A7BB16C461EAD3E
:1018A0000FCD0FC40FCD0FC40FCD0FC495E80300AB
:1018B00084E803001AAB0FCB18F0D4FE364B5B68FC
:1018C000590CD80340F2E7344FF47A720023001920
:1018D0004FF0000444EB0101FFF76CFCEFF30583CC
:1018E0002BB9EFF3148313F0010F40F0298145F079
:1018F0009BFD294B5B789BB9EFF305821AB9EFF397
:10190000148303F00103264A1268002BAFD112F0B2
:10191000070FBDD0ABE7394623481DF0A7FFB7E757
:10192000224B1868EFF3058323B9EFF3148313F008
:10193000010F26D18368DB6838219847002839D009
:10194000EFF3058303BBEFF3148202F00102144BA3
:101950001B6812B913F0070F0FD0114B11495B1A16
:101960009B08012161F302096FF3C50963F38F1925
:1019700062B10F4948464EF0B5FE02238DF868303B
:1019800089E7F82603DFD9E70022E0E7494608485F
:101990001DF06CFFF1E700BF10FA03204898050026
:1019A000F8000420E000042020DA0500C42C022006
:1019B00020DC0500664B18680D23ADF83830EFF3D6
:1019C00005832BB9EFF3148313F0010F40F09480DB
:1019D00083681B6918AABDF8381098475C4B1868D3
:1019E0000E23ADF83830EFF305832BB9EFF31483F2
:1019F00013F0010F40F0858083681B6916AABDF8BB
:101A000038109847524B18681023ADF83830EFF370
:101A1000058323B9EFF3148313F0010F76D18368A4
:101A20001B6914AABDF838109847EFF30583002B03
:101A300071D1EFF3148202F00102464B1B681AB910
:101A400003F00703022B1AD9424B43495B1A9B0848
:101A5000032161F3020A6FF3C50A63F38F1A002AA8
:101A60005BD0159B0393149B0293179B0193169BCA
:101A70000093199B189A394950464EF033FE0023C3
:101A80008DF868301898FEF7ADFD04460D4619989C
:101A9000FEF7A8FD2CA3D3E90023FEF737FF22466B
:101AA0002B46FEF753FCCDE920011498FEF79AFD72
:101AB00004460D461598FEF795FD23A3D3E90023B0
:101AC000FEF724FF22462B46FEF740FCCDE9240119
:101AD0001698FEF787FD04460D461798FEF782FD1F
:101AE00019A3D3E90023FEF711FF22462B46FEF788
:101AF0002DFCCDE92801CEE60E9918AAF72603DFC2
:101B00006CE70E9916AAF72603DF7BE70E9914AA55
:101B1000F72603DF89E700228FE7189B0E93199BB6
:101B20000F93169B1093179B1193149B1293159B65
:101B30001393534606220EA908481DF0D1FE9EE7D6
:101B4000AB2603DFD5E600BF0000000080842E41F5
:101B5000C42C0220F8000420E00004203CDC050036
:101B60002DE9F041A0B06E4B5B7843B348220021D1
:101B70000EA851F073FC6B4C234603CBCDF8390013
:101B8000CDF83D100023ADF841308DF843300222EE
:101B90008DF844202621ADF8481063490868CDF837
:101BA0004A0009798DF84E102B21ADF85810E068E5
:101BB000CDF85A008DF85E308DF8782080E00EF078
:101BC0009DFDD3E7594A5A49521A9208012161F3FF
:101BD00002076FF3C50762F38F17002B00F08480B4
:101BE000544938464EF07EFD01238DF83830524975
:101BF00026200FF083F800287BD002238DF83830A0
:101C00004E492B200FF07AF8002879D002238DF866
:101C10003830494E3068FEF7E5FC04460D467068E2
:101C2000FEF7E0FC3CA3D3E90023FEF76FFE02467B
:101C30000B4620462946FEF789FBCDE914013F4EAD
:101C40003068FEF7CFFC04460D467068FEF7CAFC0C
:101C500031A3D3E90023FEF759FE22462B46FEF7B7
:101C600075FBCDE918012E4B1B7A7BB16C4612AD8A
:101C70000FCD0FC40FCD0FC40FCD0FC495E80300D7
:101C800084E803000EAB0FCB18F0ECFC244B5B6830
:101C9000590CD80340F2E7344FF47A72002300194C
:101CA0004FF0000444EB0101FFF784FAEFF30583E2
:101CB00023B9EFF3148313F0010F28D145F0B4FBDF
:101CC000174B5B78002B92D1EFF305821AB9EFF333
:101CD000148303F00103154A1268002B7FF472AFDE
:101CE00012F0070F80D06DE7394612481DF0BEFD97
:101CF0007AE7114B93E8060011480EF023FC7FE7CA
:101D00000E4B93E806000F480EF01CFC81E7AB2653
:101D100003DFD5E7AFF300800000000080842E4190
:101D20001CFA0320089D050018DF0500FC000420B4
:101D3000E000042020DA0500D02C0220C82C02206C
:101D4000F4DE050000DF05002DE9F04FBBB0504B7D
:101D50005B7833B148224F490DEB020051F05AFB3A
:101D600044E00FF0C7F8F5E74B4A4C49521A920885
:101D7000012161F302046FF3C50462F38F14002B99
:101D800046D0474920464EF0ADFC01238DF848303F
:101D90003F4B1B7A7BB16E4616AF0FCF0FC60FCFEE
:101DA0000FC60FCF0FC697E8030086E8030012ABFB
:101DB0000FCB18F057FC364B5B68590CD80340F238
:101DC000E7364FF47A72002380194FF0000646EB95
:101DD0000101FFF7EFF9EFF305832BB9EFF314835C
:101DE00013F0010F40F0238145F01EFB284B5B7878
:101DF0009BB9EFF305821AB9EFF3148303F00103E3
:101E0000254A1268002BAFD112F0070FBDD0ABE707
:101E1000214623481DF02AFDB7E7224B1868EFF34F
:101E2000058323B9EFF3148313F0010F26D18368E0
:101E3000DB6838219847002838D0EFF3058303BBCF
:101E4000EFF3148202F00102134B1B6812B913F076
:101E5000070F0FD0104B11495B1A9B08012161F34A
:101E600002056FF3C50563F38F1562B10E4928466D
:101E70004EF038FC02238DF8483089E7F82603DF5E
:101E8000D9E70022E0E7294607481DF0EFFCF1E71B
:101E900028FA03209098050048010420E00004205F
:101EA00020DA0500DC2C022020DC0500644B1868D9
:101EB0000723ADF84630EFF305832BB9EFF3148316
:101EC00013F0010F40F0A58083681B6934AABDF8A8
:101ED000461098473498FEF785FB06460F4635981E
:101EE000FEF780FB54A3D3E90023FEF70FFD324633
:101EF0003B46FEF72BFA82468B463698FEF772FB7E
:101F000006460F463798FEF76DFB4BA3D3E9002337
:101F1000FEF7FCFC32463B46FEF718FA06460F4633
:101F20003898FEF75FFBCDE90E013998FEF75AFBB2
:101F300041A3D3E90023FEF7E9FCDDE90E23FEF718
:101F400005FACDE90201CDE9006752465B463D49FD
:101F500025A827F02DF9EFF30583002B5FD1EFF3D0
:101F6000148202F00102384B1B681AB903F0070310
:101F7000022B11D9344B35495B1A9B08032161F3BD
:101F800002096FF3C50963F38F19002A49D025AA06
:101F90002F4948464EF0A6FB00238DF84830349870
:101FA000FEF720FB06460F463598FEF71BFB22A3E3
:101FB000D3E90023FEF7AAFC32463B46FEF7C6F9FA
:101FC000CDE918013698FEF70DFB06460F46379807
:101FD000FEF708FB18A3D3E90023FEF797FC32466F
:101FE0003B46FEF7B3F9CDE91C013898FEF7FAFA43
:101FF00006460F463998FEF7F5FA0FA3D3E90023FA
:10200000FEF784FC32463B46FEF7A0F9CDE92001FD
:10201000BEE6DDF8461034AAF72603DF5AE70022B1
:10202000A1E74A4625A90A481DF09EFCB4E7AB2665
:1020300003DFDBE6AFF300800000000080842E4168
:10204000DC2C022038DF050048010420E0000420D9
:10205000847A0600000000002DE9F04FBBB04F4B22
:102060005B7833B148224E490DEB020051F0D2F9B2
:1020700044E00FF009FAF5E74A4A4B49521A920830
:10208000012161F302046FF3C50462F38F14002B86
:1020900046D0464920464EF025FB01238DF84830B6
:1020A0003E4B1B7A7BB16E4616AF0FCF0FC60FCFDC
:1020B0000FC60FCF0FC697E8030086E8030012ABE8
:1020C0000FCB18F0CFFA354B5B68590CD80340F2B0
:1020D000E7364FF47A72002380194FF0000646EB82
:1020E0000101FFF767F8EFF305832BB9EFF31483D2
:1020F00013F0010F40F0258145F096F9274B5B78EE
:102100009BB9EFF305821AB9EFF3148303F00103CF
:10211000244A1268002BAFD112F0070FBDD0ABE7F5
:10212000214622481DF0A2FBB7E7214B1868EFF3C8
:10213000058323B9EFF3148313F0010F23D18368D0
:10214000DB6838219847002836DAEFF30583EBB9CE
:10215000EFF3148202F00102124B1B6812B913F064
:10216000070F9DD00F4B10495B1A9B08012161F3AB
:1021700002056FF3C50563F38F154AB10D49284673
:102180004EF0B0FA8CE7F82603DFDCE70022E3E745
:10219000294608481DF06AFB82E700BF34FA032095
:1021A000D898050064010420E000042020DA05002E
:1021B000E02C022020DC0500654B18680323ADF8F5
:1021C0004630EFF305832BB9EFF3148313F0010FBF
:1021D00040F0A98083681B6934AABDF8461098476F
:1021E0003498FEF7FFF906460F463598FEF7FAF9E0
:1021F00055A3D3E90023FEF789FB32463B46FEF7A1
:10220000A5F882468B463698FEF7ECF906460F464F
:102210003798FEF7E7F94CA3D3E90023FEF776FBE6
:1022200032463B46FEF792F806460F463898FEF7D0
:10223000D9F9CDE90E013998FEF7D4F942A3D3E9D3
:102240000023FEF763FB02460B46DDE90E01FEF7B5
:102250007DF8CDE90201CDE9006752465B463D4974
:1022600025A826F0A5FFEFF30583002B61D1EFF33E
:10227000148202F00102384B1B681AB903F00703FD
:10228000022B11D9344B35495B1A9B08032161F3AA
:1022900002096FF3C50963F38F19002A4BD025AAF1
:1022A0002F4948464EF01EFA00238DF848303498E6
:1022B000FEF798F906460F463598FEF793F922A3E4
:1022C000D3E90023FEF722FB32463B46FEF73EF8F9
:1022D000CDE918013698FEF785F906460F4637987E
:1022E000FEF780F918A3D3E90023FEF70FFB02469F
:1022F0000B4630463946FEF729F8CDE91C013898DF
:10230000FEF770F906460F463998FEF76BF90EA3F3
:10231000D3E90023FEF7FAFA32463B46FEF716F8F9
:10232000CDE92001BCE6DDF8461034AAF72603DF2C
:1023300056E700229FE74A4625A909481DF014FBED
:10234000B2E7AB2603DFD9E60000000080842E410F
:10235000E02C022024E0050064010420E0000420B9
:10236000847A0600000000002DE9F04FBBB0504B0E
:102370001B6833B148224F490DEB020051F04AF877
:1023800044E00FF04BFBF5E74B4A4C49521A9208D8
:10239000012161F302046FF3C50462F38F14002B73
:1023A00046D0474920464EF09DF901238DF848302C
:1023B000444B1B7A7BB16E4616AF0FCF0FC60FCFC3
:1023C0000FC60FCF0FC697E8030086E8030012ABD5
:1023D0000FCB18F047F93B4B5B68590CD80340F220
:1023E000E7364FF47A72002380194FF0000646EB6F
:1023F0000101FEF7DFFEEFF305832BB9EFF3148342
:1024000013F0010F40F0238145F00EF82D4B5B785F
:102410009BB9EFF305821AB9EFF3148303F00103BC
:10242000254A1268002BAFD112F0070FBDD0ABE7E1
:10243000214623481DF01AFAB7E71D4B1868EFF341
:10244000058323B9EFF3148313F0010F26D18368BA
:10245000DB6838219847002838D0EFF3058303BBA9
:10246000EFF3148202F00102134B1B6812B913F050
:10247000070F0FD0104B11495B1A9B08012161F324
:1024800002056FF3C50563F38F1562B10E49284647
:102490004EF028F902238DF8483089E7F82603DF4B
:1024A000D9E70022E0E7294607481DF0DFF9F1E708
:1024B000E42C02202099050068010420E00004209B
:1024C00020DA050040FA032020DC0500644B186880
:1024D0000B23ADF84630EFF305832BB9EFF31483EC
:1024E00013F0010F40F0A58083681B6934AABDF882
:1024F000461098473498FEF775F806460F4635980B
:10250000FEF770F854A3D3E90023FEF7FFF9324633
:102510003B46FDF71BFF82468B463698FEF762F876
:1025200006460F463798FEF75DF84BA3D3E9002324
:10253000FEF7ECF932463B46FDF708FF06460F462C
:102540003898FEF74FF8CDE90E013998FEF74AF8B2
:1025500041A3D3E90023FEF7D9F9DDE90E23FDF706
:10256000F5FECDE90201CDE9006752465B463D49E3
:1025700025A826F01DFEEFF30583002B5FD1EFF3B6
:10258000148202F00102384B1B681AB903F00703EA
:10259000022B11D9344B35495B1A9B08032161F397
:1025A00002096FF3C50963F38F19002A49D025AAE0
:1025B0002F4948464EF096F800238DF8483034985D
:1025C000FEF710F806460F463598FEF70BF822A3E3
:1025D000D3E90023FEF79AF932463B46FDF7B6FEF3
:1025E000CDE918013698FDF7FDFF06460F463798EE
:1025F000FDF7F8FF18A3D3E90023FEF787F9324669
:102600003B46FDF7A3FECDE91C013898FDF7EAFF34
:1026100006460F463998FDF7E5FF0FA3D3E90023DF
:10262000FEF774F932463B46FDF790FECDE92001F6
:10263000BEE6DDF8461034AAF72603DF5AE700228B
:10264000A1E74A4625A90A481DF08EF9B4E7AB2652
:1026500003DFDBE6AFF300800000000080842E4142
:10266000E42C0220FCE0050068010420E0000420C6
:10267000847A060000000000D0B5034600685C685C
:10268000642303FB04F3021903B91AB193FBF2F3B9
:102690002C2B22DCFDF7A6FF37A3D3E90023FEF79E
:1026A0000BF806460F462046FDF79CFF34A3D3E9FE
:1026B0000023FEF701F802460B4630463946FDF787
:1026C00045FE00223A4BFDF7F7FF2FA3D3E9002385
:1026D000FEF71CF9FEF702FAD0BDA3F12D02122A73
:1026E00022D8FDF77FFF2AA3D3E90023FDF7E4FFFB
:1026F00006460F462046FDF775FF27A3D3E90023C2
:10270000FDF7DAFF02460B4630463946FDF71CFE60
:102710000022274BFDF7D0FF1BA3D3E90023FEF7D0
:10272000F5F8FEF7DBF9D7E7403B142B22D8FDF78D
:1027300059FF1BA3D3E90023FDF7BEFF06460F4652
:102740002046FDF74FFF18A3D3E90023FDF7B4FFA0
:1027500002460B4630463946FDF7F8FD0022144B81
:10276000FDF7AAFF08A3D3E90023FEF7CFF8FEF791
:10277000B5F9B1E70020AFE74FAF94658863FC3F40
:10278000A857CA32C4B1F13F7B14AE47E17AC43FC7
:1027900077BE9F1A2F1D11406688635DDC46FF3FA0
:1027A000D881734694F6E23FBC7493180456BE3F3A
:1027B0000000E03F000000002DE9F0439FB03DE045
:1027C00079481146AA2603DF46E07848C52603DF8C
:1027D0004DE0002257E0764B76495B1A9B080421B6
:1027E00061F302046FF3C50463F38F14002A52D01F
:1027F000714A724920464DF075FF714B03221A70E1
:10280000704B1B79002B40F0B2806F4B02221A7084
:102810006E4B18680AF016FE6D4B00221A70694B59
:10282000DB785BB9EFF305832BB9EFF3148313F077
:10283000010F40F0B080674843F07AFC4FF0FF3260
:102840001346EFF3058020B9EFF3148111F0010F67
:10285000B6D1554842F0DEF8EFF3058323B9EFF324
:10286000148313F0010FB0D1504856F005FA564BBF
:102870001B78012B15D0EFF30583002BA9D1EFF3C3
:10288000148202F001024A4B1B68002AA3D113F004
:10289000040FB2D09FE72246474948481DF064F82C
:1028A000ABE74D4B1868FDF79DFE804689464B4BC4
:1028B0001868FDF797FE06460F4639A3D3E90023B3
:1028C00040464946FEF722F88046894634A3D3E9BC
:1028D000002330463946FEF719F8CDE9000142469B
:1028E0004B463F490FA826F063FCEFF30583002B0E
:1028F00035D1EFF3148202F001022D4B1B681AB997
:1029000003F00703022B10D9294B2A495B1A9B08B5
:10291000032161F302056FF3C50563F38F1502B35D
:102920000FAA304928464DF0DDFE254E00233370B6
:10293000294B1868FDF756FE19A3D3E90023FDF7CC
:10294000E5FFC6E90601254B1868FDF74BFE14A309
:10295000D3E90023FDF7DAFFC6E90A0150E70022B8
:10296000CBE72A460FA91F481CF0FEFFDDE7DFF882
:1029700050C06E460CF110070FCF0FC60FCF0FC619
:102980000FCF0FC697E8030086E803009CE80F000E
:1029900017F068FE39E70F48BD2603DF4EE700BF9A
:1029A00000000000D0126341AC080420E8060420B7
:1029B0007C010420E000042080090600C004060019
:1029C00060F8032088FA0320DC000420883202200B
:1029D000264E0220981500208C32022090320220D0
:1029E000DC040600847A060038B5144603692639EB
:1029F0000B2900F20E81DFE811F00C0020003B00F3
:102A0000560071009600A100B500C900DD00F1007C
:102A10009B009988844AA2FB010189092160998859
:102A2000A2FB01239B094FF47A7202FB13139BB2A2
:102A300002FB03F36360002038BDB3F906207A4936
:102A400081FB0250D217C2EBA01212B22260B3F97E
:102A5000060081FB0031C317C3EBA1134FF47A7258
:102A600002FB13031BB202FB03F363600020E3E7E6
:102A7000B3F908206C4981FB0250D217C2EBA012B7
:102A800012B22260B3F9080081FB0031C317C3EB17
:102A9000A1134FF47A7202FB13031BB202FB03F380
:102AA00063600020C8E7B3F90A205F4981FB025048
:102AB000D217C2EBA01212B22260B3F90A0081FB56
:102AC0000031C317C3EBA1134FF47A7202FB130357
:102AD0001BB202FB03F363600020ADE7588AFDF7E9
:102AE00081FD4DA3D3E90023FDF7E6FDFEF73EF897
:102AF000FDF78AFD4AA3D3E90023FDF725FCFEF785
:102B000035F80546FEF7E0FA2060FEF739F9014690
:102B10002846FEF77FF84549FEF786F9FEF7D4FA16
:102B20006060002088E7DB8923600020606083E725
:102B3000B3F910302360002060607DE7998A3A4A3B
:102B4000A2FB010189092160998AA2FB01239B094B
:102B50004FF47A7202FB13139BB202FB03F3636020
:102B6000002069E7D98A304AA2FB01018909216066
:102B7000D98AA2FB01239B094FF47A7202FB13133B
:102B80009BB202FB03F36360002055E7198B264AD2
:102B9000A2FB010189092160198BA2FB01239B097A
:102BA0004FF47A7202FB13139BB202FB03F36360D0
:102BB000002041E7598B1C4AA2FB010189092160D1
:102BC000598BA2FB01239B094FF47A7202FB13136A
:102BD0009BB202FB03F3636000202DE7B3F90C20E6
:102BE000114981FB0250D217C2EBA01212B222602F
:102BF000B3F90C0081FB0031C317C3EBA1134FF4F1
:102C00007A7202FB13031BB202FB03F36360002022
:102C100012E76FF085000FE79A9999999999B93F52
:102C20006666666666127140D34D62100024744970
:102C30002DE9F04F93B00469476800238DF84730C1
:102C40008DF84630ADF84430FE8806EB46053889ED
:102C5000FDF7C8FCAAA3D3E90023FDF72DFD8046AC
:102C600089463046FDF7BEFC42464B46FDF74EFE18
:102C7000FDF75CFF1FFA80FA4FF40041204633F065
:102C8000B3FC002831DBADB24FF40041204633F0F5
:102C9000ABFC002851DB1321204633F0A5FC0028B3
:102CA00080F2AE80EFF30583002B6ED1EFF3148337
:102CB00003F00103944A126813B912F0070F11D000
:102CC000914A9249521A92084FF00000012161F393
:102CD00002006FF3C50062F38F10002B57D08C49B0
:102CE0004DF000FD6FF0040076E0EFF30583EBB9E3
:102CF000EFF3148303F00103834A126813B912F04F
:102D0000070F10D0804A8149521A92084FF00000F4
:102D1000012161F302006FF3C50062F38F103BB134
:102D20007C494DF0DFFC6FF0040055E00023E3E741
:102D3000014678481CF09AFDF5E7EFF30583EBB9FF
:102D4000EFF3148303F001036F4A126813B912F012
:102D5000070F10D06C4A6D49521A92084FF00000CC
:102D6000012161F302006FF3C50062F38F103BB1E4
:102D700068494DF0B7FC6FF004002DE00023E3E755
:102D8000014664481CF072FDF5E7002392E7014616
:102D90005F481CF06BFDA5E7EFF30583FBB9EFF38C
:102DA000148202F00102584B1B6812B913F0070F8E
:102DB00010D0554B55495B1A9B084FF0000001217C
:102DC00061F302006FF3C50063F38F104AB15249FB
:102DD0004DF088FC6FF0040013B0BDE8F08F0022C6
:102DE000E1E701464C481CF041FDF3E740F2676023
:102DF000002144F019FBBDF8443013F0100F0CD142
:102E000011AA0621204633F073F80028C4DBBDF870
:102E1000443013F0100FEED1E8E700226121204684
:102E200033F04CFB002819DB52223E21204633F0C0
:102E300045FB00283ADB00223F21204633F03EFBD1
:102E400000286FDB00231F2B00F2948012AA1A4483
:102E5000002102F8241C0133DBB2F4E7EFF3058311
:102E6000EBB9EFF3148303F00103274A126813B997
:102E700012F0070F10D0244A2449521A92084FF03A
:102E80000000012161F302006FF3C50062F38F10AF
:102E90003BB122494DF026FC6FF004009CE7002373
:102EA000E3E701461D481CF0E1FCF5E7EFF305837D
:102EB000EBB9EFF3148303F00103134A126813B95B
:102EC00012F0070F10D0104A1049521A92084FF012
:102ED0000000012161F302006FF3C50062F38F105F
:102EE0003BB10F494DF0FEFB6FF0040074E7002387
:102EF000E3E701460A481CF0B9FCF5E7AFF30080B0
:102F00009A9999999999B93F00010420E000042009
:102F1000688E0600488E0600808E0600988E060099
:102F2000BC8E0600EFF30583EBB9EFF3148303F0D7
:102F30000103A34A126813B912F0070F10D0A04A78
:102F4000A049521A92084FF00000012161F30200DB
:102F50006FF3C50062F38F103BB19B494DF0C2FB8C
:102F60006FF0040038E70023E3E7014696481CF0C1
:102F70007DFCF5E7202309AA0021204633F0E4FA7E
:102F8000002810DB00238DF847301F2B33D812AAFE
:102F90001A4412F8242C9DF847100A448DF8472053
:102FA0000133DBB2F1E7EFF30583EBB9EFF3148301
:102FB00003F00103824A126813B912F0070F10D010
:102FC0007F4A8049521A92084FF00000012161F3B4
:102FD00002006FF3C50062F38F103BB17B494DF0E7
:102FE00081FB6FF00400F7E60023E3E70146774832
:102FF0001CF03CFCF5E79DF84730DB438DF847308B
:10300000206860238DF8083002AB039301230493FA
:1030100000228DF814200DF1460206920793072333
:103020008DF8203083685E685523022203A9B047DB
:103030000028C0F2CD80FE88330AF6B24FEA152987
:10304000EDB27F894FEA1728FAB201924FEA1A2BA4
:103050005FFA8AFA20684A228DF808208DF8093034
:1030600002AB0393022304938DF8143083685F68E6
:103070005523012203A9B8470028C0F2D180206857
:103080004B238DF808308DF8096002AB03930223BF
:1030900004938DF8143083685E685523012203A9D8
:1030A000B0470028C0F2E48020684C238DF8083037
:1030B0008DF8099002AB0393022304938DF814302A
:1030C00083685E685523012203A9B0470028C0F237
:1030D000F78020684D238DF808308DF8095002AB39
:1030E0000393022304938DF8143083685D6855239D
:1030F000012203A9A8470028C0F20A8120685023B2
:103100008DF808308DF8098002AB039302230493F5
:103110008DF8143083685D685523012203A9A84700
:103120000028C0F21D81206851238DF80830019BD2
:103130008DF8093002AB0393022304938DF8143009
:1031400083685D685523012203A9A8470028C0F2BF
:103150002F8120685B238DF808308DF809B002AB11
:103160000393022304938DF8143083685D6855231C
:10317000012203A9A8470028C0F2428120685C23ED
:103180008DF808308DF809A002AB03930223049355
:103190008DF8143083685D685523012203A9A84780
:1031A0000028C0F2698100231F2B00F28D8112AA32
:1031B0001A44002102F8241C0133DBB2F4E700BFFB
:1031C00000010420E0000420DC8E0600FC8E0600D6
:1031D000EFF30583EBB9EFF3148303F001039C4A8B
:1031E000126813B912F0070F10D0994A9949521A70
:1031F00092084FF00000012161F302006FF3C50057
:1032000062F38F103BB194494DF06CFA6FF00400FB
:10321000E2E50023E3E701468F481CF027FBF5E7D2
:10322000EFF30583EBB9EFF3148303F00103884A4E
:10323000126813B912F0070F10D0854A8549521A47
:1032400092084FF00000012161F302006FF3C50006
:1032500062F38F103BB181494DF044FA6FF00400E6
:10326000BAE50023E3E701467C481CF0FFFAF5E7E6
:10327000EFF30583EBB9EFF3148303F00103744A12
:10328000126813B912F0070F10D0714A7149521A1F
:1032900092084FF00000012161F302006FF3C500B6
:1032A00062F38F103BB16E494DF01CFA6FF00400D1
:1032B00092E50023E3E7014669481CF0D7FAF5E7F9
:1032C000EFF30583EBB9EFF3148303F00103604AD6
:1032D000126813B912F0070F10D05D4A5D49521AF7
:1032E00092084FF00000012161F302006FF3C50066
:1032F00062F38F103BB15B494DF0F4F96FF00400BD
:103300006AE50023E3E7014656481CF0AFFAF5E70B
:10331000EFF30583EBB9EFF3148303F001034C4A99
:10332000126813B912F0070F10D0494A4949521ACE
:1033300092084FF00000012161F302006FF3C50015
:1033400062F38F103BB148494DF0CCF96FF00400A7
:1033500042E50023E3E7014643481CF087FAF5E71E
:10336000EFF30583EBB9EFF3148303F00103384A5D
:10337000126813B912F0070F10D0354A3549521AA6
:1033800092084FF00000012161F302006FF3C500C5
:1033900062F38F103BB135494DF0A4F96FF0040092
:1033A0001AE50023E3E7014630481CF05FFAF5E731
:1033B000EFF30583EBB9EFF3148303F00103244A21
:1033C000126813B912F0070F10D0214A2149521A7E
:1033D00092084FF00000012161F302006FF3C50075
:1033E00062F38F103BB122494DF07CF96FF004007D
:1033F000F2E40023E3E701461D481CF037FAF5E745
:10340000EFF30583EBB9EFF3148303F00103104AE4
:10341000126813B912F0070F10D00D4A0D49521A55
:1034200092084FF00000012161F302006FF3C50024
:1034300062F38F103BB10F494DF054F96FF0040067
:10344000CAE40023E3E701460A481CF00FFAF5E757
:1034500000010420E0000420188F0600388F0600C9
:10346000588F0600788F06009C8F0600C08F0600DC
:10347000E48F060008900600EFF30583EBB9EFF345
:10348000148303F001039B4A126813B912F0070F6B
:1034900010D0984A9849521A92084FF00000012122
:1034A00061F302006FF3C50062F38F103BB19349E3
:1034B0004DF018F96FF004008EE40023E3E70146B5
:1034C0008E481CF0D3F9F5E7202309AA00212046F5
:1034D00033F03AF800280CDB00210A461F2930D8C7
:1034E00012AB0B4413F8243C1A44D2B20131C9B2D6
:1034F000F4E7EFF30583EBB9EFF3148303F0010373
:103500007C4A126813B912F0070F10D0794A7A4931
:10351000521A92084FF00000012161F302006FF38C
:10352000C50062F38F103BB175494DF0DBF86FF0C9
:10353000040051E40023E3E7014671481CF096F9CA
:10354000F5E7D243D2B26021204632F0B7FF00281F
:103550002BDB00228DF84720206860238DF808308F
:1035600002AB0393012304938DF814200DF147025D
:103570000692079307238DF8203083685D685523F2
:10358000022203A9A847002838DB0C21204633F08B
:103590002BF800285BDB4221204633F025F8002879
:1035A0007EDB0023ADF84430E2E0EFF30583F3B9AE
:1035B000EFF3148303F001034E4A126813B912F0BB
:1035C000070F10D04B4A4C49521A92084FF0000096
:1035D000012161F302006FF3C50062F38F1043B164
:1035E00048494DF07FF86FF00400FFF7F5BB00236A
:1035F000E2E7014643481CF039F9F4E7EFF30583AD
:10360000F3B9EFF3148303F001033A4A126813B9D4
:1036100012F0070F10D0374A3749521A92084FF06C
:103620000000012161F302006FF3C50062F38F1007
:1036300043B135494DF056F86FF00400FFF7CCBBAD
:103640000023E2E7014630481CF010F9F4E7EFF3FD
:103650000583F3B9EFF3148303F00103254A1268DD
:1036600013B912F0070F10D0224A2349521A9208B8
:103670004FF00000012161F302006FF3C50062F317
:103680008F1043B121494DF02DF86FF00400FFF782
:10369000A3BB0023E2E701461C481CF0E7F8F4E76F
:1036A000EFF30583F3B9EFF3148303F00103114A39
:1036B000126813B912F0070F10D00E4A0E49521AB1
:1036C00092084FF00000012161F302006FF3C50082
:1036D00062F38F1043B10E494DF004F86FF004000F
:1036E000FFF77ABB0023E2E7014609481CF0BEF869
:1036F000F4E700BF00010420E00004202890060049
:10370000FC8E060048900600689006008090060037
:10371000A0900600EFF30583F3B9EFF3148202F0F3
:103720000102354B1B6812B913F0070F10D0324B52
:1037300032495B1A9B084FF00000012161F302003F
:103740006FF3C50063F38F1042B12D494CF0CAFFEF
:103750006FF00400FFF740BB0022E2E70146284873
:103760001CF084F8F4E7BDF8443013F0100F11D0CA
:1037700011AA0621204632F0BBFB0028CADBBDF8A7
:10378000443013F0100FEED040F26760002143F098
:103790004BFEE8E72021204632F026FF002802DB1E
:1037A0000020FFF719BBEFF30583F3B9EFF31483A0
:1037B00003F00103104A126813B912F0070F10D07A
:1037C0000D4A0E49521A92084FF00000012161F390
:1037D00002006FF3C50062F38F1043B109494CF04A
:1037E00081FF6FF00400FFF7F7BA0023E2E701461C
:1037F00004481CF03BF8F4E700010420E00004203A
:10380000808E0600C0900600F8B50446002A4AD013
:10381000062A4CD1D3F800C06046C1174FEA411EBA
:103820004FEA4C124EEADC65B2EB0C0265EB010587
:103830004FEA452C4CEAD25C4FEA422E65461EEB1D
:10384000000241EB05054FEA851E4EEA926E4FEAF3
:10385000821CBCEB02026EEB0505161845EB010756
:103860005B68F61847EBE377012E77F100030FDB77
:10387000134811A3D3E9002330184FF0000147EBA0
:103880000101FDF747FC0146204633F0D3FB10E071
:103890000C4809A3D3E90023301847F1FF31FDF7A5
:1038A00039FC0146F0E7198852F0BFFC01E06FF0E7
:1038B0008500F8BDAFF300803AA39500000000003A
:1038C0009DD14A00632EB5FF00234FF0FF3001E089
:1038D00018460133002807DA132B05D8034A52F89B
:1038E0002320002AF5D1F3E7704700BF0C26022001
:1038F00010B582B004464FF0FF33019301A9A068D0
:103900004BF0D0FB18B10A204BF05BFBF6E7606987
:103910004BF090FC60694BF006FD60694BF081FC58
:10392000A0684BF09CFB02204BF04BFB6268044B01
:10393000002143F8221020464BF0D7FD02B010BD05
:103940000C26022008B5094B1B6863B1002008BD96
:10395000074A002142F823100133132BF8D90348FA
:103960004BF03DFCF3E70023F7E700BF08260220F9
:103970000C2602200E4B1868C8B110B54BF05AFC4B
:10398000002402E0FFF7B4FF0134132C05D8094BE3
:1039900053F824000028F5D1F6E7054C20684BF0D9
:1039A000C2FC20684BF03DFC0023236010BD704733
:1039B000082602200C2602202DE9F04D82B0054693
:1039C0001E460A9F434B186800286DD0884614464F
:1039D000002D6CD0802A6DD8B6F5617F6DD3002F95
:1039E0006EDB0F2F6FDC0B9B002B6FD04BF022FC9C
:1039F000FFF76AFFB0F1000A09DA6FF00504354BF2
:103A000018684BF090FC204602B0BDE8F08D1820FD
:103A10004BF067FD8346002843D00560C46000F189
:103A20000802211D0B984BF0F0FA0446A8BB0BF1DD
:103A300014004BF0D4FB044638BBB8F1000F15D08E
:103A40000BF11003019300975B4632464146224832
:103A50004BF006FA044660B902204BF0B2FACBF8FC
:103A600004A01E4B43F82AB05446C8E7DFF8708024
:103A7000E6E7DBF814004BF0D4FBDBF808004BF072
:103A8000EEFA58464BF031FDB9E7DBF808004BF091
:103A9000E6FA58464BF029FDB1E758464BF025FDB4
:103AA000ADE76FF00504AAE76FF00104ABE76FF034
:103AB0000404A8E76FF00404A5E76FF00404A2E78C
:103AC0006FF004049FE76FF004049CE76FF00404B8
:103AD00099E700BF08260220A5C404000C26022096
:103AE000589E0500F8B50446274B1868002847D0B3
:103AF0000F4615464BF09EFB132C1ED8234B53F854
:103B0000244074B3E368AB422FD37FB1A668281D6D
:103B10004BF0E7FC044668B3056077B32A463946A4
:103B200004304FF077FC6FF005050AE0002DEDD072
:103B30003E463C466FF0040503E0002634466FF035
:103B40000405114B18684BF0EEFB44B126B1214639
:103B500030464BF0A7FA054620464BF0C6FC2846F7
:103B6000F8BD26466FF00405EBE7002634466FF0FB
:103B70000405E6E76FF00505E3E76FF00505E0E70C
:103B80006FF00105EBE700BF082602200C2602209B
:103B9000B0B500AF02F10B0323F00703ADEB030D4B
:103BA000144B1B68D3B16C4613281AD8124B53F828
:103BB0002050CDB1EB68934219D351B1226011B1BD
:103BC000201D4FF027FC2146A8684BF08DFABD461A
:103BD000B0BD002AF2D06FF00400F8E76FF00100EA
:103BE000F5E76FF00400F2E76FF00400EFE76FF025
:103BF0000400ECE7082602200C26022010B504463B
:103C00000D4B1868A8B14BF015FB132C0DD80B4BBE
:103C100053F824305BB118694BF0BDF90446064BEC
:103C200018684BF080FB204610BD0024F7E7002405
:103C3000F5E70024F7E700BF082602200C26022043
:103C400010B504460E4B1868B0B14BF0F3FA132CC4
:103C50000CD80C4B53F8240058B1FFF749FE002450
:103C6000074B18684BF05FFB204610BD6FF0040453
:103C7000F6E76FF00404F3E76FF00104F4E700BF28
:103C8000082602200C2602200246064B186800E097
:103C9000C06F28B103798B42FAD103689342F7D100
:103CA000704700BF68260220024B1A68C26718607E
:103CB000704700BF68260220084B1B68002263B1D2
:103CC000834202D01A46DB6FF9E712B1DB6FD3678C
:103CD0007047DA6F014B1A60704770476826022000
:103CE00038B504460D4609B1037D0BB9256338BDCF
:103CF0000B460268017902484BF0A4F8F6E700BFD2
:103D0000689E0500437DCBB970470A210E484BF0F1
:103D100099F802E00C484BF095F80135B54212D203
:103D200014F8011BA1F120035E2BF3D90D29ECD06F
:103D30000A29F2D005484BF085F8EEE770B50C463D
:103D400016460025EAE770BD144906008C9E050062
:103D500038B5046922695AB3A3689A4228D8E16841
:103D60008A4203D9037D23BB2369E3602169A368E9
:103D70005B1AA360E268521AE2601C31214404F12C
:103D80001C004FF031FB237D442B02D1637D452B7A
:103D900013D0274D40F20A332A46264926484BF0D5
:103DA000B5FD40F20A3128464CF00AFA002323619F
:103DB00038BD22484BF046F8D6E7A37D412BE8D129
:103DC000E37D442BE5D1237E422BE2D1637E452B5C
:103DD000DFD1A37E452BDCD1E37E462BD9D16368AE
:103DE00003F11C02A25C442AD3D103F11D02A25CA0
:103DF000452ACED103F11E02A25C412AC9D103F1AA
:103E00001F02A25C442AC4D103F12002A25C422A10
:103E1000BFD103F12102A25C452ABAD103F12202EB
:103E2000A25C452AB5D12333E35C462BB1D1BDE773
:103E3000E09E0500149F050070A30500949E0500F8
:103E400038B5046909B9436F0BB90023E360E16831
:103E500039B3A268914203D2037D33BBE368A36008
:103E6000A36803F11C01E268D21A214404F11C008A
:103E70004FF0BAFA237D442B02D1637D452B18D035
:103E8000294D4FF43A732A46284929484BF03EFD04
:103E90004FF43A7128464CF093F9A268E3689B1AF4
:103EA000E36000232361A36038BD22484AF0CAFFC3
:103EB000D4E7A37D412BE3D1E37D442BE0D1237EE6
:103EC000422BDDD1637E452BDAD1A37E452BD7D1A2
:103ED000E37E462BD4D1636803F11C02A25C442A22
:103EE000CED103F11D02A25C452AC9D103F11E0205
:103EF000A25C412AC4D103F11F02A25C442ABFD1B3
:103F000003F12002A25C422ABAD103F12102A25C91
:103F1000452AB5D103F12202A25C452AB0D1233350
:103F2000E35C462BACD1B8E7E09E0500149F05008A
:103F300070A3050090A3050010B584B004460C4B97
:103F400018684BF077F9236A01332362636A4BB137
:103F500001930294203403940C2201A9054B1868A4
:103F6000FFF7C0FD024B18684BF0DDF904B010BD3F
:103F7000642602205C2602202DE9F04F83B007461C
:103F80000D460469002300930379ABB1012B18D0CF
:103F90000026E168A268914203D23B7DB3B9A368D1
:103FA000E360E268A368D31A01939DB1D7F8189033
:103FB00096B14FF064090FE000680AF033FF06463F
:103FC000E7E7006802F008FF0646E2E770484AF0BB
:103FD00039FFE4E74FF0FF3963689A4206D0A368DF
:103FE0001C33234400934FF0000838E03B7D53B965
:103FF000A26804F11C013846FFF784FE012138460F
:10400000FFF71EFFEBE73A68397962484AF01AFF7A
:10401000EEE7E36803F11C016268D21A21443868B4
:104020000AF012FD8046B8F1000F05DDE368434455
:10403000E360019B43440193019D7B6F03B1F5B99C
:104040000A204AF0BEFFB8F1000F40F06581D7E9C1
:104050001623484648F09EFA002840F35D813B79DC
:10406000002BD6D0012BDED1A36803F11C016268BE
:10407000D21A2144386802F0B9FD8046D3E74FF0E8
:104080000008A9E0A37D412B40F0B480E37D442BE0
:1040900040F0B080237E422B40F0AC80637E452B05
:1040A00040F0A880A37E452B40F0A480E37E462B01
:1040B00040F0A080636803F11C02A25C442A40F037
:1040C000998003F11D02A25C452A40F0938003F120
:1040D0001E02A25C412A40F08D8003F11F02A25C07
:1040E000442A40F0878003F12002A25C422A40F07B
:1040F000818003F12102A25C452A7BD103F12202D7
:10410000A25C452A76D12333E35C462B72D17EE054
:10411000A37D412B40F09280E37D442B40F08E80C4
:10412000237E422B40F08A80637E452B40F08680C0
:10413000A37E452B40F08280E37E462B7ED16368D0
:1041400003F11C02A25C442A78D103F11D02A25C97
:10415000452A73D103F11E02A25C412A6ED103F1FC
:104160001F02A25C442A69D103F12002A25C422A08
:1041700064D103F12102A25C452A5FD103F122023E
:10418000A25C452A5AD12333E35C462B56D162E028
:10419000D8A3050020A40500DFF854B240F2F5339F
:1041A0005A46914991484BF0B1FB40F2F5315846DF
:1041B0004CF006F8A3681E44019A16441C362644A7
:1041C000009B991B0096E3685B1AE360904401959D
:1041D000BAF1000F3FF434AF7E6FBB6F01AA69469E
:1041E0003846B0478246237D442B03D1637D452B5F
:1041F0003FF448AF7E4E40F2AB3332467A497B48BB
:104200004BF084FB40F2AB3130464BF0D9FF019BC1
:10421000AB4200D90195BAF1000F7BD0A0684646A9
:1042200040441C30019A514620444FF0DDF8237D74
:10423000442B03D1637D452B3FF46AAF6C4D40F2B4
:10424000D2332A46684969484BF060FB40F2D231CC
:1042500028464BF0B5FFE5681C352544009B9D4280
:1042600000D2009500996D1AA0683044019B184453
:104270001C302A4620444FF0B7F8237D442B8BD1C5
:10428000637D452B88D1A37D412B85D1E37D442BD4
:1042900082D1237E422B7FF47FAF637E452B7FF458
:1042A0007BAFA37E452B7FF477AFE37E462B7FF475
:1042B00073AF636803F11C02A25C442A7FF46CAF05
:1042C00003F11D02A25C452A7FF466AF03F11E02D2
:1042D000A25C412A7FF460AF03F11F02A25C442A72
:1042E0007FF45AAF03F12002A25C422A7FF454AF5C
:1042F00003F12102A25C452A7FF44EAF03F12202B2
:10430000A25C452A7FF448AF2333E35C462B7FF45D
:1043100043AF4FE701955BE7B8F1000F1ADC237D4F
:10432000442B02D1637D452B22D0314C40F22E43E9
:1043300022462D492D484BF0E9FA40F22E41204605
:104340004BF03EFFB8F1000FD4BF0020012003B0B6
:10435000BDE8F08FA36821690B4403F11C014246BC
:1043600021443846FFF7CEFCA3684344A360D6E758
:10437000A37D412BD9D1E37D442BD6D1237E422B83
:10438000D3D1637E452BD0D1A37E452BCDD1E37E07
:10439000462BCAD1636803F11C02A25C442AC4D133
:1043A00003F11D02A25C452ABFD103F11E02A25CEB
:1043B000412ABAD103F11F02A25C442AB5D103F10C
:1043C0002002A25C422AB0D103F12102A25C452A5C
:1043D000ABD103F12202A25C452AA6D12333E35CD0
:1043E000462BA2D1AEE700BF44A4050070A3050090
:1043F000E09E050038B504692369A268934205D29E
:1044000003F11C02A05C0133236138BD0546002185
:10441000FFF716FD01212846FFF7AEFD40B12369E5
:1044200003F11C02A05C0133236100232B62ECE743
:104430002B7D53B96FF009012846FFF751FC284640
:10444000FFF77AFD4FF0FF30DFE72A68297902484D
:104450004AF0F8FCEEE700BF48A9050038B590F82F
:104460004450F5B90446036BD3B9036C0E4A93422A
:1044700011D0196848F004F9054690B96FF00901A8
:104480002046FFF72DFC237D5BB122682179074888
:104490004AF0D8FC05E00021FFF7D2FC012500E03E
:1044A0000125284638BD00BFB8B0050068A9050041
:1044B00090F83C308B4225D010B5044680F83C1073
:1044C000002380F84430012910D0022911D0B1B165
:1044D0000D4C40F29B4322460C490D484BF016FA16
:1044E00040F29B4120464BF06BFE01E0094B036418
:1044F00010BD202148F0E8F8074B2364F8E7074B8C
:104500000364F5E7704700BFE09E0500E4AA0600DB
:1045100070A30500C0B00500B0B00500B8B005003C
:1045200010B50446FFF79AFF38B1226C034B9A424C
:1045300003D001212046FFF7BBFF10BDB8B0050036
:10454000002A64D070B582B015461368834201D04A
:1045500002B070BD11F0010FFAD0104648F03FF8DC
:104560000028F5D12E6929E0B2683169521A00920B
:104570002A68297926484AF065FC27E030691C3012
:104580000223244AB168304448F058F810B3214956
:10459000284648F075F80134632C0DD8284648F0B9
:1045A000A7F80028EAD0284648F088F90028F2DC6D
:1045B000326973689A42EED32B7DD3B9284648F00E
:1045C0007DF9031E1BDD2A7D002ACDD1002485F84C
:1045D0003C40E1E701212846FFF7CEFC20B14AF03C
:1045E00004FCC5E91601D6E700212846FFF728FCA0
:1045F000E2E72A68297908484AF024FCDEE73169B5
:10460000B2689142DFD3284647F07CFFA0E77047AD
:1046100090A9050098110600D8A9050010B5044618
:1046200080F83410002383630239C9B2012905D907
:104630006FF009012046FFF753FB10BD0221FFF781
:1046400037FF204648F0C4F9031EF1DBA363227D47
:10465000002AEDD02268217901484AF0F3FBE7E710
:1046600000AA050038B504460B22184947F0C6FFDA
:1046700030B1054603212046FFF7D0FF284638BD5C
:104680000B221349204647F0B9FF054620B102210D
:104690002046FFF7C3FFF1E707220E49204647F007
:1046A000ADFF054620B101212046FFF7B7FFE5E742
:1046B00009220949204647F0A1FF05460028DDD020
:1046C00004212046FFF7AAFFD8E700BF2CAA050067
:1046D00038AA050044AA05004CAA05002DE9F041BE
:1046E00004460E4617464FF000084546236B002B44
:1046F00060D194F84430002B5CD1002D5AD10222B5
:104700002E49204647F07AFF0028F8D104222C4990
:10471000204647F073FF38B101212046FFF7C8FE5D
:10472000012384F84430E1E72046FFF79BFF00288F
:10473000DCD146B130464EF0D1FD0246314620462E
:1047400047F05CFF78BB27B1204647F0D1FF002837
:10475000CCD1D4F810C0DCF8103003F11C000223D7
:10476000164ADCF80810604447F068FF50B122692F
:104770001C32831A002B05DDC6B11049204647F0D4
:104780007FFFB3E701212046FFF7F6FB10B10023BE
:104790002362ABE76FF009012046FFF7A1FA20463C
:1047A000FFF7CAFBA2E7804605469FE74FF00108E6
:1047B00045469BE74046BDE8F08100BF98110600E2
:1047C00058AA050010B582B0174B1B681BB1002416
:1047D000204602B010BD0A230193012300934FF439
:1047E00000630C2211491248FFF7E6F8041EEFDBC4
:1047F000104B1C6010484AF0F2FC044670B90A489D
:104800004AF0EDFC04460028E2D00A4B1868FFF796
:1048100017FA094B18684AF004FDD9E7054B1868E8
:10482000FFF70EFAD4E700BF6026022060AA050059
:10483000F3C404005C2602206426022038B5124B23
:10484000186800B34AF0F6FC01E047F067FE0F4B32
:1048500018680028F9D10E4C20684AF0EBFC0D4B8B
:104860001868FFF7EDF920684AF05DFD20684AF00E
:10487000D8FC00252560044C20684AF054FD2068CF
:104880004AF0CFFC256038BD602602206826022051
:10489000642602205C2602202DE9F04782B00646FD
:1048A0000C4690461D46754B18684AF0C3FC242DF3
:1048B00040F2DF80012C08D90027704B18684AF0BD
:1048C00032FD384602B0BDE8F08721463046FFF79A
:1048D000DBF907460028F0D180204AF002FE81462D
:1048E000002800F0C880C0F81080B8F1000F7AD01E
:1048F0004FF0000AD9F81080B8F1000F00F0B48032
:10490000C8F800A009F108004AF069FC002840F04E
:104910009F8009F10C004AF062FC002840F088807A
:10492000C9F8006089F804404FF0000889F8148045
:1049300089F815804FF4FA53C9F818304FF0FF3357
:10494000C9F81C30C9F82080C9F824802C2389F8C4
:1049500028301923C9F82C30484647F013FE414649
:104960004846FFF7A5FDC9F8488000220023C9E9A1
:104970001423C9E916234023C9F86030C9F864300C
:1049800089F86880C9F86C80C9F87480C9F87C809F
:10499000D9F81030243D5D6001214846FFF750FAF8
:1049A000D9F81000364D0822294614304EF032FD59
:1049B000D9F8100043681C330822294618444EF0E9
:1049C00029FDC4B1012C28D0D9F80C004AF029FCEB
:1049D000D9F808004AF025FCBAF1000F23D1484667
:1049E0004AF083FD69E728464AF07BFDC9F81000CC
:1049F0004FF0010A7EE70A2301934FF4006300930E
:104A00004B46204A012130460AF03EF90028DBD10E
:104A10004846FFF749F94F464FE74A46194930469D
:104A200001F0E8FFF2E7D9F810004AF05EFDD6E7A2
:104A3000D9F808004AF0F5FBBAF1000F03D1484657
:104A40004AF053FD39E7D9F810004AF04EFDF6E779
:104A5000BAF1000F03D148464AF047FD2DE7D9F8D7
:104A600010004AF042FDF6E748464AF03EFD474650
:104A700023E7002721E707461FE700BF6026022043
:104A80006CAA05004145000060B138B50546064CEA
:104A900020684AF0CFFB284647F040FD20684AF0E6
:104AA00042FC38BD704700BF6026022070B5044646
:104AB00080684AF0BFFB204647F024FD2379DBB134
:104AC000012B28D0266B23691A7D442A02D15A7DF6
:104AD000452A2FD0354D40F6FB032A463449354848
:104AE0004AF014FF40F6FB0128464BF069FBA06832
:104AF0004AF019FC304670BD206809F06FFF0028AD
:104B000004DC23691A699B689A42DBD20121206880
:104B10000AF04EF9D6E7206802F098F9002804DC84
:104B200023691A699B689A42CCD20121206802F05D
:104B30001DF9C7E79A7D412ACCD1DA7D442AC9D133
:104B40001A7E422AC6D15A7E452AC3D19A7E452A68
:104B5000C0D1DA7E462ABDD15A6802F11C01595CE7
:104B60004429B7D102F11D01595C4529B2D102F1A6
:104B70001E01595C4129ADD102F11F01595C442944
:104B8000A8D102F12001595C4229A3D102F12101EF
:104B9000595C45299ED102F12201595C452999D1E0
:104BA00023329B5C462B95D1A1E700BFE09E050018
:104BB00078AA050070A3050030B585B004460D46FF
:104BC00080684AF037FB204647F0ECFE20B9A06829
:104BD0004AF0A9FB05B030BD2B46074A0C2101A8BD
:104BE00024F0CCFA431E0A2BF1D80023024601A977
:104BF000204647F073FEEAE78471060070B504466C
:104C00000E46154680684AF015FB204647F0CAFE5E
:104C100050B16DB930464EF061FB0246002331467B
:104C2000204647F05BFE55B9A0684AF07CFB70BD9A
:104C3000002301220549204647F050FEEAE7002301
:104C400001220249204647F049FEEDE754B0050035
:104C500010B5044680684AF0EDFA236B1BB1A068DA
:104C60004AF061FB10BD01231A460249204647F075
:104C700035FEF4E758B005002DE9F04104460D4635
:104C80001646984680684AF0D5FA002D31D0002E9D
:104C900032D02946204647F0B9FE40B1237D03BB00
:104CA0000025A0684AF03FFB2846BDE8F0811420AB
:104CB0004AF017FC074610B328464EF00FFB236E50
:104CC000834204D22066636E834200D260663D60F8
:104CD0007860BE60C7F80C80A36C3B61A7640025B8
:104CE000DFE72B462268217906484AF0ABF8002519
:104CF000D7E76FF00405D4E76FF00405D1E76FF054
:104D00000505CEE75CB0050070B584B006460C46DC
:104D100015460C4B18684AF08DFA84B1019402963E
:104D200003950C2201A9084B1868FEF7DBFE044628
:104D3000044B18684AF0F7FA204604B070BD6FF0D3
:104D40000404F5E7642602205C26022010B5044620
:104D500080684AF06FFA237D6BB901212046FFF786
:104D60006FF800212046FFF707F950B101212046D6
:104D7000FFF766F8F5E72268217907484AF062F8FC
:104D8000EBE72069426800211C304EF067FBA06809
:104D90004AF0C9FA10BD00BF94B0050008B5044B35
:104DA0001B680BB1002008BD01484AF018FAFAE769
:104DB0006C260220012806D0022815D10B4A22B108
:104DC0000021084607E00A4AF9E71046704799684B
:104DD0001160014618461368002BF8D109B18B60A9
:104DE0007047002313607047002070477026022030
:104DF000742602200F4B1868D0B110B54AF01AFA89
:104E0000012409E018464AF070FBE0B2FFF7D2FF38
:104E100003460028F6D10134052CF6DD054C206848
:104E20004AF081FA20684AF0FCF90023236010BDA3
:104E3000704700BF6C26022070B504460E462D4B0D
:104E40006FF003021A60A0F58073FF2B0ED9A0F556
:104E50000073FF2B12D9274B1B68A3B10025254BEC
:104E60001B680BB1002D37D1284670BD49F081FC7D
:104E70000028F0D01F4B00221A60ECE702F09CFCE7
:104E80001C4B1860E7E71B4B6FF005021A601820F7
:104E90004AF027FB05460028E1D004600023436068
:104EA000C36003614361836004304AF098F90028CD
:104EB000D5D1104B00221A60002ED0D06FF0050221
:104EC0001A603146204600F02BF8E8600028C6D072
:104ED0000268084B1A60C2E7686808B14AF0A1F995
:104EE000E86808B100F0FEF828464AF0FEFA00250E
:104EF000BAE700BF78260220024B186800221A6029
:104F0000704700BF7826022008B5044B1B680BB120
:104F1000002008BD01484AF062F9FAE77C26022029
:104F20002DE9F04383B007460E46FFF7EDFF054637
:104F30000C204AF0D6FA0446002D40F0C480002828
:104F400000F0CC800C2200214EF088FA644B1868E7
:104F50004AF070F92EB1304648F0ABF9002800F065
:104F6000AD80FF2F03D9A7F50073FF2B32D8F6B120
:104F7000317C01290ED9002001460346024606462F
:104F80006FF00405DDB14FF00008554B18684AF08A
:104F9000CAF99AE0D6F804C0B268F368012914BFD0
:104FA000002101213078092806D96646EAE7334610
:104FB000324600200146E5E766460A20E2E7009116
:104FC000314601F071FF80460028DED101F0AEFFCE
:104FD0000546DAE7A7F58073FF2B04D94FF00008E8
:104FE0006FF00205D1E7384607F0D2FB8046002873
:104FF0003FD0002EC9D0317800293ED1716819B157
:10500000404607F02BFC05462DB9B16819B1404662
:1050100007F02EFC054635B9F16821B172694046AA
:1050200007F030FC054615B9B369002B3CD1ADB98A
:10503000316B29B1736B1BB1B36B0BB1F36B13B94C
:1050400096F8403053B1B36B726B96F84000019004
:10505000F06B0090404607F02BFC05463DB3002D59
:1050600093D1B16C002990D0404607F033FD05463E
:105070008BE707F0EBFB054687E707F06DFC05467D
:105080000028C1D1BAE709F10C0306EB4303998864
:10509000404607F057FC054609F10109B3694B4545
:1050A000C5D9002DEFD0C2E74FF00009F6E7726CCA
:1050B000317C404607F0A2FC0546D0E74FF00008DF
:1050C0006FF0040561E74FF000081CB125606760D0
:1050D000C4F80880204603B0BDE8F0838046F4E7BA
:1050E0007C26022018B310B50446FFF70DFF00B967
:1050F00010BD0F4B18684AF09DF86368FF2B03D969
:10510000A3F50072FF2A0AD8A06848F080FE204666
:105110004AF0EBF9064B18684AF005F9E8E7A3F501
:105120008073FF2BF3D8A06807F07AFBEFE7704796
:105130007C2602202DE9F04184B080460F461446BB
:1051400003783BB1062B38D06FF00405284604B035
:10515000BDE8F0814368DAB20292C3F307220192FC
:10516000C3F3074200921B0E154A2146384624F02D
:1051700005F80546EAE76FF00505844203D9241ACD
:105180000744054401E06FF00505013E002EDDDB1C
:10519000002DDBDB08EB86035B689AB200921B0CE8
:1051A000084A2146384623F0E9FF002EE5DD844217
:1051B000E1D93A233B540130DFE703260025E5E738
:1051C000C8B00500D4B005002DE9F0470646DDF86B
:1051D00028900025AE46AC462846A8462F462C46C9
:1051E0001EE096F800A0BAF1B50F12D1013410E01C
:1051F00096F800A0BAF1620F01D0002409E0013452
:1052000007E00AB13778176001344FF0000EF4461A
:1052100001271FB13778BC44E64400270136013529
:105220008D424FD2072C4DDC072C49D80FF2040ACF
:105230005AF824F0E3510000F1510000035200003D
:1052400055520000615200006B520000795200007C
:10525000AD5200000BB137781F6001340127D8E749
:1052600096F8008001340127D3E7307808EB002856
:10527000013400200127CCE780450DD9089F47B1B4
:10528000099FB84205D2089F96F800A007F801AB25
:10529000089701300127BCE75FFA8CFC96F800A064
:1052A000E24501D00024B4E70134B2E75FFA8EFE94
:1052B00096F800A0F24501D00024AAE70134A8E73F
:1052C0000024A6E7002C08DD082C09D1B9F1000F55
:1052D00001D0C9F80060BDE8F0876FF00A00F5E77B
:1052E0006FF00800F2E700BFF8B505460E46144619
:1052F00082B10022B24219D22B781B090C49CB5C37
:10530000237015F8013B03F00F03CB5C637002348C
:105310000132EFE7074F3E233A46074907484AF074
:10532000F5FA3E2138464AF04BFFE2E77000F8BD3F
:1053300038B10500DCB0050010B1050070A3050010
:10534000F0B583B004460D46164612B10020012286
:105350003AE0274F53233A46264927484AF0D6FADF
:10536000532138464AF02CFFF0E702AA1A4412F8FB
:10537000042C0F2A8CBF002201220133012B19D8E3
:10538000C2B102AA1A4412F8042C092A06D9113A09
:1053900052B20A3202A9194401F8042C02AA1A4492
:1053A00012F8042C0F2AE0D9203A02A9194401F876
:1053B000042CDAE73AB19DF804109DF9053043EA70
:1053C000011306F8013B0130B0EB550F0DD262B16D
:1053D00094F90030303B8DF8043094F90130303BC3
:1053E0008DF8053002340023C8E703B0F0BD00BFDC
:1053F000DCB0050024B1050070A30500094A82FB5A
:105400000032C317C3EBE2134FF4C87202FB13035D
:1054100023B110F0030F03D0002070470120704724
:10542000012070471F85EB51F8B505460024002682
:10543000002712E01B4A82FB0432E317C3EB62032E
:1054400003EB4303A4EB8303174AD25C174B03FB24
:1054500002F3F61847EBE3770134AC421EDA114B46
:1054600083FB0423E017C0EB630000F2B270FFF788
:10547000C5FF0028DED00B4A82FB0432E317C3EBE2
:10548000620303EB4303A4EB8303094AD25C074B9B
:1054900003FB02F3F61847EBE377DDE730463946C6
:1054A000F8BD00BFABAAAA2A48B10500805101008F
:1054B00054B105000246044B186820B103689342BA
:1054C00001D08068F9E770478426022038B502468B
:1054D000074C2346186828B1904203D01C4600F1BF
:1054E0000803F7E718B1856849F0FFFF256038BD6C
:1054F0008426022010B5064B1C680C2049F0F1FFF1
:10550000034610B1024A10608460184610BD00BF07
:105510008426022038B52B4B1B6813B1002420468B
:1055200038BD284849F05BFE044620B114F1030F52
:10553000F5D10024F3E7234B186849F07BFE02F015
:1055400053FE0446C0B110F1030F15D014B114F18D
:10555000030F01D1FFF722FC1A4B186849F0E3FE54
:10556000002CE3D014F1030FE0D0164D286849F069
:1055700058FE00232B60D9E707F00AFB044610B160
:1055800010F1030F1AD102F0CDFE044610B110F154
:10559000030F0ED108F0CEFB04460028D6D010F140
:1055A000030FD3D048F003FF49F0A7FA48F066FE96
:1055B000CCE749F0A2FA48F061FEC7E748F05EFE8A
:1055C000C4E700BF80260220134B186810B310B543
:1055D00049F030FE06E0186848F0EEF80F4B186806
:1055E000FFF774FF0D4B1B68002BF4D1FFF702FC93
:1055F00049F027FB48F0DBFE49F07FFA48F03EFE19
:10560000054C206849F08FFE206849F00AFE00230F
:10561000236010BD704700BF802602208426022030
:1056200070B504462C4B1868002851D00D4649F03F
:1056300001FEFFF75FFF0646002846D0002D36D05A
:10564000601E03283ED8DFE800F002111C272B78EB
:10565000012B02D06FF004042BE0284648F014FE22
:105660000446002C25DB3460756025E02B78022B86
:1056700002D06FF004041CE0284607F0A3FA0446A9
:10568000EFE72B78032B02D06FF0040411E02846DB
:1056900002F060FE0446E4E72B78042B02D06FF0A2
:1056A000040406E0284649F0ECFA0446D9E76FF016
:1056B00004043046FFF70AFF074B186849F033FE31
:1056C000204670BD6FF00404F3E76FF00504F3E7C4
:1056D0006FF00104F4E700BF8026022010B50446F5
:1056E0001B4B186888B349F0A5FD2046FFF7E2FE82
:1056F000034610B300685968FF280ED9A0F58073DF
:10570000FF2B0ED9A0F50073FF2B0ED9A0F5407327
:10571000FF2B0ED96FF0040411E048F010FE044690
:105720000DE007F0C1FA044609E002F0C5FE0446A8
:1057300005E049F033FB044601E06FF00404044B3C
:10574000186849F0F0FD204610BD6FF00104FAE73B
:105750008026022010B504461B4B186888B349F018
:1057600069FD2046FFF7A6FE034610B3006859689E
:10577000FF280ED9A0F58073FF2B0ED9A0F500737A
:10578000FF2B0ED9A0F54073FF2B0ED96FF0040448
:1057900011E048F0F2FD04460DE049F0CDF9044671
:1057A00009E002F03DFE044605E049F003FB044633
:1057B00001E06FF00404044B186849F0B4FD204682
:1057C00010BD6FF00104FAE7802602200246054B67
:1057D000186828B10369934202D0D0F8C800F8E7EE
:1057E000704700BF10290220024B1A68C0F8C82079
:1057F00018607047102902200A4B1B68002283B1F1
:10580000834203D01A46D3F8C830F8E722B1D3F860
:10581000C830C2F8C8307047D3F8C820014B1A60AE
:10582000704770471029022010B50C4649F0DDFA88
:10583000C4E90A01014849F005FB10BD60B105004B
:1058400010B50446C36F53B101231A4613B194F83F
:10585000303083B112B994F83030E3B910BDD0F8CC
:105860008C300BB10123F0E7D0F894300BB1012359
:10587000EBE70023E9E723460D4A0E492069FFF7CD
:10588000FBF923460C4A0D492069FFF7F5F901237E
:1058900084F83030E2E70749206947F014FB0749F4
:1058A000206947F010FB002384F83030D6E700BFB2
:1058B000C158000088B105007DD8040090B10500F2
:1058C0002DE9F0439FB005460E4647F069F9804642
:1058D000284647F065F907464FF0FF31304647F05C
:1058E00089FF041E0EDBA31D06EBC303C3F804806F
:1058F000FF221A72012F09D0BB1E012B33D91FB012
:10590000BDE8F0836B4849F09DFAF8E700271F7265
:10591000284647F045F904463B460E220EA9284684
:1059200047F04CF9284647F03BF9F36F002BE6D0DF
:1059300006A947F098FF05460DF111010EA847F0A2
:10594000E4FF054304A9204647F079FF55EA000328
:10595000D5D1F46FD6F88030009304AB3A46414677
:105960003068A047CBE700238DF80F30022F51D0CD
:1059700001238DF81030284647F012F90DF10F0180
:1059800047F04AFF07469DF80F308DF8123000238C
:1059900040220EA9284647F011F907430DF12601D0
:1059A0000EA847F0DDFF0743284647F0F9F80DF150
:1059B000360147F058FF0743002340220EA928462E
:1059C00047F0FCF807430DF113010EA847F0C8FF9C
:1059D0000743284647F0E4F809A947F044FF384355
:1059E000002850D09DF80F30012B50D9022B86D1C2
:1059F000063406EBC4042372D6F89440002C3FF41E
:105A00007EAFD6F89830009304AB00224146306850
:105A1000A04774E799468DF81030284647F0C0F843
:105A20000DF10F0147F0F8FE07469DF80F308DF895
:105A300012304B4640220EA9284647F0BFF80743D4
:105A40000DF11A010EA847F0C0FF0743284647F0A2
:105A5000A7F80DF11E0147F006FF07434B46402211
:105A60000EA9284647F0AAF807430DF113010EA826
:105A700047F0ABFF0743284647F092F806A947F0E6
:105A8000F2FE3843ACE70C4849F0DCF937E706345E
:105A900006EBC40401232372D6F88C40002C3FF49B
:105AA0002EAFD6F89030009304AB00224146306808
:105AB000A04724E798B10500C4B1050010B582B035
:105AC00004461C4B1B68ADF804301B0C8DF80630E7
:105AD00040F24C4049F075FA237A022B07D0012B93
