:020000040000FA
:10000000687B0520052B00006B780000652B000045
:10001000652B0000652B0000652B0000652B0000A0
:10002000000000000000000000000000792900002E
:10003000652B00000000000021290000697300000A
:10004000DD2A0000DD2A0000DD2A0000DD2A000094
:10005000DD2A0000DD2A0000DD2A0000DD2A000084
:10006000DD2A0000DD2A0000DD2A0000DD2A000074
:10007000DD2A0000DD2A0000DD2A0000DD2A000064
:10008000DD2A0000DD2A0000DD2A0000DD2A000054
:10009000DD2A0000DD2A0000DD2A0000DD2A000044
:1000A000DD2A0000DD2A0000DD2A0000DD2A000034
:1000B000DD2A0000DD2A0000DD2A0000DD2A000024
:1000C000DD2A0000DD2A0000DD2A0000DD2A000014
:1000D000DD2A0000DD2A0000DD2A0000DD2A000004
:1000E000DD2A0000DD2A0000DD2A0000DD2A0000F4
:1000F000DD2A0000DD2A0000DD2A0000DD2A0000E4
:10010000DD2A0000DD2A0000DD2A0000DD2A0000D3
:10011000DD2A0000DD2A0000DD2A0000DD2A0000C3
:10012000DD2A0000DD2A0000DD2A0000DD2A0000B3
:10013000DD2A0000DD2A0000DD2A0000DD2A0000A3
:10014000DD2A0000DD2A0000DD2A0000DD2A000093
:10015000DD2A000053B94AB9002908BF00281CBF96
:100160004FF0FF314FF0FF3000F070B9ADF1080CE7
:100170006DE904CE00F006F8DDF804E0DDE90223C5
:1001800004B070472DE9F047089E0D4604468A46A4
:10019000002B7FD18A42174641D9B2FA82F24AB186
:1001A000C2F1200105FA02F39740944020FA01F1D0
:1001B00041EA030A4FEA17484FEA144C1FFA87F93D
:1001C000BAFBF8FE08FB1EA30EFB09F14CEA034341
:1001D000994206D9FB1802D2994200F224810EF10D
:1001E000FF3E591AA3B2B1FBF8F008FB101100FB57
:1001F00009F943EA0144A14505D93C1902D2A145B8
:1002000000F20E810138A4EB090440EA0E400021FF
:100210001EB1D4400023C6E90043BDE8F08702B90F
:10022000FFDEB2FA82F2002A4FD1CB1B4FEA174E03
:100230001FFA87F80121250CB3FBFEFC0EFB1C30D6
:100240002B4608FB0CF945EA0045A9450AD97D195A
:100250002CBF01230023A94502D9002B00F0D9802F
:100260000CF1FF3CA5EB0905A3B2B5FBFEF00EFBBC
:10027000105508FB00F843EA0544A04505D93C1990
:1002800002D2A04500F2C9800138A4EB080440EA7C
:100290000C40BDE78B4208D9002E00F0B180002150
:1002A000C6E900050846BDE8F087B3FA83F10029E6
:1002B00046D1AB42C0F0A780824240F2A4800846FB
:1002C000002EAAD0C6E9004AA7E7C2F12000974055
:1002D00001FA02F34FEA174EC14024FA00F51FFA63
:1002E00087F894401D43B1FBFEF02B0C0EFB101160
:1002F00000FB08FC43EA01439C4509D9FB182CBFCD
:10030000012100219C4502D9002900F09580013887
:10031000A3EB0C03ADB2B3FBFEF10EFB113301FBFB
:1003200008FC45EA0345AC4505D97D1902D2AC4528
:1003300000F289800139A5EB0C0341EA00417AE71C
:10034000C1F120048B4002FA01F705FA01FCE240FA
:1003500020FA04F8E54000FA01FE134348EA0C02D3
:100360004FEA13484FEA124C1FFA83F9B5FBF8FA2B
:1003700008FB1A550AFB09F04CEA054C60450AD9FE
:1003800013EB0C0C2CBF01250025604501D9002D75
:1003900055D00AF1FF3AACEB000C92B2BCFBF8F07E
:1003A00008FB10CC00FB09F942EA0C4CE14505D9E9
:1003B00013EB0C0C01D2E1453BD8013840EA0A406E
:1003C000ACEB090CA0FB0789CC4545464A4602D355
:1003D00006D1C64504D20138B8EB070569EB030224
:1003E0002EB3BEEB05036CEB020C23FA01F20CFA00
:1003F00004F42CFA01F300211443C6E900430CE78E
:100400003146304609E7841A65EB030301209A461A
:1004100056E7ACF1020C3D4424E702383C4434E793
:1004200002383C44EFE6AEF1020E3B44D9E63146D9
:10043000F3E602389C44C1E702383B4468E7AAF17E
:10044000020A9C44A7E702393D4474E7704700BFA5
:100450007FB53B4B3B4AC2F80036C2F80436C2F8BF
:100460000836C2F80C36C2F81036C2F81436C2F894
:100470001836C2F81C3602F58052C2F80036C2F8AF
:100480000436C2F80836C2F80C36C2F81036C2F884
:100490001436C2F81836C2F81C3600F085F82A481F
:1004A00000F05AF800B9FEE7284805F0FFFA0446C4
:1004B00002698168136823F0200313600B684FF40E
:1004C000887205219847A36820465B6801A9984770
:1004D00038B9019B9B0604D401F0A2FD1C4802F030
:1004E00019F901A800F068FE1A4B1B68834200D07E
:1004F000FEE74FF48031002003F0DEFD00B1FEE79F
:1005000003F05CFE69469DF8080006F0E9FA009BDE
:10051000039C1C44019B1D8906F027FF661900F00F
:1005200053FE4FF02002EFF3118382F31188BFF3E3
:100530006F8F635983F3088873689847FEE700BF9D
:100540003546526E008001507EA4000091A4000048
:1005500018A00000BC22002010B5044C236813B979
:1005600005F0A4FA2060206810BD00BFB82200206A
:1005700003289ABF024B18566FF01500704700BF52
:1005800098A400001FB5074A03460C461068194698
:1005900001AA07F015FB18B9019B2360029B636059
:1005A00004B010BDB82200204FF4C051014804F03F
:1005B00085BD00BF42330120F0B51C46838885B05D
:1005C0003F2B1F4F02AD2DD10378022B2AD1C679C4
:1005D00046BB0A2001A901F0D9F800280ADB314600
:1005E0004FF48032019806F0DEFD0646019806F0D1
:1005F0008AFD06B102260A21204607F092F897E804
:10060000030085E803002946204607F069F83146D3
:10061000204607F05CF80A21204607F09DF80020EC
:1006200005B0F0BD0A21204607F07BF897E80300EB
:1006300085E803002946204607F052F80821E7E73D
:10064000D09F00002DE9F04FDFF8F891F9B038A8FD
:100650001746DDE984481D46DDF808B2D9F8006088
:1006600009F08EF8002138A804F038FECDF80C907F
:100670003CB1B8F1000F04DD4246214638A809F02C
:1006800083F84FF000097B89B7F808809844FB682D
:100690009844C8454BD80DA938A809F0B2F8869BF4
:1006A00023B1202218460DA907F046F900232A4657
:1006B000009339464FF6FF7307A806F02CFA04465C
:1006C000002840F0B58080464FF0FF37DFF8789182
:1006D0000DF1160305AA06A907A806F068FA041E7C
:1006E000C0F2A68040F09780BDF816A0BAF1100FB6
:1006F00034D1BDF81480B8F1200F40F09780434604
:100700002846069938AA06F0FFFC0446002840F067
:100710008F80424638A90DA806F094FA0446474B4C
:100720001B68834240F084804FF00108D0E7839A31
:10073000A8EB09039A4228BF1A4649461346924637
:1007400028465A4606F0E0FC0446002870D152467E
:10075000594638A809F018F8D1449AE7BAF1010FC0
:1007600036D1BDF81430202B60D82846069938AA17
:1007700006F0CAFC044600285AD19DF814A0BAF12C
:10078000200F03D94FF0FF342746A1E7D9F80030F6
:100790002B4F0293029B9C42F4DA1DA808F0F0FF55
:1007A00000211DA804F09AFD7B681DA81A6857F85F
:1007B000081B08F0E9FF15A91DA809F022F8524608
:1007C00038A915A807F091F80028DDD00134E1E739
:1007D000BAF1200F7FF47CAF002F19DBD9F800307D
:1007E000BB4215DDBDF81430B3F5807F1ED128461D
:1007F000069938AA06F088FC0446C8B9FFB25146EB
:10080000BDF81430009738AA0DA800F01FF806466E
:100810004FF0FF375CE7B8F1000F0DD0074B1B68B6
:10082000B34201D0039B1E68344601E04FF0FF3411
:10083000204679B0BDE8F08F0124F9E7BC22002002
:1008400024A000000020002020A000002DE9F04F8F
:1008500091460022ADF54B7D98466B4B07468A4684
:1008600027A811469DF850631D6808F045FF674BA7
:100870008AAA53F8364003EBC6035B6802941968F2
:1008800002A80C443023214607F025FC68BB029BDC
:100890008A9A13449C4228D1214629AA02A807F02B
:1008A0002EFC10BB0DF1B00B5A46214602A807F0F2
:1008B00026FC0646C8B929A808F00CF8029B289027
:1008C0009C4212D133463246CDE9006B29A927A8B4
:1008D00008F0CEFE48B927A804F09EFC28B929A844
:1008E00007F0F8FF804528900AD027A808F00FFFEE
:1008F00027A808F00CFF28460DF54B7DBDE8F08FCA
:10090000B8F5807F02D04FF0FF35F1E7BAF1200F44
:10091000F9D149468AAA27A804F0A2FC0446002877
:10092000F1D19DF82733BC2BEDD10DF5A478DF264E
:10093000454603900CA808F023FF00210CA804F002
:10094000CDFC20220DF207310CA808F01DFF042277
:1009500003A90CA808F018FF04A90CA808F051FF7F
:100960001F2ED4BFB1464FF020099DF80F304046EE
:1009700001334A4604A9A6EB09068DF80F3006F0AC
:10098000DBFF002EC844D5DC28462A46DF238AAE8A
:10099000117816F801CB013B81EA0C0102F8011B2A
:1009A000F6D12B7803F07F032B7010F8016B002E2B
:1009B000A9D10134BE2CF8D195F8BE30012BA2D1BB
:1009C0000CA808F0DDFE31460CA804F087FC0822D4
:1009D0000F490CA808F0D8FE394620220CA808F0D0
:1009E000D3FE20220DF207210CA808F0CDFE04A9A9
:1009F0000CA808F006FF20220DF2073104A806F02B
:100A000021F9054681E700BF0020002024A0000056
:100A10009FA400002DE9F047414B88B0054690F8AF
:100A2000B8000E461C6806F061F806A9C0B200F0D6
:100A3000ADFE002858D195F8B8703146384606F01A
:100A400055F84FF02C0807A9C0B208FB06F800F0D3
:100A50009DFE00284CD04FF0580A2C230AFB07F2C9
:100A600003FB06232B441B6913F0100951D13146B7
:100A700095F8B80000F0EAFB0446012812D14FF4C3
:100A8000807307FB0A820193264B48460093CDE909
:100A90000399069B95F8B810CDF808902A44FFF703
:100AA000D1FD044658237B432C2707FB06371E4BFA
:100AB000E9590698994205EB07020CD1D3681289CF
:100AC000D1438B4207D813448268934203D2174B19
:100AD0001B68A34205D0E6B10021826806F063FBE3
:100AE0003446069806F00FFB204608B0BDE8F087B4
:100AF000079806F090FB0446079806F004FB58237D
:100B000095F8B82002FB03832B445A1E03339A4204
:100B100001D10124E5E712F8011FA142F7D09AE7BD
:100B200000200020424B01203DB8F396BC2200205B
:100B30002DE9F84F884691469A460026DFF894B092
:100B4000224D234C0B9B9E4201D300200FE00B9BB8
:100B500040469F1BB7F5806F28BF4FF480671D4A42
:100B60003B4606EB0A0106F0CFFA10B10120BDE8C2
:100B7000F88F0A993B465A464846711806F0E0FA43
:100B80000028F3D1144BC5F800463E44C5F804468E
:100B9000C5F80846C5F80C46C5F81046C5F8144611
:100BA000C5F81846C5F81C46C3F80046C3F8044605
:100BB000C3F80846C3F80C46C3F81046C3F81446F9
:100BC000C3F81846C3F81C46BCE700BF00800150BC
:100BD0003546526E7C230020009001502DE9F04FE5
:100BE00004464FF000084FF0FF35B54B8946BC2254
:100BF000002195B01F6806F0AAFE84F8B88094F82A
:100C0000B860012E2DD9B8F1000F00F06A810023E1
:100C100058264FF02C0884F8B83094F8B800012812
:100C200000F25E81231893F8B05005F0FB05013DFA
:100C300018BF0125294605F059FF05A9C0B200F0EB
:100C4000A5FD002800F0DC800125059806F05BFA80
:100C5000002D40F03F8194F8B830013384F8B8306B
:100C6000DBE7582505FB0643964A002102EB863256
:100C70005A62954A304602EB86321A6505F036FF15
:100C800094F8B810C0B205FB0141203100F07EFDA0
:100C90000121304605F02AFF94F8B810C0B205FBD8
:100CA00001414C3100F072FD0546204606F03CF84B
:100CB00028BB00222046114606F007F80646B8B9C0
:100CC000204606F08EF898B10AA806F058F80AA84F
:100CD00006F05EF888BB94F8B82022B123460121C3
:100CE00022449A4221D1002120460AAA05F0EDFFB4
:100CF000012294F8B830234483F8B02007E00122A1
:100D000094F8B8309042234483F8B020D1D194F8BD
:100D1000B830E21892F8B0200133023A022A98BFA4
:100D20004FF0010884F8B83069E793F8B000013358
:100D3000042808BF83F8AF10D3E79DF82F30012BAC
:100D40004CD1582394F8B800604903FB0043DB6C96
:100D50005B681A6803938A4209BF1A89B24602EB9C
:100D6000030ADAF8046003F08FFA811E0229834631
:100D70000CD801212046FFF74DFE5549039B096819
:100D800088421FD0012826D14FF0010B94F8B830CB
:100D9000234483F8B0B094F8B820002AB7D0224496
:100DA00092F8B030012BB2D0042BB0D023460121F1
:100DB0009A42ACD093F8B0000133042808BF83F8FE
:100DC000AF10F5E7B6F1807FE0D95046D96803F05F
:100DD000C3F90028D8D04FF0050BD7E701212046F2
:100DE000FFF718FE3A4B1B68984218BF052294F88B
:100DF000B83008BF9DF82F20234483F8B020CAE7FD
:100E0000012308FB05F594F8B810009301FB065187
:100E10004023059A21440EA805F07DFE05460028D2
:100E20007FF413AF00230DF1120206A90EA805F0FE
:100E3000BEFE002855DB05987FF407AFBDF81230E1
:100E40000C2B39D1069907AA06F05EF900287FF429
:100E5000FBAE9DF81C20012A30D8A31893F8B030BF
:100E60007243023B022B8CBF0023012308FB0323A8
:100E70002344197D9DF820209142D3D80AD3597D6F
:100E80009DF821209142CDD804D3DA8ABDF82230D2
:100E90009A42C7D294F8B830234493F8B020012A7C
:100EA00008D0023A012A02D8012283F8B0204FF07C
:100EB000FF35CAE60422F8E70325C6E60725C4E69F
:100EC000002000207C2700207CA700203DB8F3965E
:100ED000BC220020032D04BF40F20113A4F8B0305F
:100EE000002500234FF0580884F8B8300AA805F010
:100EF00046FF94F8B800221892F8B030042B8DF811
:100F00002F3007D8012B07D800F0AF80FF2382F8DD
:100F1000B030AAE0052BF7E708FB00431946DA6C6E
:100F20002C3105F0A2FF0128054640F09E800146C5
:100F300094F8B80005F0DAFD07A9C0B200F026FC6D
:100F4000002800F09A800025079806F0DCF894F855
:100F5000B860002E00F0CB80012E0CBF0120FF20D6
:100F600007A900F013FC002E00F0C380012E0CBF77
:100F70000820FF200026B2460EA900F007FC94F8D6
:100F8000B83008FB0343D3F828B0D34517D094F802
:100F9000B830314608FB03435B6A079803EBCA038A
:100FA0005A68039206F0FFF8039A1644AE42C0F066
:100FB000A280D4F8B460B5FBF6F506FB0566D4F85C
:100FC000B40005F041FE94F8B82008FB0242536AD1
:100FD000926A1968013A03EBC20300225D689C46DD
:100FE0002A449042A3F10803F8D8DCF800300798AF
:100FF000591A06F0D8F800232046079A0E99019650
:101000000093FFF795FD054678BB079803F0DEF8DF
:10101000054650BB94F8B800324608FB0043196AF5
:1010200005F031FF054600BB94F8B830014608FBD7
:1010300003431B6D0E985A6806F0B5F894F8B83063
:1010400008FB0343D3E91423013B52F8331002EBAE
:10105000C30013684268C91A0E9806F0A4F80798EE
:1010600006F051F80E9806F04EF894F8B830E218F1
:1010700092F8B020FF2A41D1FEE794F8B8300798E3
:1010800008FB03439D8E9B6B0EAA05EB030A51469A
:10109000042306F039F800287FF455AF94F8B830EF
:1010A000BDF8382008FB0343DD8E46F608139A424C
:1010B0001AD1BDF83A309D427FF445AF042307981A
:1010C0000EAA05EB0A0106F01FF800287FF43BAFDB
:1010D00046F60713BDF838209A427FF434AFBDF8C6
:1010E0003A60354455442FE7002DF1D02BE704201A
:1010F00036E702203EE70AF1010A46E70133DBB298
:10110000012B84F8B8307FF6F1AE0023294E84F825
:10111000B83094F8B830012B29D9102200210AA840
:1011200006F015FC236A5A7889F804205B68C9F830
:101130000040C9F808301F4B1F680023582684F868
:10114000B83094F8B830012B2DD806FB0343D86C87
:1011500005F0D9FF94F8B83006FB0343186A05F090
:10116000D2FF94F8B830013384F8B830E9E723446B
:1011700093F8B030012B07D0002120460AAA05F0D1
:10118000A4FD05460028D8D100212046FFF742FCE7
:10119000074633688342D0D194F8B8300025013334
:1011A00084F8B830B5E7002D14BF2846384615B08E
:1011B000BDE8F08FBC22002008B501460148FFF7CA
:1011C0000DFD08BDC02200200122124B12491A60F9
:1011D0004FF0FF33C1F84833C1F8083301F58051AF
:1011E0004A60043100210D4AC2F84833C2F808337E
:1011F000A2F55042C2F80015C2F8083302F5805239
:10120000C2F80015C2F808334FF05022C2F8083374
:10121000704700BF04400150004001500050015091
:1012200001280FD179B9084B084613604FF40073B9
:1012300013814FF45E33C2E90511C2E903315160F5
:10124000D1617047012070473DB8F396012803D162
:1012500019B9024B1868704701207047BC22002062
:1012600013B50446104804F021FCB0B1002001A9D8
:1012700002F062FC0D4B02689A4211D10389C168E9
:1012800018444368B3F1807F0AD91CB102F064FFAF
:1012900002B010BD02F040FFFAE76FF01200F7E76E
:1012A0006FF03C00F4E700BFB5A500003DB8F39631
:1012B0002DE9F0430546079810B91060BDE8F083AA
:1012C0000324B0FBF4F404EB4407B84218BF013424
:1012D000B4F1804F05D34FF0FF3313606FF00B0074
:1012E000ECE7A40001348C4200D80DB91460F5E796
:1012F0002E460024DFF8B4E0BC4231469C4606F19D
:10130000040603F1030329D3844222D20134844228
:1013100028BF00239CF80060244F38BF9CF80130A0
:101320004FEAA60C17F80CC0844281F800C007EB06
:10133000131C2FBF3D239B0003F03C03FB5C3601D5
:101340008B703D2306F030061CF80660CB704E70A3
:10135000043100204D1B15600870AFE713F803CC73
:1013600013F8021C4FEAAC091EF809904FEA0C1C56
:1013700013F8018C0CF0300C06F8049C0EEB1119DC
:1013800019F80CC0890006F803CC01F03C010EEB03
:10139000981C1CF8011008F03F0806F8021C1EF803
:1013A0000810033406F8011CA6E700BF57A600008A
:1013B0004FF0000C2DE9F043074665466046079E56
:1013C000DFF82081B5420AD32E4604E00135AE4253
:1013D0000EF1010E05D1A8BB1060BDE8F0834FF0FF
:1013E000000E5C5D202CF1D0AE42F4D0A6EB0509D6
:1013F000B9F1010F15D90D2C13D103EB050999F89B
:101400000190B9F10A0F1BD0BEF1000F06D13D2C9F
:1014100009D10CF1010CBCF1020F07D96FF01500D6
:10142000DBE70A2CEFE714F0800FF7D118F804403F
:101430007F2CF3D03F2C02D8BCF1000FEED101304D
:101440000135BFE7062500F007046C4304F1070EE1
:10145000C4086C43A4EB0C0404EBDE0487B18C429B
:101460000ED80025394603242846DFF878E0DFF857
:1014700078801E449E4207D1C91B00201160ACE752
:101480006FF00B001460A8E713F8019BA9F10A0C98
:101490005FFA8CFCBCF1160F04D828FA0CFC1CF087
:1014A000010FE7D11EF809C00130BCF1400F08BFA1
:1014B000013C0CF03F0C04284CEA8515DAD17CB1D4
:1014C000280C012C087002D101310020D2E7022C37
:1014D0004FEA1520487016BF8D7002310331F4E7D2
:1014E0002046C7E7D7A50000090040002DE9F84FC6
:1014F000B0F81890044619F0080893460DD0012959
:101500000CBF49F0100949F02009A0F818908BF39E
:101510001188BFF36F8FBDE8F88F09F00709022922
:1015200007D1204605F007FD0028F0D00128238BC5
:1015300050D16769218B002F15DA256821F007014A
:10154000C4E9008841F0010121830026218B01F0CC
:10155000070ACA4502D0A368002B5CD10DB9002E42
:1015600074D0002358E001F007035A1F012A20D845
:1015700021F00701062B256889B2C4E900880CD147
:10158000002D2B4638BF00232BB1628B1B68013224
:101590006283002BF8D141F002012046218305F03F
:1015A000CAFC06460028D1D0238B43F020032383B6
:1015B000CBE7042B0CD121F0070189B2204621830F
:1015C00005F0B9FC05460028BFD041F02001218379
:1015D0000025BAE7032809D1226923F0070316681A
:1015E00043F00603002523832F46AFE7042806D1E6
:1015F000226923F00703566843F00403F2E7052845
:1016000006D1226923F00703966843F00503E9E752
:1016100000252E46E8E7012341F0080121838BF3E2
:101620001188BFF36F8F03BB002D33D116B1204655
:101630002049B0474FF02003EFF3118B83F311885B
:10164000BFF36F8F238B23F008032383238BDA06EA
:1016500028D5012123F010032383B4F8189009F052
:10166000070900297FF45BAF51E7A1680029DBD0AF
:101670000B68002B38BF0023994652463B46204654
:10168000D1F804B0D847B9F1000FCDD04946D9F808
:101690000030EEE729463B46524620462D6805F0CD
:1016A00066FCC1E713F020011EBF23F020030221D6
:1016B0002383D2E79B6F0000094B0A4900F01F0209
:1016C0004009012808BF0B4603EB8203D3F8002230
:1016D00022F0E04242F04052C3F80022704700BFBF
:1016E000002584500028845070B54FF02003EFF39C
:1016F000118683F31188BFF36F8F01240C4B0D4DBE
:10170000C3F8004502230020C5F8D036FFF7D4FF08
:101710002046FFF7D1FFC5F80447C5F80449C5F8CE
:10172000004B86F31188BFF36F8F002070BD00BFA0
:10173000001000500040005048B1054B1A68054B9E
:10174000B2FBF3F2044B504343F0010318477047D8
:10175000F420002040420F0010A00000094B30B5DB
:101760001D68094B02461C6800239D4201DC0020D5
:1017700030BD1901615C04EB03109142F8D00133D4
:10178000F3E700BF30A1000004200020084B10B593
:101790001B680C462BB1FFF7E1FF28B12060002049
:1017A00010BD6FF00C00FBE76FF00100F8E700BF21
:1017B0000420002030B589B00C4615460190FFF793
:1017C000CDFFB8B14368226802938368C068CDE951
:1017D00003350023CDE90623059305F074FC60B1C1
:1017E000074901AA06F0F0F9079808B9059B23609C
:1017F00009B030BD6FF01500FAE76FF01200F7E79F
:10180000CB7000000E4A70B5841A05460C20A31058
:101810000C4C0E465C43E4B200FB042040217830BF
:1018200005F00BFD011E05DB074B03EBC4046368E9
:101830009847002128463346BDE87040184700BF4E
:1018400090270120B76DDBB644A000002DE9F041E0
:101850000C25104E8046841BA3100F4C0F465C4392
:10186000E4B2654305F178004021304405F0FEFC08
:10187000011E09DB094A7319C3E91C27084B53F8F9
:101880003430BDE8F041184740463B46BDE8F041E2
:10189000184700BF90270120B76DDBB6CF7200005C
:1018A00044A000002DE9F84300220121064605204E
:1018B00001F090F8052001F06FF8114802F0F8FDF2
:1018C000104B984219D106F086FB00244FF01C08FB
:1018D0000C27DFF834903569494608FB045005F0C1
:1018E00079FB002807DB012307FB04551C44042C6B
:1018F000AB67F0D10020BDE8F8836FF00400FAE791
:10190000411900000000AD0B64A0000001460C234B
:1019100000224B43084870B5C4187833D4E91C56EC
:101920001844226705F0C0FC2DB132462B46BDE8B5
:1019300070400248184770BD90270120549C000059
:10194000052811D8DFE800F0030E10100C0A074B31
:10195000986F10F0070007D1FFF7D8BF0220FBE710
:101960000320F9E70120F7E7704700BF9027012027
:1019700008B54FF02003EFF3118183F31188BFF313
:101980006F8F124A136843F0020013F001031060D6
:101990000CD04FF05022D2F80C34D2F80C2413F0B3
:1019A000010303D00A4805F07FFC012381F311886D
:1019B000BFF36F8F23B1BDE808400020FFF7A6BF3B
:1019C0000120BDE8084002F083BD00BF302801209F
:1019D00008280120074BD3E8EF2F22F00201C3E8CB
:1019E000E01F0028F7D1D30702D4012002F0C4BDC4
:1019F000704700BF302801201FB500220123CDE928
:101A000002236B46084ACDF800D0CDF804D005F08B
:101A100090FC002805DB4FF480420023684604F068
:101A2000DFFA05B05DF804FB057300002DE9F8430B
:101A3000012206463949D1E8EF3FC1E8E02F0028EE
:101A4000F9D133B9364937484B60CB608A6005F02D
:101A5000D4FA731E012B32D8012E07D14FF0502338
:101A6000D3F81C3403F00303022B28D007F0C1FF86
:101A7000044618B92C4B1B78002B47D14FF020039C
:101A8000EFF3118583F31188BFF36F8F0124274F84
:101A9000DFF89C80DFF89C904FF05022D2F8183489
:101AA000D2F81824D2030CD503F00303022B01D083
:101AB000012E06D124B385F31188BFF36F8FBDE8E3
:101AC000F883C4B1284600F0DFFF4FF05022D2F86F
:101AD0001835DBB2012BDFD139680029DCD00021B9
:101AE000396039680221C2F818152022C8F880210F
:101AF000C9F80030D0E70021212004F0ABFCE4E776
:101B00004FF050230222C3F80423D8E74FF05023AC
:101B100002220546C3F80823B9E700BF3428012094
:101B200080270120AC270120A65105200451005038
:101B300000E100E008500050044A1368C81A20F081
:101B40007F400344136004F0DBBD00BF4828012040
:101B50002DE9F0474FF480374FF00009860000F17F
:101B6000500406F15026A40006F58036A4B204F114
:101B70005024D6F84035DFF86C8021F07F4504F51D
:101B800080348740D8F804A5A3EB0A0323F07F43F1
:101B90002AF07F42012BC6F8402502D1132008F01D
:101BA00010F80AF10202AB1A23F07F43B3F5000FDD
:101BB00088BF1546C4F80090236825F07F43C8F815
:101BC0004473C6F84035D8F804359A4506D0EB1A68
:101BD000023B23F07F43B3F5000F01D8BDE8F08747
:101BE0002B46CFE700500150F8B50026134C144F98
:101BF00000202568134B06B1F8BDD3F80423D203A7
:101C0000FAD53A68002AF7D03E603A684FF480323D
:101C1000C3F84823D3F84015D3F804250126531AF6
:101C200023F07F43B3F5000F88BF11461DB16268F2
:101C30002060A847DCE72560DEE700BF3C280120E4
:101C4000405101500050015038B500244FF480330A
:101C50004FF400120D4D0121C5F80845C5F80433B5
:101C60000B4B1520C3F88021224600F0B3FE15204F
:101C700000F092FE0123074A20461360064A2B60BB
:101C80001360FFF7D3FE204638BD00BF005001505F
:101C900000E100E00850015044280120134BB0F14E
:101CA000FF3F08BF1846013800281CDD9842A8BF36
:101CB00018460F4BD3F804250E4B1968521A12F42C
:101CC000000F18BF002022F07F4301330A4A03446B
:101CD0000A48106000205060044A934294BFC9181B
:101CE0008918FFF735BF0020E3E700BFFFFF7F0043
:101CF00000500150482801203C280120391B0000D9
:101D0000044BD3F80405044B1B68C01A20F07F4035
:101D1000704700BF0050015048280120014804F0DE
:101D2000BDBD00BF34A1000008B508B34368042B53
:101D300007D0082B13D0F3B1006804F0EBF80020B3
:101D40000CE000220368D3E8EF1F012903D1C3E8A8
:101D5000E02F0028F7D1094808BF104608BD0368E6
:101D600000201B78064A03F5807342F82300F5E74C
:101D70006FF4E040F2E70348F0E700BFE98FFFFFB0
:101D800000000350EA8FFFFF10B5044618B90D4B51
:101D90000D485B689847616808290DD031F004034D
:101DA0000AD011F0020108D02146084807F0F8FDDA
:101DB000002323600023636010BD1422206805F017
:101DC000C6FDF7E710210020AFA600004C28012037
:101DD00010B5044618B9164B16485B6898476368F7
:101DE000042B23D0082B21D0CBB92368BBB94FF0EB
:101DF000FF324FF0FF3321460F4803F04FFF08B981
:101E000023681BB90A4B0D485B68984714220021D0
:101E1000206805F09CFD636843F00203636020685E
:101E200007F0F9FD636843F00103636010BD00BF74
:101E300010210020AFA600004C280120D5A60000EC
:101E400008B540B34368042B0BD0082B16D003B35E
:101E500000684FF0FF324FF0FF3303F0DDFF58B161
:101E600015E001220368D3E8EF1F002903D1C3E87E
:101E7000E02F0028F7D10AD1002008BD0368074AE7
:101E80001B7803F5807352F82330002BF4D00448FC
:101E9000F3E70448F1E76FF4E040EEE70000035099
:101EA000E98FFFFFEA8FFFFF08B5064940231422A0
:101EB000054807F05AFDBDE808400449044804F00D
:101EC0004BBD00BF682801204C2801204CA1000018
:101ED0003CA10000F7B5244D286883685B6C03B112
:101EE0009847286883685B6B002B35D11F4C204EC8
:101EF000286883689B69002B31D001220DF107010E
:101F0000984701282BD1236843B933683BB37168E4
:101F10001A688B42326000D17260236015499DF8C7
:101F200007700A880846B2F5007F06D2236802F1DE
:101F3000010C1344A1F800C01F720A2FD8D12368E6
:101F400002880D495A6000221A604E684EB9C1E9F4
:101F5000003302802260CAE798470028C6D103B048
:101F6000F0BD33604B60F4E790310120702D01200B
:101F7000682D01204033012088310120044B10B529
:101F8000044618688368E1B25B689847204610BD34
:101F900090310120F8B506460B4615464FF0200259
:101FA000EFF3118C82F31188BFF36F8F194C216806
:101FB00049B1194A5068884205D00020086050682D
:101FC00098B9C2E90011154A116829B15768086823
:101FD000B942106008BF50608CF31188BFF36F8F57
:101FE000216029B900202860F8BD01605160EAE74E
:101FF00048680831F6D05C1E8442A8BF04463046CB
:10200000224605F099FC0023335501232B60E0188C
:10201000EAE700BF742D0120682D012088310120DE
:1020200037B500241C4B1D4AC3E900441C4B03F583
:1020300002711360C3F8084219605160194803F037
:1020400035FD194D286018B3836823B19B6C13B11B
:10205000224616499847286883685B6B5BB19847AE
:1020600048B90024124B28681C8083689B6A63B9B6
:10207000184603B030BD286883689B69002BF0D0F8
:1020800001220DF107019847EAE798472046F0E75B
:102090004FF0FF30EDE700BF88310120682D0120AF
:1020A000782D012002A7000090310120D51E0000EC
:1020B0004033012040F606132DE9F041DFF810818E
:1020C000ADF51C7DD8F80000ADF808303C4B3D4F15
:1020D0001C680378E41B0133037000238188C4F378
:1020E000072242EA042242800A0242EA1122437095
:1020F00082800821009341F2210204F0D1FE0122E6
:1021000003462146ADF80C000092384641F2210208
:1021100004F0C6FE02252C4E40BA3368ADF80C0020
:10212000022102A85B68984704F10A035BBA0DF12B
:102130000E01022205A8ADF80E3005F0FDFBD8F81F
:10214000001008220DF11600ADF80E5005F0F4FB5A
:10215000BDF80E0005AB083080B222463946ADF816
:102160000E00184405F0E8FBBDF80E0005AB204456
:1021700080B22A46ADF80E0003A9184405F0DCFB36
:10218000BDF80E3004AA2B449BB2ADF80E3000937C
:1021900040F2591105AB45A8FFF78AF80499336856
:1021A000ADF80E1045A85B6889B298473368294698
:1021B0005B68064898470DF51C7DBDE8F08100BFBF
:1021C00028200020424C01209431012027A7000044
:1021D0009831012013B50D4C0A21204605F0A1FAD3
:1021E0006B460B4A92E8030083E803001946204639
:1021F00005F076FA0021204605F069FA0A2120460A
:1022000005F0AAFAFFF756FF02B010BD2820002003
:10221000D89F00002DE9FF410C681B4F02380D4686
:10222000C4F500710090194B381903AA0131FFF76A
:10223000BFF8044628BB2B68039A1344022B2B607B
:102240001BD93988023B0E0246EA1126B6B29E42DD
:1022500013D14FF00108034641F221023146CDF877
:102260000080B81C04F01CFE38B9022E05D92B687A
:10227000023B1F442B60BC704446204604B0BDE8BE
:10228000F0814FF0FF34F8E7424D0120454F012027
:102290002DE9F04F0729ADB040F25B81057815F0CC
:1022A000FD0540F056814288A1F10806130243EA79
:1022B00012239BB2B342C0F04C81B34BB34F1860B2
:1022C000838800F1080C190241EA1321B04B89B24E
:1022D0003B60012903F580738180FB6040F0FA8147
:1022E000C4792CB1012C00F0C280FFF773FF30E1FC
:1022F000384605F016FAA74B0AA90A930623384672
:102300000B9305F0EDF90521384605F0FEF9DFF8ED
:10231000A882DFF8A89200279C4D00E001273946EB
:10232000204604F0E3FB09A9C0B2FFF72FFA0646E6
:10233000002875D13946204614AAFEF771FF0128FE
:1023400005D120233146099814AA04F0DDFE149B20
:1023500043456BD0904B1E68099804F0D4FED9F821
:102360000030B3425CD11421284605F0DAF98B4BDA
:102370000CA90C93052328460D9305F0B1F92146CD
:10238000284605F0A4F9864B0EA90E93042328468F
:102390000F9305F0A5F93946284605F098F9814BC9
:1023A0000DF1700A1093072310A92846119305F028
:1023B00097F99DF86410504604F0E9FF4FF02E0B9A
:1023C0002CAB461C18449DF8651000F840BC0AEB85
:1023D000060004F0DCFF2CAB3044461C1844BDF86A
:1023E000661000F840BC0AEB060004F0D0FF2CABEE
:1023F0000644334401361A9903F840BC0AEB060040
:1024000004F0C5FF5046CDF848A005F05BFA12A9CC
:102410001390284605F064F91421284605F09CF92C
:10242000002F3FF47BAFBCB93C4674E739462046E9
:10243000FEF70CFF064601288ED1402300210193B0
:102440001CAB00930846CDE90311099B029114AA25
:10245000FEF7F8F806467FE705214C4805F079F9C4
:1024600021464A4805F078F9FFF724FE71E031462D
:1024700060460EAB1CAA0C9500F02AFA10B94FF07A
:1024800003083DE00E9B9E42F9D14FF0FF384FF01C
:10249000FF392E46AA462C4642464B462F46DDF8CB
:1024A000ACC01CA9664557D1591C08BFB2F1FF3F0B
:1024B000CDE90623E3D0002FE1D05046FEF758F8CF
:1024C0000CA9C0B2FFF762F90028D8D1DDE90623D4
:1024D00052EA0301344E0AD10C9930608868002119
:1024E000404571EB0901CADB3049C1F80080002189
:1024F000D6F800C0994208BF944561D04FF000085B
:102500000A21224805F00DF9294B14A9149302233E
:102510001E48159305F0E4F841461C4805F0D7F82D
:10252000B8F1000F0CD1234B12A9129303231748C3
:10253000139305F0D5F81C4B1448196805F0C7F83B
:102540000A21124805F008F9FFF7B4FD0C9804F0D1
:10255000DAFD2DB0BDE8F08F087A032805D8DFE852
:1025600000F002070A0FD1F800A001360C3199E7FC
:10257000D1E90074F9E7086880464FEAE079F4E7AA
:102580000A68D317F1E700BF983101202820002006
:10259000424C012009A700000020002010A70000E5
:1025A00016A700001BA700009C310120AC310120C0
:1025B0009CA4000023A700003DB8F396BC22002095
:1025C000524BA4441A68994694453FF658AF0C986C
:1025D00004F018FEB4FBF0F303FB10433068D9F8A5
:1025E00000200119914238BFE41A10A9204428BFE5
:1025F000DDB2FDF7C7FF8046002881D1444B10991A
:102600001A689B46914205D1316865B923463A461E
:102610000C9830E0119A0C98196004F0C4FD8046C3
:102620000028F1D06CE7B4EB05082AD043463A46BF
:102630000C9804F085FD00287FF421AF2C46336808
:102640004744434433602A46394614A805F074F9D8
:102650000C9804F0E0FD14AB0146C5F108025819CE
:1026600005F075F90C9D3768284604F0CBFD394616
:102670000346284614AA04F063FD00287FF4FFAE49
:1026800001E0002CDFD133681C44D9F800303460FD
:102690009C427FF433AF0C9804F0DBFA10A9FDF7ED
:1026A00071FF804600287FF42BAF1099DBF80030D3
:1026B000994207DC5046D9F800200C9904F0E9FB58
:1026C00080461DE7119A0C9804F06DFD80460028A5
:1026D000F0D015E789B9C379012B3FF406AE052B7D
:1026E0007FF437AFFFF776FD00214FF4005003F081
:1026F000B1FE012004F0D4FC2BE73B463246614694
:10270000FDF75AFF00287FF424AFADE6AC3101207D
:102710003C2000202DE9F3411B4F002405463E4696
:102720001A4BDFF86C8000941860C4F500712B68B8
:1027300001AA0131381998470028019B01DC002BC0
:10274000F3D004442BB940F201239C42EDD1002484
:10275000EBE73378062B09D17378092B0BD10023D3
:1027600000936946A01EFFF755FD04E0042B02D13B
:102770007378142BF5D00128E9D10099404602392D
:10278000FFF786FDE3E700BF434F012094310120AE
:10279000444D012030B585B005460C4604F0DCFE02
:1027A00020B9002404F0010005B030BD0C2304F171
:1027B0003C02CDE9014305210120054B009504F0C1
:1027C000DBFE0446284604F0D5FE0028E9D0E9E700
:1027D000D527000073B504460E4604F0FBFF0546FE
:1027E00038B3364B6946009305232046019304F025
:1027F000B0FE38B13146204604F062FE10B100232D
:10280000337240E0204604F0E8FFA8B12C4B694643
:10281000009304232046019304F09BFE60B13146EF
:10282000204604F093FE38B101253572204604F0AD
:10283000D8FF284602B070BD204604F0CEFF78B124
:10284000204B6946009303232046019304F081FE48
:1028500030B13146204604F033FE08B10223CFE701
:10286000204604F0BAFF80B10325174B6946204685
:102870000093019504F06DFE38B13146204604F016
:102880001FFE10B135720125D0E7204604F0A5FFE8
:1028900008B90025CAE70D4B69460093032320467B
:1028A000019304F056FE0028F3D03146204604F090
:1028B0004DFE0028EDD00423A2E700BF10A70000C2
:1028C0002AA700002FA7000023A7000033A70000BD
:1028D0001FB54FF0020C0124CDE9014C024C0094CD
:1028E00004F083FF04B010BD95270000094A0A498F
:1028F000936809681867596708494B6843F0805323
:102900004B60002383F31188BFF36F8F9368586F78
:10291000704700BFFC320120D8A3000000ED00E0AA
:1029200013498A684FF030001044EFF3098C80E8B7
:10293000F01F202080F31188BFF36F8F0D4F4FF0F1
:102940000066CA698A603E60106F0023136780F3D7
:10295000118802F1300090E8F01F8CF3098802F131
:10296000000004B504F077FFBDE8044070470000A4
:10297000FC32012004ED00E01EF0040F0CBFEFF369
:102980000880EFF30980816911F8021C0229FFD049
:1029900001B504F066FF01BD43B2002B08DB012244
:1029A00000F01F0002FA00F0024A5B0942F823001F
:1029B000704700BF00E100E0054B420953F82220B8
:1029C000012300F01F0003FA00F01040704700BF21
:1029D00000E100E043B2002B01F10101ACBF03F1C3
:1029E0006043064B4FEA4111C9B2ABBF03F56143E7
:1029F00000F00F0083F800131954704714ED00E045
:102A000042F8203C009B0B4942F81C3C019B21F002
:102A1000010142F8183C029B42F8081C42F8143CA1
:102A20004FF0807342F8043C0023203A02650367AC
:102A3000704700BF8D700000084B9860036E83F3F1
:102A40000B88104681F30988002163B681F3118851
:102A5000BFF36F8F0022002304F018FBFC3201202B
:102A6000014910220A60704710ED00E072B6404044
:102A700080F31188BFF36F8FBFF34F8F30BF62B603
:102A8000BFF36F8F704700BF72B6494081F3118862
:102A900020BF80F3118862B6704700BF30BFFFF7D8
:102AA000FDBF00BF0B4A08B50B4B22F07F029A60B6
:102AB000BFF34F8FBFF36F8FD3F8882022F47002DB
:102AC000C3F8882003F01EF803F036FD00F07EF90D
:102AD00003F03CF80000000000ED00E001B5EFF36A
:102AE0000580A0F110004FEAC0000449014409C963
:102AF0009847BDE80140024908470000449D000096
:102B0000212D0000002080F31488BFF36F8F002078
:102B100080F30A8880F30B8807F05AF800200E49EA
:102B20000860BFF34F8F0D4880F3088800F028F944
:102B3000202080F311880A484FF40061401880F388
:102B40000988EFF314800221084380F31488BFF34F
:102B50006F8FFFF7A7FF000094ED00E0687B052072
:102B6000A87C0520EFF30880EFF3098101B57246D8
:102B700000F056F801BD00BF0E4B9A6A9A6A9A6A35
:102B8000920708D55A6B9A6A120604D518B19A6A48
:102B900022F080029A620020064B9A6A9A6A9A6A28
:102BA000D20658BF9A6A9A6A42F0FF029A62087087
:102BB000704700BF00ED00E00D4B9A6A9A6A9A6A6E
:102BC000920507D59A6A120404D518B19A6A22F4BC
:102BD00000429A620020064B9A6A9A6AD20558BF50
:102BE0009A6A9A6A42F47F429A620870704700BFFC
:102BF00000ED00E0094B9A6A9A6A986A9A6A9A6AA2
:102C00009A6A9A6A9A6A10F480106FEA02426FEA2E
:102C1000124218BF02209A62704700BF00ED00E028
:102C200070B5364B0E465B6800258AB0C3F30803C7
:102C300085F31188BFF36F8F02F07F41B1F17F4FB1
:102C400011D102F00C0108290DD0110701D406465C
:102C500001250022033B8DF80720032B47D8DFE82E
:102C600003F0043E423B2E46F3E7244BDA6A920718
:102C70003DD4DC6A14F0804408D028331B78EBB1D3
:102C800001200DF10701FFF777FF04469DF807309B
:102C900093B92022314602A804F04EFE099B45B3A9
:102CA000C3F3080222B96FEA53236FEA432309935F
:102CB000204602A904F0D3FD0AB070BD104B1B786A
:102CC0002BB101200DF10701FFF776FFDDE70D4B7A
:102CD000188884B2002CD9D0FFF78CFFD5E70020EC
:102CE0000DF10701CFE700200DF10701ECE700240B
:102CF000CCE723F4FF7323F00103D8E700ED00E0F5
:102D000029ED00E02AED00E0044B5A6942F0100280
:102D10005A615A6942F480625A61704700ED00E0DE
:102D2000044B9968D869884203D003494FF0805218
:102D30000A607047FC32012004ED00E0BFF34F8FC2
:102D40000549064BCA6802F4E0621343CB60BFF347
:102D50004F8F00BFFDE700BF00ED00E00400FA0563
:102D600000231846054A1168C1F307218B4200D1A0
:102D70007047936010610133F8E700BF90ED00E009
:102D800010B572B6002484F31388FFF7E9FF0E4AEA
:102D9000234611464FF0FF3403F120000133102B7E
:102DA00042F82040F8D100234FF0FF3003F16002D9
:102DB0000133102B41F82200F8D162B6BFF34F8FD8
:102DC000BFF36F8F10BD00BF00E100E000232021A2
:102DD0000348C2180133452B82F80013F9D170471C
:102DE00000E100E0064B9B68834207D1EFF30583C7
:102DF00023B1044A536843F08053536003F04ABB45
:102E0000FC32012000ED00E01FB5094C094A2346C1
:102E10000121094800F0DCF800230393074B01214E
:102E2000E41A01A80193029400F0DCF804B010BD8C
:102E3000000007200020002060A10000C021002029
:102E400010B50B680C7A23F01F0204F01F031A431D
:102E5000CB68640923F01F03044943EA440343F0A9
:102E600001038860CA600B6110BD00BF90ED00E0F7
:102E70002DE9F04F8846144606464FF000094A4DAA
:102E800085B0C14505DA7768BFB31F2F05D86FF04D
:102E90001504204605B0BDE8F08FFB06F7D1D6F843
:102EA00000A01AF01F0FF2D1504604F0E5FC834653
:102EB00007EB0A00013804F0DFFC8345E7D11BF182
:102EC000160FE4D0631E5B45E1DBC5F808B0E96886
:102ED000C5F808B02F6921F01F01D6E900321A4465
:102EE000994247F01F0702F1FF3A1CD1574508D11C
:102EF00031465FFA8BF004F0C8FC09F101090C3689
:102F0000BFE73146C5F808B0EB6822F01F0203F0B6
:102F10001F031A43EA60E0B204F0B7FC10F1160F89
:102F2000B5D0441CE9E7013B5745E0B223F01F034D
:102F3000C5F808B006D12A69314602F01F021343D2
:102F40002B61E9E7296901F01F010B432B61314631
:102F500004F09BFC10F1160F99D0C5F808B0EA6890
:102F60009DF80830013F62F304038DF808302B69A7
:102F70009DF808205B0863F347128DF80820D6E916
:102F800000321344009323F01F033B44441CA3EB83
:102F90000A0AE0B22AF01F03072803933FF677AF2F
:102FA0006946FFF74DFFBCE790ED00E00522034BBB
:102FB0005A60BFF34F8FBFF36F8F704790ED00E003
:102FC000BFF35F8F0022014B5A60704790ED00E025
:102FD00010B5034C2278FFF74BFF207010BD00BFE7
:102FE000445101202DE9F74F264D8A4606464FF001
:102FF0000008AB46244FD0451BDAD6F80490B9F14F
:10300000000F39D031680846019104F035FC019970
:10301000044609EB0100013804F02EFC84424FF015
:1030200014021A4B08D06FF0150302FB08F84BF896
:10303000083003B0BDE8F08F14F1160F2C60F8D003
:103040001978A142F5DD02FB08B0BC60BC60FC68E9
:1030500000F10801007B64F30400087138690C7901
:10306000400860F347140C71F96821F01F01696092
:10307000396921F01F01296108F1010814350C3666
:10308000B9E700BFB031012090ED00E044510120CC
:1030900038B50E4C2568082D14D8FFF791FF002095
:1030A0000B4B0C4A1A63854205D10B4B1D70FFF781
:1030B0007DFF002038BD616801EB0011FFF7C0FE05
:1030C0000130F0E74FF0FF30F4E700BF6CA10000E3
:1030D00090ED00E0AAFF44004451012008B5094BDF
:1030E0001A786AB901210D2019700521FFF772FCC9
:1030F0000D20FFF751FC4FF00042034BC3F80423AF
:10310000002008BD4551012000D000502D4BF0B5E6
:1031100044682D481340834245D00DD8062B15D066
:1031200005D89BB1022B40D06FF015003AE0B3F503
:10313000801FF9D1012309E02448834237D0B3F539
:10314000A00F36D0B3F5800FEED10223D0064CBFCE
:103150000326C2F3401682F480759705C2F340201F
:10316000C5F3002506D512F4006F676823D001224D
:103170008A40BA60277A164A164C01F01F01012FC7
:1031800008BF144640EA4502002004EB8101D1F853
:10319000004242EA032304F0E04443EA8603234367
:1031A000C1F80032F0BD0723D0E70423CEE70523A2
:1031B000CCE70323CAE7520542BF01228A40FA60E6
:1031C000D8E700BF0600F000060010000200400033
:1031D000002884500025845010B5094B094C00F09C
:1031E0001F024009012808BF234603EB8203D3F8DE
:1031F000002222F4403242EA0142C3F8002210BD0C
:1032000000258450002884502DE9F84F0369884632
:10321000D3E90521DE680A4326EA0206374601247F
:103220004FF00009D0F804A01B69DAF80420DFF899
:1032300068B015695D40174B26EA050517B92846A1
:10324000BDE8F88F3C4220D09AF8082009F01F0012
:10325000344240EA421012D14109012914BF5946B3
:10326000194600F01F02803251F82220C2F30142B9
:10327000022A02BFD8F800202243C8F8002000210B
:10328000FFF7AAFF034B27EA040709F101096400CD
:10329000D4E700BF0028845000258450F7B50E46BF
:1032A000416806F01F05097AB2F5A03F076945EAB3
:1032B000411511D15F4CDFF888C16809012814BF9E
:1032C0002046604605F01F01803150F82110C807E4
:1032D00007D56FF0850093E0B2F5005FF96800F064
:1032E00091800121F868B1400143F96001217869BA
:1032F000B140B2F5A03F0CBF08438843786100207D
:10330000BA69B3F5C02F0CBF0A438A43BA613A6960
:10331000B3F5802F0CBF114322EA0101464A3961FF
:10332000D2F80433DBB200F5A27152F82110C1F3D8
:1033300005218D426BD123FA00F1C90767D58300BF
:1033400003F1A04303F55043D3F8101521F0010118
:10335000C3F8101501238340C2F80833C0B201F04E
:10336000F9F928460021FFF737FFF868F04010F020
:10337000010045D07869F04010F001044ED0BB69DF
:103380000DF10700F340DB0757BF3969032621FA27
:1033900006F606F001065CBFC6F10206F6B201F0C1
:1033A000FBF9264B984236D100209DF807102D02DC
:1033B0008B0003F1A04303F55043D3F8102505F427
:1033C0007C5522F44F3222F44072C3F81025D3F812
:1033D000102515438A0002F1A04202F5514245EA48
:1033E0000646C3F8106510601268D3F8102542F045
:1033F0000102C3F8102501230F4A8B40C2F80433A1
:1034000003B0F0BD0120B04021EA00016DE70130BA
:10341000082888D1A5E76FF01200F1E7396928463E
:10342000F14001F00101C1F10301C9B2FFF7D4FE7F
:103430002046E5E70025845000D000500000AD0B89
:1034400000288450F0B5002485B0CDE90044CDE9D2
:103450000244264E35685DB102A92548FFF7D4FE27
:1034600003A900902348FFF7CFFE01903460336832
:10347000002201269446204CD4F8043306FA02F1C7
:1034800019421BD0910001F1A04101F551410B6897
:10349000A3B102F5A27354F8233004AFC3F3403054
:1034A00007EB800050F8107CC3F3042306FA03F303
:1034B0003B43C1F800C040F8103C0B680132082AB9
:1034C000DAD1009A1AB10A490C4804F049FA019A73
:1034D0001AB108490A4804F043FA2DB1044804F02F
:1034E000A2FA044804F09FFA05B0F0BD7CD1005068
:1034F000CC9C0000E49C000000D00050D0310120A2
:10350000EC310120024B0B6001231360704700BFB8
:10351000D0A1000000487047E0A10000054B99428F
:1035200007D1006920304FF0FF324FF0FF3302F037
:1035300057BD70470000AD0B2DE9F04F81460F4697
:103540001C46164685B0002A00F09080002B00F043
:103550008B8000294268C0F289805268CB18934260
:1035600000F284807D4205F0030504F093FAA54241
:1035700028BF2546734203F0030306F0030B58BF30
:10358000C3F1000BCBF1000B0BF0030BA34528BFDD
:10359000A346631BA4EB0B0424F0030423F00308ED
:1035A000A045C8BFA04603F0030AC8BFA3EB040AA6
:1035B000B8F1000F17D006EB0B037A1941461846F5
:1035C000019304F037FD044601464846FFF7A6FF85
:1035D000294A944237D15D4505D0019B42461946A0
:1035E000701904F092F9ADB13A1F04212A4402A8DF
:1035F00004F020FD044601464846FFF78FFF1E4BAE
:103600009C4220D1C5F1040102AB2A463046194440
:1036100004F092F9BAF1000F24D008217A1942443B
:103620000DEB010004F006FD044601464846FFF795
:1036300075FF114B9C4206D108EB0500524602A9CA
:10364000304404F079F904F17444484604F5A604C2
:1036500004F015FA0A2C0CD8084B33F9140005B005
:10366000BDE8F08F044CEEE71846F8E76FF0150060
:10367000F5E76FF00F00F2E70000AD0B68A4000063
:1036800073B54C6805468CB3D4E90043886878B3B9
:10369000D0E9006068B363B398422DD10133092BA0
:1036A0002AD88DF8013040F20113ADF80230002322
:1036B000097828468DF804308DF800108DF8052023
:1036C00004F0E8F921463246684601F0F5FA04466E
:1036D000284604F0D4F904F1744000F5A6000A2845
:1036E0000DD8084B33F9100002B070BD2346CDE76A
:1036F000064601330344D2E76FF01500F4E76FF09C
:103700000F00F1E768A400002DE9FF470646884650
:103710001F469146002A7BD0002B79D0042B01D97B
:10372000BB0775D118F0030572D1B8F1000F7368AB
:103730006EDB5B6808EB07049C4269D8304604F0F6
:10374000A2F92946304604F0ADF90446304604F0AB
:10375000A1F9002C3ED1032F1CD842460421684613
:1037600004F068FC044601463046FFF7D7FE2B4BB9
:103770009C422FD13A464946684604F0DDF842465D
:103780000421684604F053FC044601463046FFF726
:10379000C5FE1FE009F06043B3F1005F34D0DFF8ED
:1037A0007CA0102F3D4628BF102549462A46684672
:1037B00004F0C2F842461021684604F038FC044682
:1037C00001463046FFF7AAFE544503D17F1BA944AA
:1037D000A844E6D1304604F052F90121304604F005
:1037E00061F905463069002C08BF2C4602F0D8FB71
:1037F00004F1744000F5A6000A280CD8084B33F9F0
:10380000100004B0BDE8F087424639464846B9E7A3
:103810006FF01500F5E76FF00F00F2E70000AD0B59
:1038200068A40000F0B54FF05023002706463A4642
:1038300001212B2087B0C3F8B875FFF7CBF8344CC3
:103840003449354B7568C4E901134FF4306332696C
:1038500020463249E7602382276001F059F900F1E0
:10386000744000F5A6000A284FD82D4B33F91000FC
:10387000002846D1304604F02AF9002841DBE37ADB
:10388000C0B2023B012B3ED9A37A033B012B8CBF74
:1038900000230123C0F38012934201AC19D001220E
:1038A000002380F040008DF8000003A93046CDE9E8
:1038B0000223CDF804D005938DF80C200494FFF773
:1038C000DFFEF0B9304604F002F9002819DBC30727
:1038D000F8D4002203279F23304603A9CDE90272C2
:1038E000CDF804D004928DF80C300594FFF7C8FE93
:1038F00028B93A466946284603F0F7FF08B16FF049
:10390000120007B0F0BD0123C4E76FF00F00F8E725
:103910000432012011120D0E0F100403737A0000FF
:1039200068A400002DE9F84FB1F100080546914662
:1039300046686DDB736842449A4269D8B9F1000F5A
:1039400066D048EA0904C4F30B04002C60D104F0EB
:103950009AF82146284604F0A5F88246284604F045
:1039600099F82D4FBAF1000F40D1B9F1000F3DD0B9
:1039700073684B450DD104F060FBCB4604462146ED
:103980002846FFF7CBFDBC4224D1D844A9EB0B0954
:10399000E8E7B9F5803F0AD31FFA88F353B94146E7
:1039A000012001F0CBF94FF4803B0446E7E7B9F57D
:1039B000805F09D3C8F30B0030B9414601F0BEF96E
:1039C0004FF4805B0446DAE74FF0000B6FF0150A06
:1039D0005C46D4E704F1744404F5A6040A2C03D829
:1039E0000E4B33F914A0BDE76FF00F0A284604F020
:1039F00046F80121284604F055F80446286902F0EB
:103A0000CFFABAF1000F08BFA2465046BDE8F88FC2
:103A10006FF0150AF9E700BF0000AD0B68A40000C5
:103A2000024B0B6001231360704700BF18A2000017
:103A30000048704720A200002DE9F7431C460B44C4
:103A4000B3F5802F0D4617462BD8002929DB44EA11
:103A5000010616F0030624D10422FF210DEB02001B
:103A600003F075FFDFF8408008EB0509A64208D394
:103A70003A4645443C44A2420CD1002003B0BDE884
:103A8000F083042209EB06010DEB020003F02DFF89
:103A90000436EBE72B7812F8011B0B4005F8013BCD
:103AA000E9E76FF01500E9E74651012008B54FF44A
:103AB0008022FF21024803F04AFF002008BD00BF1A
:103AC00046510120104608B51A460B44B3F5802F25
:103AD00007D8002905DB044B194403F02DFF002013
:103AE00008BD6FF01500FBE7465101205318B3F5F0
:103AF000802F70B51BD8002919DB42EA0106C6F3F6
:103B00000B06A6B90B4C21F47F6121F00F01150BB8
:103B10000C44B54201D1002070BD20464FF48052C4
:103B2000FF2103F014FF013604F58054F1E76FF034
:103B30001500F1E7465101204FF4802301480B6046
:103B4000704700BF46510120024B0B6001231360F8
:103B5000704700BF243201200048704740A2000097
:103B600070B50D46144604F05CFA21460646284618
:103B700003F0C8FF00B3B5FBF6F306FB1353DBB944
:103B8000B4FBF6F306FB1340B0B9B44213D34FF0C5
:103B9000FF324FF0FF330A4802F022FA04F041FAF4
:103BA0000646284600F04EFEA41B3544F9D10448D1
:103BB00002F0F6F9204670BD6FF01500FBE700BF7C
:103BC0002C32012010B501220648114605F02AFFCB
:103BD00004F02AFA044C206004F023FA606000200C
:103BE00010BD00BF2C320120243201202DE9F0410C
:103BF0000E461946304615461C4603F083FFB8B3FF
:103C0000CCB34FF0FF324FF0FF331C4802F0E8F91D
:103C100016F003070CD0C7F10407A74228BF2746B8
:103C2000294630463A4600F03DFE3E443D44E41B02
:103C3000002724F00308474507EB060013D16FF077
:103C40000303A20803FB0242E9190AB100F02AFEAD
:103C50000B4AD2F80034DB07FBD5084802F0A0F984
:103C60000020BDE8F081E95900F00AFE0437E2E7E0
:103C70006FF01500F5E72046F3E700BF2C32012076
:103C800000900350F0B54B79012B2CD0032B27D19A
:103C900010278B79032B23D1CD792DB1012D1FD185
:103CA00043685B689B071BD00A79012A1DD0022A52
:103CB0001FD0AAB914460B684668B3F5164F36688C
:103CC0006ED033D8B3F5165F6DD01CD8B3F5966FB0
:103CD0006BD010D8B3F5967F6AD0B3F5167F6AD053
:103CE0006FF085005BE00027D3E74FF480740E226D
:103CF000E1E70024FBE7B3F5166F5FD0B3F5965FFD
:103D0000EED1394B3EE0B3F5E14F5AD007D8B3F5C9
:103D1000615F58D0B3F5964FE2D1344B32E047F6AD
:103D2000122C6345DCD14FF400032BE0B3F5613F67
:103D30004BD013D8B3F5963F4AD009D84DF6C02CD6
:103D4000634547D0B3F5614FCAD14FF46B0319E017
:103D5000B3F5E13FC4D14FF0EB7313E0B3F5612F3E
:103D60003BD009D8DFF898C0634539D0B3F5E12FCF
:103D7000B6D14FF0E86305E0DFF888C06345AFD106
:103D80004FF08053C6F8243503692C433A4322434D
:103D9000043303C9C6F86C2583E803000020F0BD96
:103DA0004FF41D03EEE7124BECE74FF49E23E9E7D7
:103DB0004FF4A033E6E74FF41C33E3E74FF41D2341
:103DC000E0E70C4BDEE70C4BDCE74FF06C73D9E718
:103DD0000A4BD7E74FF46503D4E74FF07063D1E7A0
:103DE0004FF08063CEE700BF00B0130000A04E008C
:103DF0000050270000C0750000F03A0000903A0122
:103E000090D0030040420F00094B0A4900F01F0206
:103E10004009012808BF0B4603EB8203D3F80022B8
:103E200002F0E04242F00302C3F80022704700BFF4
:103E30000025845000288450F8B505460F460669D1
:103E400005F0D7FD10B9204B1B7883B94FF0200344
:103E5000EFF3118483F31188BFF36F8F284603F0CB
:103E60004CFF28BB84F31188BFF36F8FEEE7642407
:103E7000284603F042FF70B9012004F0AAF8013C83
:103E8000F6D10021212002F0E5FAF0E784F3118851
:103E9000BFF36F8FF5E74FF02003EFF3118483F347
:103EA0001188BFF36F8F284603F027FF0028EDD05D
:103EB00031460122284601F8147F03F0B1FF84F354
:103EC0001188BFF36F8FF8BDA6510520064B074937
:103ED00000F01F024009012814BF184608460123BC
:103EE00093408360704700BF0025845000288450B1
:103EF000094B0A4900F01F024009012808BF0B4680
:103F000003EB8203D3F8002202F0E04242F00C02FD
:103F1000C3F80022704700BF002584500028845059
:103F200043682DE9F0411C6800230D4607690646E9
:103F3000C4F8003538600868FFF7C8FF2868FFF745
:103F400063FF6868411C01D0FFF7D2FFD5E9002369
:103F5000A868C4F80C25421CC4F8143501D0FFF73A
:103F6000C7FFE868431C04D0FFF7B0FFE868FFF71D
:103F70004BFFD5E902323169C4F808253046C4F850
:103F800010350431FFF77EFE8046002841D173686A
:103F90005B68190713D507F1160000F0B3FB204B3F
:103FA000984239D1BB7D43F00043C4F8A031C4F836
:103FB0008C300123BA7D93401A4AC2F80435082395
:103FC000C4F800356B6801330CD00023C4F81031FD
:103FD000D4F8103107F11503C4F834350123C4F8BF
:103FE00038352360736814375B681A075CBF4FF479
:103FF0008072C4F80423DB0644BF4FF48003C4F886
:1040000004330023C4F84475C4F848350123A36081
:10401000E3604046BDE8F0816FF00408F9E700BFB7
:104020000000AD0B0070015030B585B06C46054600
:10403000084B0FCB84E80F00002201210820FEF777
:10404000C9FC0820FEF7A8FC21462846FFF768FFB8
:1040500005B030BDE09F000030B585B06C46054628
:10406000084B0FCB84E80F00002201210B20FEF744
:10407000B1FC0B20FEF790FC21462846FFF750FFCD
:1040800005B030BDF09F000030B585B06C460546E8
:10409000084B0FCB84E80F00002201210C20FEF713
:1040A00099FC0C20FEF778FC21462846FFF738FFE4
:1040B00005B030BD00A0000040EA0103C3F30D03CA
:1040C00030B58BB940F21515094C890BC0F3873018
:1040D000994201D1002030BDC218D2B202F5C0729F
:1040E00044F822500133F3E76FF01500F3E700BF07
:1040F000003000504FF000531868054B984205D02F
:10410000044B984214BF02200120704700207047E2
:10411000B6B3B4B55DCE03F110220D4B10B5C3F8A4
:1041200040244FF050220123C2F8143668B161B127
:104130004FF00053074C9960C3E900404FF4084129
:104140000020D960C2F8140610BD6FF01500FBE71F
:1041500000300050B6B3B4B51022154B10B5C3F8FB
:1041600040244FF050220123C2F81436E8B1E1B1E7
:104170004FF0005399604FF408410E4CD960C3E9E9
:10418000004000230C4CC2F81436204605F019FDFF
:10419000FFF7B0FF0028F8D0022805D04FF05023D9
:1041A00001220020C3F8142610BD6FF01500FBE7B4
:1041B00000300050B6B3B4B540420F004FF48272E5
:1041C000014BC3F80027704700300050816808B5E4
:1041D000044A1023103902F0B3FF003818BF012041
:1041E00008BD00BFB4A2000030B50C46816887B09E
:1041F000102302AA1039054602F086FF002811DBC1
:104200001022284602A903F089FE68B10323237017
:10421000A968012328460DF10702283902F074FF2E
:1042200000280BDA01202AE01022164902A803F028
:104230005CFB002814BF02230123E8E79DF8073048
:10424000284603F00F021B096270237101220DF151
:10425000070103F063FE10B96378042B03D901232F
:10426000637000232371AA682846203AA11C03F03A
:104270007AFE0028D6D12846E11C03F091FE07B053
:1042800030BD00BFB4A200002DE9F04385B06946FF
:10429000044602F0ECFD012808D1002C42D0012C8C
:1042A0000CBF0120FF20694603F07EFE00283FD1AD
:1042B000002C39D0012C0CBF0820FF2002A903F0EC
:1042C00073FE012832D103238DF808308DF80B30AE
:1042D00000249DF800509DF808609DF803709DF83B
:1042E0000B809DF80290184A2946107803F027FEAB
:1042F00010B33146507803F022FEE8B19378042BD6
:1043000001D0BB4218D1D378042B01D0434513D13F
:104310001379042B0ED15079831E022B08D805B0D7
:10432000BDE8F0830420BEE70220C7E70028CFD015
:10433000FF20F4E74B45EED00134032C02F10602D6
:10434000D2D10120EBE700BF5BA70000064B1B6842
:10435000072B07D1054B1B68023B032B02D8044AED
:10436000D05C7047002070473001FF003401FF002F
:104370006DA700004FF05023D3F85825034B02F0EF
:104380000302D340024A1360704700BF0020A10718
:10439000F420002008B5FFF7D9FF48B1394B1A685F
:1043A00032B90D2119600121A3F5827319601A60D9
:1043B0000022D30003F57F03D3F80013013107D0A7
:1043C000D3F800130132D3F80433202A0B60F0D164
:1043D000FFF7BCFF00284ED1FFF7B8FF38B12A4BDA
:1043E0002A4A1A604FF050230122C3F85825284B5F
:1043F0001B68072B0AD1274B1B68023B032B05D8F0
:10440000254AD35C13B10022244B1A60FFF79EFFAC
:1044100050B14FF05023D3F80024D10742BF0022FF
:10442000C3F81421C3F81821194B1B68072B09D1B5
:104430004FF05023D3F80024D20744BF6FF001029D
:10444000C3F80024FFF782FF10B16522144B1A60F5
:10445000144AD2F88C3043F44063C2F88C30124ACC
:10446000124B1168C3F84415D269C3F84C25BDE856
:104470000840FFF77FBF2922094B1A6003221A6305
:10448000AAE700BF204A0050309503504400EFBE19
:104490003001FF003401FF0071A700004C250350DC
:1044A0000C47005000ED00E00080FF00006000506D
:1044B000044B1A7922B9012218601A710248704718
:1044C00002487047483201200000AD0B0C00AD0BD4
:1044D000032847D8DFE800F002222D3A4FF050229F
:1044E000D2F81834D2F81814C90311D503F0030315
:1044F000022B0DD1C2F8183500221B4B1A601B6825
:1045000002224FF05023C3F8042301229A6070471F
:104510004FF050230122C3F81825EDE70022134B7A
:104520001A601B6801224FF05023C3F804231A605D
:10453000704700220E4B1A601B684FF400724FF058
:104540005023C3F8042301221A6270470022094B4A
:104550001A601B684FF480724FF05023C3F8042395
:1045600001229A61704700BF045100500051005071
:10457000245100502051005070B5044603283ED805
:10458000DFE800F002223E4B4FF050230222C3F836
:104590000823002203F582731A601B68284B01224E
:1045A00042F210754FF050261A60022C42D0032CB4
:1045B00043D024BBD6F81834DB0320D5012003F008
:1045C00008FD013DF1D11AE001234FF050240021F4
:1045D00042F210751B4AC4F80833116012681A4A77
:1045E0001360D4F80C34D4F80C2403F00103D20384
:1045F00005D523B1012003F0ECFC013DF1D170BDE4
:104600004FF050234FF40072C3F80823002203F543
:1046100092731A601B680D4BC1E74FF050234FF4A3
:104620008072C3F80823002203F590731A601B6898
:10463000074BB4E7D6F85C34BEE7D6F85434BBE792
:104640000C500050005100500450005024500050B5
:104650001C500050264B10B51A6852B1002018604B
:104660001B6801224FF05023C3F80823214B1B681D
:104670009847214B1A688AB100221A601B684FF0D4
:104680005023D3F81824D3F8181402F00302012A97
:104690004FF0020124D1C3F818159A60174B1A681D
:1046A00062B100221A601B684FF480724FF05023F1
:1046B000C3F808230F4B04201B689847104B1A6857
:1046C000AAB1BDE8104000221A601B684FF40072C6
:1046D0004FF05023C3F80823064B05201B681847EA
:1046E000C3F80813034B01201B689847D6E710BD99
:1046F0000051005048320120045100502051005018
:1047000024510050F0B54FF02003EFF3118583F3EF
:104710001188BFF36F8F0C4A1468E74312D000234F
:10472000D9B227FA01F6F60703F10103F8D5012300
:104730008B40234301700548136085F31188BFF354
:104740006F8FF0BD0248F8E7503201200000AD0B3A
:104750000200AD0B012303FA00F010F0FF0F12D09E
:104760004FF02003EFF3118183F31188BFF36F8FB4
:10477000064AD36D23EA0000D06581F31188BFF3A8
:104780006F8F034870470348704700BF54320120C1
:104790000000AD0B0400AD0B2DE9F041FF22002419
:1047A00001260546DFF858E01448DFF85880E3B2E8
:1047B0004FF02001EFF3118C81F31188BFF36F8F5D
:1047C00022FA03F1C9070AD5DEF85C1006FA03F7EE
:1047D000394201BF40463943CEF85C102B708CF350
:1047E0001188BFF36F8F404505D006FA03F39A4353
:1047F00004F10104DBD1BDE8F08100BF0200AD0B84
:10480000543201200000AD0B0022034BC3F8842575
:10481000C3F80425704700BF00900350002370B513
:10482000074C934200D170BD51F82350D4F8006476
:10483000F607FBD540F82350BFF35F8F0133F0E755
:104840000090035008B5C0F30B0383B90222094B53
:10485000C3F88425C3F804254FF0FF320260D3F873
:104860000024D207FBD5FFF7CFFF034808BD03485C
:10487000FCE700BF009003500000AD0B0A00AD0B39
:104880000122074BC3F88425C3F80425D3F800247C
:10489000D207FBD50160BFF35F8FFFF7B5BF00BF45
:1048A000009003502DE9F843012315461D4A0446A4
:1048B000C2F88435C2F8043510F003030E46904662
:1048C00014D0C3F10407AF4228BF2F463A46A0EBED
:1048D000030903F090FBD8F80034DA07FBD5C9F8D8
:1048E0000000BFF35F8FED1B3C443E44AA083146F5
:1048F0002046FFF793FF15F003020ED025F00305C5
:104900002C442046711903F076FB064AD2F8003495
:10491000DB07FBD52060BFF35F8FBDE8F843FFF7EF
:1049200073BF00BF0090035070B500F06044B4F155
:10493000005F49D1840747D1254C94F83050012DB0
:1049400001D09D4242D12568002D2CD0A6681EB30F
:10495000E0606161E2610024022B1E4B0BBFC3F8D3
:104960001025C3F80425C3F81405C3F808050BBFC8
:10497000C3F81815C3F80C1508230423ADB9012199
:10498000154A03F1A04303F52C3315601960136831
:10499000002BFCD0114870BDA0602161A26184F899
:1049A00030300124D8E72C46D6E7002CF2D0002185
:1049B000094A03F1A04311600122064903F52C3393
:1049C000C1F804231A60E5E70548E4E70548E2E793
:1049D000B432012000B0025000B102500000AD0B13
:1049E0000A00AD0B0B00AD0B38B56424054D2B68E8
:1049F00033B90A2003F0EDFA013CF8D1024838BD82
:104A00000248FCE700B102500700AD0B0000AD0BFF
:104A1000084B9A685A621A699A629A69DA62DA6885
:104A20009A6032B15A691A61DA699A610022DA60D1
:104A300070477047B432012010B50A4A0A4C00F0A2
:104A40001F034009012808BF224602EB8302D2F867
:104A5000003203F0E04343EA012343F00203C2F8CB
:104A6000003210BD00258450002884500E4B0238BF
:104A7000D3F83C26D3F83836072813D8DFE800F0FF
:104A8000110F0D0B0A080604100EC871100C887166
:104A9000100A48710A711A0ECA701A0C8A701A0A22
:104AA0004A700B70704700BF00B0025002380728F0
:104AB0001FD8DFE800F02927251123211F04CB7917
:104AC0001B068A7943EA02434A7943EA02230A79B8
:104AD00013430E4AC2F83C36CB781B068A7843EA69
:104AE00002434A7843EA02230A781343074AC2F88A
:104AF000383670470023E4E70023E5E70023E6E7C4
:104B00000023EBE70023ECE70023EDE700B00250C1
:104B1000F8B5644D044695F830300E461746002B24
:104B200040F0BB800279FF2A00F0B9804379FF2B67
:104B300000F0B580112A817940F0B180122B40F04D
:104B4000AE800D2940F0AB80C3790E2B40F0A780DA
:104B5000037AFF2B02D00F2B40F0A180637AFF2B4A
:104B600002D0102B40F09B8003211120FFF764FF3F
:104B700003216079FFF760FF0321A079FFF75CFF55
:104B8000E0790321FFF758FF207AFF2802D00321A4
:104B9000FFF752FF607AFF2802D00321FFF74CFF96
:104BA0002379FF2B14BF1A464FF0FF323E4BC3F858
:104BB00024256279FF2A08BF4FF0FF32C3F8282569
:104BC000A279FF2A08BF4FF0FF32C3F83025E279FF
:104BD000FF2A08BF4FF0FF32C3F83425227AFF2A9C
:104BE00008BF4FF0FF32C3F83825627AFF2A08BFAA
:104BF0004FF0FF32C3F83C252268C3F84025227BE2
:104C0000E07AA17A920142EAC0020A43617B00295C
:104C100014BF802100210A43C3F84425617CD3F8E6
:104C20004425A9BB42F44032C3F844254FF4C06286
:104C3000C3F84026D3F80036A27B23F07F4323F04D
:104C4000FF031343E27B207C002A14BF4FF08072E5
:104C5000002243EA4063144C43EA01731343C4F84F
:104C600000360123C5E90067C4F8083316B12B20CC
:104C7000FDF792FE012300220C49AA6085F830302E
:104C8000C4F800350A602360BDE8F840FFF7ACBE09
:104C900022F4003242F48032C6E70548F8BD0548E8
:104CA000FCE700BFB432012000B0025000B1025056
:104CB0000500AD0B0400AD0B70B51446194A06464D
:104CC00092F83020012A2AD10022174D2A6011B112
:104CD0004078FFF7EBFE0123144AC2F80833B3789B
:104CE00071781B0343EA012331780B43F17843EADF
:104CF0004133317943EA8133717943EAC133C2F8F0
:104D00003436FFF771FE0A4B984209D000232B601E
:104D10001CB121467078FFF7A9FE064800E006485E
:104D200070BD00BFB432012000B1025000B002508B
:104D30000700AD0B0000AD0B0B00AD0B8B0730B5C2
:104D400021D1134B1D681C461DB193F83030012B47
:104D50001BD104230F4A84F83030C2F81C150021FF
:104D60000D4BC2F82005196001210C4801603DB9C6
:104D70001A68002AFCD0012384F83030084830BD7E
:104D8000C2F80413FAE70748F9E70748F7E700BF56
:104D9000B432012000B0025000B102500CB00250F9
:104DA0000000AD0B0A00AD0B0B00AD0B174B10B59F
:104DB0001A68DAB10022164C1A6094F83030032BCE
:104DC00015D0042B15D0022B04D1012384F82030F8
:104DD000FFF71EFEA36813B9012384F83030D4E92D
:104DE000003100209847002384F8203010BD0223B2
:104DF000ECE7032384F82030064BD3F81C256262CD
:104E0000D3F8203584F82830E4E700BF00B1025021
:104E1000B432012000B0025001680E4A03469142AC
:104E200015D1C169A2F11022A2F1EF1291420ED167
:104E30008268012A0BD8C26812B101698A4206D081
:104E4000586928B19B691B1A584258417047012084
:104E5000704700BF55AA00FF0D4B70B59E68A6B104
:104E60003046FFF7D9FF044678B9F3686BB9356966
:104E70000DB9204670BD2846FFF7CEFF28B9EB6874
:104E8000B34202D12E462D69F2E70124F1E700BFBB
:104E9000E83201202DE9F843404D2C68D4B1AC68CC
:104EA000C4B100284DD000294BD001FB00F6B6FB61
:104EB000F0F0884245D1301D43D8B1070DD026F01F
:104EC00003070437EC6803E06368BB423BD2A46984
:104ED000002CF9D12046BDE8F8833746F2E7E860B8
:104EE00044E007F1200C04EB0C0320395960002149
:104EF000DFF8B0E0C3E902142169196144F80CE05D
:104F0000DFF8A4C0C3F81CC001B1CB60C3E9052021
:104F1000AAB193619A6902B15361236100234FF0F2
:104F20000109C4E905332B69C4E90179DB072DD5F3
:104F3000FFF792FF50B31A4B48461B6825E0EB6021
:104F4000E8E70024C6E7A3681BB1154B01201B68E6
:104F50009847D4E90520616804F12008C91B23297A
:104F6000BFD80123A360002AB9D09061A36903B11F
:104F70005A610023C4E905332B69DA0706D5FFF728
:104F80006BFF18B10120064B1B6898473246002181
:104F90004046444602F0DBFC9CE700BFE8320120BB
:104FA000FC20002055AA00FF669911EE2DE9F04182
:104FB000054600287CD03F4E3368002B78D0B2687D
:104FC000002A75D0834203D872681344984203D3F1
:104FD000394B01201B689847A5F120042046FFF7B4
:104FE0001BFF18B1344B01201B68984755F8183C3B
:104FF000012B03D0304B01201B689847002355F844
:10500000147C45F8183CAFB1BA6892B955F81C3C0D
:1050100003F120027B6813447B6055F8103C3B6130
:1050200003B1DF6020462022002102F090FC2346DD
:105030003C461F462069002832D08368002B2FD1C0
:10504000636842682033134463600369D4E905212F
:105050002361DAB901BB426981696261A161EAB188
:105060009461A26902B1546103B1DC602022002185
:1050700002F06DFC33699B071AD5FFF7EDFEB8B15E
:10508000BDE8F0410C4B01201B6818479161A169F4
:105090000029E0D04A61DEE7F160F8E7F460E0E77C
:1050A000002FE7D1F368A36103B15C61F460E1E72D
:1050B000BDE8F081E8320120FC20002038B50D4623
:1050C000142200210446124802F041FC1149124802
:1050D00000F032F8232D1AD914F003031FBF043D4A
:1050E000ED18C3F10403E4182A460021204602F01B
:1050F0002EFC074B094AC3E900459C602260A2F1DF
:105100001022203DA2F1EF126560E261DC6038BD43
:10511000E8320120AD4F0000954E000055AA00FF77
:10512000014B1B68184700BFF8200020014B1B688B
:10513000184700BF00210020024B1860024B0020DE
:1051400019607047F8200020002100200A4619B19C
:10515000024B00211B681847704700BF0421002044
:10516000F8B500F108064768044630460D4603F0DE
:10517000B1FB874216D16368B3F5807F12D8002156
:10518000304603F01EFD00280CDD0021304603F000
:1051900074FB38B145B9002104F1140003F011FD8E
:1051A00000281EDC1B481EE004F12C0600213046BE
:1051B00003F007FD0028F5DD0021304603F05DFB1C
:1051C0000028EFD004F138060021304603F0F9FC46
:1051D0000028E7DD0021304603F04FFB0028DAD13C
:1051E000E0E70DB90020F8BD002104F1440003F010
:1051F000E8FC0028D6DD002104F1500003F0E1FCBA
:105200000028CFDD002104F15C0003F0DAFC002867
:10521000E8DCC7E780BFFFFF70B500210446FFF759
:105220009FFF0546B8B904F10806304603F036FB87
:105230007F2810D914342946204603F01EFB50B1B4
:10524000204603F02BFB012805D93146204603F008
:1052500075FC002800DB014D284670BD00BEFFFF35
:10526000F0B50C4687B0002105461646FFF778FFDB
:1052700080BB03A803F07BFA21466A6803A803F009
:105280002FFB0446D0B905F10804214603A803F01A
:1052900055FC00281BDA05F1680303A900930846B2
:1052A000234605F114026F6803F0D5FF044628B9C0
:1052B0003A46314603A803F04BFB044603A803F02B
:1052C0005CFA0CB1A4F58544204607B0F0BD6FF040
:1052D0000304F3E7004CF7E780BFFFFF0023C0E9BA
:1052E0000033C1B9194A1A4BDFF88CC0C0E9022358
:1052F000184B194AC0E904C3184BC0E90623184BE0
:10530000036203F17453A3F52303A3F692434362AC
:10531000816600207047134B134ADFF860C0C0E974
:10532000022303F1794303F5740303F50163036179
:105330000E4BC0E905C303F1D14303F5C01303F5D8
:105340001E63C3610A4B03620A4BE0E767E6096A22
:1053500085AE67BB3AF54FA57F520E518C68059B11
:10536000ABD9831F07D57C36D89E05C1310BC0FF52
:10537000A78FF964A44FFABE72F36E3C39590EF749
:105380002DE9F04F00F10803D3B004934AAB059325
:1053900000F128030693DDE9043253F8040B42F8C8
:1053A000040B06989842F8D10AAA01F140004B7804
:1053B0000C781B0443EA0463CC780431234311F8CE
:1053C000024C884243EA042342F8043BEFD1A4484C
:1053D0000DF1200BDE46DDE94A728146509BDDF877
:1053E00044C1DDF838A14F9E01900093DDE94C31B6
:1053F000DEF80840D9F800004FEAFA2585EABA1528
:10540000204485EA7A6505440098009C704000EAD3
:105410000A006040054447EA02044FEA7730AC4492
:1054200080EAB70007EA02051C4080EAB7502C4327
:105430000444D9F80450DEF80C0061440544009897
:10544000A4448AEA060405440C404FEAF120744063
:1054500080EAB110254480EA716028444CEA0704D0
:105460004FEA7C350CEA070885EABC05144044EA9B
:10547000080485EABC55254405440344D9F808408E
:10548000DEF810000EF1200E0444264481EA0A04DE
:105490001C4084EA0A0806EB08044FEAF32686EA71
:1054A000B31686EA736626444CEA05004FEA753463
:1054B0000CEA050884EAB504384040EA080084EAAA
:1054C000B554044434443244D9F80C005EF80C6CF2
:1054D00009F120093044824481EA0300104080EA47
:1054E00001080AEB08004FEAF22A8AEAB21A8AEAAD
:1054F000726A824445EA04064FEA74300AEB0708F0
:1055000080EAB40005EA040706EA0C063E4380EA96
:10551000B4505EF8087C304459F8106C50443E4456
:1055200083EA020A31440AEA080A4FEAF8268AEABC
:10553000030A86EAB816514486EA78660E4444EABD
:1055400000074FEA703104EA000A81EAB0012F40F7
:1055500047EA0A0781EAB05139443144B4445EF85D
:10556000047C59F80C6C82EA080A3E4433440AEA87
:105570000C0A4FEAFC268AEA020A86EABC16534461
:1055800086EA7C661E44AB19009340EA01054FEAA7
:10559000713300EA0107254083EAB1033D4383EA02
:1055A000B1532B44334459F8085CDEF800603544AD
:1055B000009E154488EA0C02324082EA0807EA1984
:1055C0004FEAF62585EAB61585EA7665154466192B
:1055D0004FEA733241EA0304044001EA030782EA16
:1055E000B3023C4382EAB35222442A4459F8044CA1
:1055F000DEF804502C44A044009C4FEA72358CEA3B
:105600000404344084EA0C0708EB07044FEAF62848
:1056100088EAB61888EA766885EAB20543EA02079E
:1056200044440F4085EAB25803EA02053D4300EBCB
:10563000040A18A84544704504EB05077FF4D8AE6A
:105640000098CDE94A72CDE94C31CDE90845CDE964
:105650004F6038A8CDF844C1CDF838A1079001E0DB
:10566000C4A20000DBF84000DBF80C504FEAF04E1B
:105670008EEA704EDBF808408EEA902EDBF82C00A4
:105680004FEAB548204488EAF5184FEAFA2488EA38
:10569000D50884EABA1486440EEB080084EA7A6ED0
:1056A000009C03907440009804EA0A044440019866
:1056B0007444006C8AEA060E2044039C0BF1200B14
:1056C0002044844401EB0C0847EA02004FEA77319A
:1056D000CBF8284081EAB70107EA0204184081EAC2
:1056E000B75120430844DBF8241084444FEAF140CA
:1056F00080EA71405BF8104C80EA9120DBF81010D2
:105700000EEA080E29444FEAB445014485EAF4152F
:10571000019885EAD4052944406C009D8EEA060E66
:1057200028444FEAF825084485EAB81585EA7865E3
:10573000864405EB0E00034400934FEA7C3547EAAC
:105740000C0307EA0C0E85EABC05134043EA0E037E
:1057500085EABC551D44039B05444FEAF34080EAAB
:10576000734080EA9320DBF814305BF80CEC2344A0
:10577000034400988AEA080909EA000901984FEAF7
:10578000BE44806C84EAFE1484EADE042344304480
:10579000184489EA0A09814400984FEA75364FEAAD
:1057A000F02484EAB01484EA706404EB0900024433
:1057B0004CEA0504029286EAB5060CEA05023C4072
:1057C00086EAB5561443344404444FEAF14080EA73
:1057D0007140CBF82C1080EA9121DBF818005BF8BF
:1057E000082C864471444FEAB24E8EEAF21E8EEACD
:1057F000D20E8E440099029888EA0101CBF830302D
:105800000140019881EA0801C66C0298564476442A
:105810003144029E4FEAF02080EAB61080EA7660BA
:10582000461845EA040005EA04014FEA743A00EA22
:105830000C008AEAB40A08434FEAF3418AEAB45AF0
:1058400081EA7341504481EA9323DBF81C10304411
:1058500007EB06095BF8046C0A4413444FEAB642AE
:1058600082EAF61282EAD6021A440299009BCBF829
:1058700034E083EA010707EA09075F40019B4FEA2A
:10588000F9211B6D81EAB911134443441F4481EA95
:105890007961CB1944EA00074FEA703104EA000845
:1058A00081EAB0012F4047EA080781EAB051394444
:1058B00019449C44DBF80080DBF820304FEAFE47B7
:1058C00087EA7E4787EA9E2E9F194FEAB84383EA0C
:1058D000F81383EAD80377441F44029B009E83EAAF
:1058E000090E0EEA0C0E8EEA030E019BCBF838204F
:1058F0005B6DCBF83C703B4433449E444FEAFC2341
:1059000083EABC1383EA7C6303EB0E06AB190093B6
:1059100040EA01054FEA713300EA010E254083EAAF
:10592000B10345EA0E0583EAB1532B443344DBF857
:1059300024504FEAF246DBF804E086EA724686EA33
:10594000922205EB080616444FEABE4282EAFE1296
:1059500082EADE021644009A89EA0C0808EA020884
:10596000019ACBF84060956D029A35441544009A2F
:10597000009E4FEAF22288EA090882EAB61282EA19
:1059800076624544154466194FEA733241EA0304CE
:10599000044082EAB30201EA030844EA080482EA06
:1059A000B35222444FEAF74484EA77442A4484EA13
:1059B0009727DBF80850039CA6444FEAB54484EAD5
:1059C000F51484EAD505009C77448CEA040E019C0A
:1059D0003D44E76D0EEA060E2F444FEAF6248EEAA8
:1059E0000C0E4F4484EAB614774484EA76643C444F
:1059F00000EB040A0198CBF844504FEA723585EA6F
:105A0000B205203043EA020785EAB25E0F4003EA9E
:105A10000205019007983D437544584504EB05077E
:105A20007FF420AE0098CDE94A72CDE94F60CDE910
:105A30004C31CDE90845CDF844C1CDF838A1049BDF
:105A400005991B6851F8042B1344049A059142F8F8
:105A5000043B069B04929342F1D108A84FF4947141
:105A6000FFF774FB002053B0BDE8F08F0E4B70B50C
:105A700053F82040013053F82060A64200D870BD92
:105A8000D4E900352846984765B1EB6830B1002865
:105A9000B8BF4042FF28A8BFFF2018705A7842F0D4
:105AA00001025A700834E8E7C4A3000070B5054647
:105AB00010B90024204670BD0378002BF9D00F4A9E
:105AC0000F4C1646944208D10D4CB442F1D02046FA
:105AD00003F01AFF50B91834F7E7204603F014FF1B
